{
	"src/Shipment.sol": {
		"Shipment": {
			"abi": [
				{
					"inputs": [],
					"stateMutability": "nonpayable",
					"type": "constructor"
				},
				{
					"anonymous": false,
					"inputs": [
						{
							"indexed": false,
							"internalType": "uint256",
							"name": "id",
							"type": "uint256"
						},
						{
							"indexed": false,
							"internalType": "string",
							"name": "newLocation",
							"type": "string"
						}
					],
					"name": "LocationUpdated",
					"type": "event"
				},
				{
					"inputs": [
						{
							"internalType": "string",
							"name": "_deliveryName",
							"type": "string"
						},
						{
							"internalType": "string",
							"name": "_location",
							"type": "string"
						}
					],
					"name": "createShipment",
					"outputs": [
						{
							"internalType": "uint256",
							"name": "",
							"type": "uint256"
						}
					],
					"stateMutability": "nonpayable",
					"type": "function"
				},
				{
					"inputs": [
						{
							"internalType": "uint256",
							"name": "_shipmentId",
							"type": "uint256"
						}
					],
					"name": "getShipmentDetails",
					"outputs": [
						{
							"internalType": "string",
							"name": "deliveryName",
							"type": "string"
						},
						{
							"internalType": "string",
							"name": "location",
							"type": "string"
						},
						{
							"internalType": "string",
							"name": "targetLocation",
							"type": "string"
						},
						{
							"internalType": "uint256",
							"name": "moveTimestamp",
							"type": "uint256"
						}
					],
					"stateMutability": "view",
					"type": "function"
				},
				{
					"inputs": [],
					"name": "manager",
					"outputs": [
						{
							"internalType": "address",
							"name": "",
							"type": "address"
						}
					],
					"stateMutability": "view",
					"type": "function"
				},
				{
					"inputs": [
						{
							"internalType": "uint256",
							"name": "_shipmentId",
							"type": "uint256"
						},
						{
							"internalType": "uint256",
							"name": "_seconds",
							"type": "uint256"
						},
						{
							"internalType": "string",
							"name": "_targetLocation",
							"type": "string"
						}
					],
					"name": "moveShipment",
					"outputs": [],
					"stateMutability": "nonpayable",
					"type": "function"
				},
				{
					"inputs": [],
					"name": "shipmentCount",
					"outputs": [
						{
							"internalType": "uint256",
							"name": "",
							"type": "uint256"
						}
					],
					"stateMutability": "view",
					"type": "function"
				},
				{
					"inputs": [
						{
							"internalType": "uint256",
							"name": "",
							"type": "uint256"
						}
					],
					"name": "shipments",
					"outputs": [
						{
							"internalType": "uint256",
							"name": "id",
							"type": "uint256"
						},
						{
							"internalType": "string",
							"name": "deliveryName",
							"type": "string"
						},
						{
							"internalType": "string",
							"name": "location",
							"type": "string"
						},
						{
							"internalType": "string",
							"name": "targetLocation",
							"type": "string"
						},
						{
							"internalType": "uint256",
							"name": "moveTimestamp",
							"type": "uint256"
						}
					],
					"stateMutability": "view",
					"type": "function"
				},
				{
					"inputs": [
						{
							"internalType": "uint256",
							"name": "_shipmentId",
							"type": "uint256"
						}
					],
					"name": "updateShipmentLocation",
					"outputs": [],
					"stateMutability": "nonpayable",
					"type": "function"
				}
			],
			"devdoc": {
				"kind": "dev",
				"methods": {
					"createShipment(string,string)": {
						"params": {
							"_deliveryName": "Name of the delivery for the shipment",
							"_location": "Location of the shipment"
						},
						"returns": {
							"_0": "The ID of the newly created shipment"
						}
					},
					"getShipmentDetails(uint256)": {
						"params": {
							"_shipmentId": "ID of the shipment"
						},
						"returns": {
							"deliveryName": "The delivery name of the shipment",
							"location": "The current location of the shipment",
							"moveTimestamp": "The timestamp in seconds when the location should change",
							"targetLocation": "The target location to move to"
						}
					},
					"moveShipment(uint256,uint256,string)": {
						"params": {
							"_seconds": "Number of seconds after which the location should change",
							"_shipmentId": "ID of the shipment to update",
							"_targetLocation": "Target location to move to"
						}
					},
					"updateShipmentLocation(uint256)": {
						"params": {
							"_shipmentId": "ID of the shipment to check"
						}
					}
				},
				"title": "Contract to manage shipments with scheduled location updates in seconds",
				"version": 1
			},
			"evm": {
				"assembly": "    /* \"src/Shipment.sol\":162:4418  contract Shipment {... */\n  mstore(0x40, 0x80)\n    /* \"src/Shipment.sol\":981:1090  constructor() {... */\n  callvalue\n  dup1\n  iszero\n  tag_1\n  jumpi\n  0x00\n  dup1\n  revert\ntag_1:\n  pop\n    /* \"src/Shipment.sol\":1015:1025  msg.sender */\n  caller\n    /* \"src/Shipment.sol\":1005:1012  manager */\n  0x00\n  dup1\n    /* \"src/Shipment.sol\":1005:1025  manager = msg.sender */\n  0x0100\n  exp\n  dup2\n  sload\n  dup2\n  0xffffffffffffffffffffffffffffffffffffffff\n  mul\n  not\n  and\n  swap1\n  dup4\n  0xffffffffffffffffffffffffffffffffffffffff\n  and\n  mul\n  or\n  swap1\n  sstore\n  pop\n    /* \"src/Shipment.sol\":1051:1052  0 */\n  0x00\n    /* \"src/Shipment.sol\":1035:1048  shipmentCount */\n  0x01\n    /* \"src/Shipment.sol\":1035:1052  shipmentCount = 0 */\n  dup2\n  swap1\n  sstore\n  pop\n    /* \"src/Shipment.sol\":162:4418  contract Shipment {... */\n  dataSize(sub_0)\n  dup1\n  dataOffset(sub_0)\n  0x00\n  codecopy\n  0x00\n  return\nstop\n\nsub_0: assembly {\n        /* \"src/Shipment.sol\":162:4418  contract Shipment {... */\n      mstore(0x40, 0x80)\n      callvalue\n      dup1\n      iszero\n      tag_1\n      jumpi\n      0x00\n      dup1\n      revert\n    tag_1:\n      pop\n      jumpi(tag_2, lt(calldatasize, 0x04))\n      shr(0xe0, calldataload(0x00))\n      dup1\n      0x481c6a75\n      gt\n      tag_10\n      jumpi\n      dup1\n      0x481c6a75\n      eq\n      tag_6\n      jumpi\n      dup1\n      0x564d1b0a\n      eq\n      tag_7\n      jumpi\n      dup1\n      0x693d70aa\n      eq\n      tag_8\n      jumpi\n      dup1\n      0xaace20b7\n      eq\n      tag_9\n      jumpi\n      jump(tag_2)\n    tag_10:\n      dup1\n      0x249e702c\n      eq\n      tag_3\n      jumpi\n      dup1\n      0x2ac08a93\n      eq\n      tag_4\n      jumpi\n      dup1\n      0x3def2b52\n      eq\n      tag_5\n      jumpi\n    tag_2:\n      0x00\n      dup1\n      revert\n        /* \"src/Shipment.sol\":2053:2849  function moveShipment(uint _shipmentId, uint _seconds, string memory _targetLocation) public {... */\n    tag_3:\n      tag_11\n      0x04\n      dup1\n      calldatasize\n      sub\n      dup2\n      add\n      swap1\n      tag_12\n      swap2\n      swap1\n      tag_13\n      jump\t// in\n    tag_12:\n      tag_14\n      jump\t// in\n    tag_11:\n      stop\n        /* \"src/Shipment.sol\":687:736  mapping(uint => ShipmentDetails) public shipments */\n    tag_4:\n      tag_15\n      0x04\n      dup1\n      calldatasize\n      sub\n      dup2\n      add\n      swap1\n      tag_16\n      swap2\n      swap1\n      tag_17\n      jump\t// in\n    tag_16:\n      tag_18\n      jump\t// in\n    tag_15:\n      mload(0x40)\n      tag_19\n      swap6\n      swap5\n      swap4\n      swap3\n      swap2\n      swap1\n      tag_20\n      jump\t// in\n    tag_19:\n      mload(0x40)\n      dup1\n      swap2\n      sub\n      swap1\n      return\n        /* \"src/Shipment.sol\":1338:1764  function createShipment(string memory _deliveryName, string memory _location) public returns (uint) {... */\n    tag_5:\n      tag_21\n      0x04\n      dup1\n      calldatasize\n      sub\n      dup2\n      add\n      swap1\n      tag_22\n      swap2\n      swap1\n      tag_23\n      jump\t// in\n    tag_22:\n      tag_24\n      jump\t// in\n    tag_21:\n      mload(0x40)\n      tag_25\n      swap2\n      swap1\n      tag_26\n      jump\t// in\n    tag_25:\n      mload(0x40)\n      dup1\n      swap2\n      sub\n      swap1\n      return\n        /* \"src/Shipment.sol\":186:208  address public manager */\n    tag_6:\n      tag_27\n      tag_28\n      jump\t// in\n    tag_27:\n      mload(0x40)\n      tag_29\n      swap2\n      swap1\n      tag_30\n      jump\t// in\n    tag_29:\n      mload(0x40)\n      dup1\n      swap2\n      sub\n      swap1\n      return\n        /* \"src/Shipment.sol\":3002:3601  function updateShipmentLocation(uint _shipmentId) public {... */\n    tag_7:\n      tag_31\n      0x04\n      dup1\n      calldatasize\n      sub\n      dup2\n      add\n      swap1\n      tag_32\n      swap2\n      swap1\n      tag_17\n      jump\t// in\n    tag_32:\n      tag_33\n      jump\t// in\n    tag_31:\n      stop\n        /* \"src/Shipment.sol\":3979:4416  function getShipmentDetails(uint _shipmentId) public view returns (string memory deliveryName, string memory location, string memory targetLocation, uint moveTimestamp) {... */\n    tag_8:\n      tag_34\n      0x04\n      dup1\n      calldatasize\n      sub\n      dup2\n      add\n      swap1\n      tag_35\n      swap2\n      swap1\n      tag_17\n      jump\t// in\n    tag_35:\n      tag_36\n      jump\t// in\n    tag_34:\n      mload(0x40)\n      tag_37\n      swap5\n      swap4\n      swap3\n      swap2\n      swap1\n      tag_38\n      jump\t// in\n    tag_37:\n      mload(0x40)\n      dup1\n      swap2\n      sub\n      swap1\n      return\n        /* \"src/Shipment.sol\":615:640  uint public shipmentCount */\n    tag_9:\n      tag_39\n      tag_40\n      jump\t// in\n    tag_39:\n      mload(0x40)\n      tag_41\n      swap2\n      swap1\n      tag_26\n      jump\t// in\n    tag_41:\n      mload(0x40)\n      dup1\n      swap2\n      sub\n      swap1\n      return\n        /* \"src/Shipment.sol\":2053:2849  function moveShipment(uint _shipmentId, uint _seconds, string memory _targetLocation) public {... */\n    tag_14:\n        /* \"src/Shipment.sol\":2178:2185  manager */\n      0x00\n      dup1\n      sload\n      swap1\n      0x0100\n      exp\n      swap1\n      div\n      0xffffffffffffffffffffffffffffffffffffffff\n      and\n        /* \"src/Shipment.sol\":2164:2185  msg.sender == manager */\n      0xffffffffffffffffffffffffffffffffffffffff\n      and\n        /* \"src/Shipment.sol\":2164:2174  msg.sender */\n      caller\n        /* \"src/Shipment.sol\":2164:2185  msg.sender == manager */\n      0xffffffffffffffffffffffffffffffffffffffff\n      and\n      eq\n        /* \"src/Shipment.sol\":2156:2228  require(msg.sender == manager, \"Only the manager can move the shipment\") */\n      tag_43\n      jumpi\n      mload(0x40)\n      0x08c379a000000000000000000000000000000000000000000000000000000000\n      dup2\n      mstore\n      0x04\n      add\n      tag_44\n      swap1\n      tag_45\n      jump\t// in\n    tag_44:\n      mload(0x40)\n      dup1\n      swap2\n      sub\n      swap1\n      revert\n    tag_43:\n        /* \"src/Shipment.sol\":2278:2279  0 */\n      0x00\n        /* \"src/Shipment.sol\":2264:2275  _shipmentId */\n      dup4\n        /* \"src/Shipment.sol\":2264:2279  _shipmentId > 0 */\n      gt\n        /* \"src/Shipment.sol\":2264:2311  _shipmentId > 0 && _shipmentId <= shipmentCount */\n      dup1\n      iszero\n      tag_46\n      jumpi\n      pop\n        /* \"src/Shipment.sol\":2298:2311  shipmentCount */\n      sload(0x01)\n        /* \"src/Shipment.sol\":2283:2294  _shipmentId */\n      dup4\n        /* \"src/Shipment.sol\":2283:2311  _shipmentId <= shipmentCount */\n      gt\n      iszero\n        /* \"src/Shipment.sol\":2264:2311  _shipmentId > 0 && _shipmentId <= shipmentCount */\n    tag_46:\n        /* \"src/Shipment.sol\":2256:2338  require(_shipmentId > 0 && _shipmentId <= shipmentCount, \"Shipment ID is invalid\") */\n      tag_47\n      jumpi\n      mload(0x40)\n      0x08c379a000000000000000000000000000000000000000000000000000000000\n      dup2\n      mstore\n      0x04\n      add\n      tag_48\n      swap1\n      tag_49\n      jump\t// in\n    tag_48:\n      mload(0x40)\n      dup1\n      swap2\n      sub\n      swap1\n      revert\n    tag_47:\n        /* \"src/Shipment.sol\":2349:2360  uint temp_c */\n      0x00\n        /* \"src/Shipment.sol\":2363:2365  20 */\n      0x14\n        /* \"src/Shipment.sol\":2349:2365  uint temp_c = 20 */\n      swap1\n      pop\n        /* \"src/Shipment.sol\":2442:2444  15 */\n      0x0f\n        /* \"src/Shipment.sol\":2432:2438  temp_c */\n      dup2\n        /* \"src/Shipment.sol\":2432:2444  temp_c >= 15 */\n      lt\n      iszero\n        /* \"src/Shipment.sol\":2432:2460  temp_c >= 15 && temp_c <= 25 */\n      dup1\n      iszero\n      tag_50\n      jumpi\n      pop\n        /* \"src/Shipment.sol\":2458:2460  25 */\n      0x19\n        /* \"src/Shipment.sol\":2448:2454  temp_c */\n      dup2\n        /* \"src/Shipment.sol\":2448:2460  temp_c <= 25 */\n      gt\n      iszero\n        /* \"src/Shipment.sol\":2432:2460  temp_c >= 15 && temp_c <= 25 */\n    tag_50:\n        /* \"src/Shipment.sol\":2424:2506  require(temp_c >= 15 && temp_c <= 25, \"Temperature is not suitable for departure\") */\n      tag_51\n      jumpi\n      mload(0x40)\n      0x08c379a000000000000000000000000000000000000000000000000000000000\n      dup2\n      mstore\n      0x04\n      add\n      tag_52\n      swap1\n      tag_53\n      jump\t// in\n    tag_52:\n      mload(0x40)\n      dup1\n      swap2\n      sub\n      swap1\n      revert\n    tag_51:\n        /* \"src/Shipment.sol\":2517:2549  ShipmentDetails storage shipment */\n      0x00\n        /* \"src/Shipment.sol\":2552:2561  shipments */\n      0x02\n        /* \"src/Shipment.sol\":2552:2574  shipments[_shipmentId] */\n      0x00\n        /* \"src/Shipment.sol\":2562:2573  _shipmentId */\n      dup7\n        /* \"src/Shipment.sol\":2552:2574  shipments[_shipmentId] */\n      dup2\n      mstore\n      0x20\n      add\n      swap1\n      dup2\n      mstore\n      0x20\n      add\n      0x00\n      keccak256\n        /* \"src/Shipment.sol\":2517:2574  ShipmentDetails storage shipment = shipments[_shipmentId] */\n      swap1\n      pop\n        /* \"src/Shipment.sol\":2610:2625  _targetLocation */\n      dup3\n        /* \"src/Shipment.sol\":2584:2592  shipment */\n      dup2\n        /* \"src/Shipment.sol\":2584:2607  shipment.targetLocation */\n      0x03\n      add\n        /* \"src/Shipment.sol\":2584:2625  shipment.targetLocation = _targetLocation */\n      swap1\n      dup2\n      tag_54\n      swap2\n      swap1\n      tag_55\n      jump\t// in\n    tag_54:\n      pop\n        /* \"src/Shipment.sol\":2678:2686  _seconds */\n      dup4\n        /* \"src/Shipment.sol\":2660:2675  block.timestamp */\n      timestamp\n        /* \"src/Shipment.sol\":2660:2686  block.timestamp + _seconds */\n      tag_56\n      swap2\n      swap1\n      tag_57\n      jump\t// in\n    tag_56:\n        /* \"src/Shipment.sol\":2635:2643  shipment */\n      dup2\n        /* \"src/Shipment.sol\":2635:2657  shipment.moveTimestamp */\n      0x04\n      add\n        /* \"src/Shipment.sol\":2635:2686  shipment.moveTimestamp = block.timestamp + _seconds */\n      dup2\n      swap1\n      sstore\n      pop\n        /* \"src/Shipment.sol\":2795:2842  LocationUpdated(_shipmentId, shipment.location) */\n      0x65edc79681b60dda53ce45315418e2d9637c424299784fc6aaf815fa304dda2b\n        /* \"src/Shipment.sol\":2811:2822  _shipmentId */\n      dup6\n        /* \"src/Shipment.sol\":2824:2832  shipment */\n      dup3\n        /* \"src/Shipment.sol\":2824:2841  shipment.location */\n      0x02\n      add\n        /* \"src/Shipment.sol\":2795:2842  LocationUpdated(_shipmentId, shipment.location) */\n      mload(0x40)\n      tag_58\n      swap3\n      swap2\n      swap1\n      tag_59\n      jump\t// in\n    tag_58:\n      mload(0x40)\n      dup1\n      swap2\n      sub\n      swap1\n      log1\n        /* \"src/Shipment.sol\":2146:2849  {... */\n      pop\n      pop\n        /* \"src/Shipment.sol\":2053:2849  function moveShipment(uint _shipmentId, uint _seconds, string memory _targetLocation) public {... */\n      pop\n      pop\n      pop\n      jump\t// out\n        /* \"src/Shipment.sol\":687:736  mapping(uint => ShipmentDetails) public shipments */\n    tag_18:\n      mstore(0x20, 0x02)\n      dup1\n      0x00\n      mstore\n      keccak256(0x00, 0x40)\n      0x00\n      swap2\n      pop\n      swap1\n      pop\n      dup1\n      0x00\n      add\n      sload\n      swap1\n      dup1\n      0x01\n      add\n      dup1\n      sload\n      tag_60\n      swap1\n      tag_61\n      jump\t// in\n    tag_60:\n      dup1\n      0x1f\n      add\n      0x20\n      dup1\n      swap2\n      div\n      mul\n      0x20\n      add\n      mload(0x40)\n      swap1\n      dup2\n      add\n      0x40\n      mstore\n      dup1\n      swap3\n      swap2\n      swap1\n      dup2\n      dup2\n      mstore\n      0x20\n      add\n      dup3\n      dup1\n      sload\n      tag_62\n      swap1\n      tag_61\n      jump\t// in\n    tag_62:\n      dup1\n      iszero\n      tag_63\n      jumpi\n      dup1\n      0x1f\n      lt\n      tag_64\n      jumpi\n      0x0100\n      dup1\n      dup4\n      sload\n      div\n      mul\n      dup4\n      mstore\n      swap2\n      0x20\n      add\n      swap2\n      jump(tag_63)\n    tag_64:\n      dup3\n      add\n      swap2\n      swap1\n      0x00\n      mstore\n      keccak256(0x00, 0x20)\n      swap1\n    tag_65:\n      dup2\n      sload\n      dup2\n      mstore\n      swap1\n      0x01\n      add\n      swap1\n      0x20\n      add\n      dup1\n      dup4\n      gt\n      tag_65\n      jumpi\n      dup3\n      swap1\n      sub\n      0x1f\n      and\n      dup3\n      add\n      swap2\n    tag_63:\n      pop\n      pop\n      pop\n      pop\n      pop\n      swap1\n      dup1\n      0x02\n      add\n      dup1\n      sload\n      tag_66\n      swap1\n      tag_61\n      jump\t// in\n    tag_66:\n      dup1\n      0x1f\n      add\n      0x20\n      dup1\n      swap2\n      div\n      mul\n      0x20\n      add\n      mload(0x40)\n      swap1\n      dup2\n      add\n      0x40\n      mstore\n      dup1\n      swap3\n      swap2\n      swap1\n      dup2\n      dup2\n      mstore\n      0x20\n      add\n      dup3\n      dup1\n      sload\n      tag_67\n      swap1\n      tag_61\n      jump\t// in\n    tag_67:\n      dup1\n      iszero\n      tag_68\n      jumpi\n      dup1\n      0x1f\n      lt\n      tag_69\n      jumpi\n      0x0100\n      dup1\n      dup4\n      sload\n      div\n      mul\n      dup4\n      mstore\n      swap2\n      0x20\n      add\n      swap2\n      jump(tag_68)\n    tag_69:\n      dup3\n      add\n      swap2\n      swap1\n      0x00\n      mstore\n      keccak256(0x00, 0x20)\n      swap1\n    tag_70:\n      dup2\n      sload\n      dup2\n      mstore\n      swap1\n      0x01\n      add\n      swap1\n      0x20\n      add\n      dup1\n      dup4\n      gt\n      tag_70\n      jumpi\n      dup3\n      swap1\n      sub\n      0x1f\n      and\n      dup3\n      add\n      swap2\n    tag_68:\n      pop\n      pop\n      pop\n      pop\n      pop\n      swap1\n      dup1\n      0x03\n      add\n      dup1\n      sload\n      tag_71\n      swap1\n      tag_61\n      jump\t// in\n    tag_71:\n      dup1\n      0x1f\n      add\n      0x20\n      dup1\n      swap2\n      div\n      mul\n      0x20\n      add\n      mload(0x40)\n      swap1\n      dup2\n      add\n      0x40\n      mstore\n      dup1\n      swap3\n      swap2\n      swap1\n      dup2\n      dup2\n      mstore\n      0x20\n      add\n      dup3\n      dup1\n      sload\n      tag_72\n      swap1\n      tag_61\n      jump\t// in\n    tag_72:\n      dup1\n      iszero\n      tag_73\n      jumpi\n      dup1\n      0x1f\n      lt\n      tag_74\n      jumpi\n      0x0100\n      dup1\n      dup4\n      sload\n      div\n      mul\n      dup4\n      mstore\n      swap2\n      0x20\n      add\n      swap2\n      jump(tag_73)\n    tag_74:\n      dup3\n      add\n      swap2\n      swap1\n      0x00\n      mstore\n      keccak256(0x00, 0x20)\n      swap1\n    tag_75:\n      dup2\n      sload\n      dup2\n      mstore\n      swap1\n      0x01\n      add\n      swap1\n      0x20\n      add\n      dup1\n      dup4\n      gt\n      tag_75\n      jumpi\n      dup3\n      swap1\n      sub\n      0x1f\n      and\n      dup3\n      add\n      swap2\n    tag_73:\n      pop\n      pop\n      pop\n      pop\n      pop\n      swap1\n      dup1\n      0x04\n      add\n      sload\n      swap1\n      pop\n      dup6\n      jump\t// out\n        /* \"src/Shipment.sol\":1338:1764  function createShipment(string memory _deliveryName, string memory _location) public returns (uint) {... */\n    tag_24:\n        /* \"src/Shipment.sol\":1432:1436  uint */\n      0x00\n        /* \"src/Shipment.sol\":1470:1477  manager */\n      dup1\n      0x00\n      swap1\n      sload\n      swap1\n      0x0100\n      exp\n      swap1\n      div\n      0xffffffffffffffffffffffffffffffffffffffff\n      and\n        /* \"src/Shipment.sol\":1456:1477  msg.sender == manager */\n      0xffffffffffffffffffffffffffffffffffffffff\n      and\n        /* \"src/Shipment.sol\":1456:1466  msg.sender */\n      caller\n        /* \"src/Shipment.sol\":1456:1477  msg.sender == manager */\n      0xffffffffffffffffffffffffffffffffffffffff\n      and\n      eq\n        /* \"src/Shipment.sol\":1448:1520  require(msg.sender == manager, \"Only the manager can create a shipment\") */\n      tag_77\n      jumpi\n      mload(0x40)\n      0x08c379a000000000000000000000000000000000000000000000000000000000\n      dup2\n      mstore\n      0x04\n      add\n      tag_78\n      swap1\n      tag_79\n      jump\t// in\n    tag_78:\n      mload(0x40)\n      dup1\n      swap2\n      sub\n      swap1\n      revert\n    tag_77:\n        /* \"src/Shipment.sol\":1548:1561  shipmentCount */\n      0x01\n      0x00\n        /* \"src/Shipment.sol\":1548:1563  shipmentCount++ */\n      dup2\n      sload\n      dup1\n      swap3\n      swap2\n      swap1\n      tag_80\n      swap1\n      tag_81\n      jump\t// in\n    tag_80:\n      swap2\n      swap1\n      pop\n      sstore\n      pop\n        /* \"src/Shipment.sol\":1573:1588  uint shipmentId */\n      0x00\n        /* \"src/Shipment.sol\":1591:1604  shipmentCount */\n      sload(0x01)\n        /* \"src/Shipment.sol\":1573:1604  uint shipmentId = shipmentCount */\n      swap1\n      pop\n        /* \"src/Shipment.sol\":1670:1730  ShipmentDetails(shipmentId, _deliveryName, _location, \"\", 0) */\n      mload(0x40)\n      dup1\n      0xa0\n      add\n      0x40\n      mstore\n      dup1\n        /* \"src/Shipment.sol\":1686:1696  shipmentId */\n      dup3\n        /* \"src/Shipment.sol\":1670:1730  ShipmentDetails(shipmentId, _deliveryName, _location, \"\", 0) */\n      dup2\n      mstore\n      0x20\n      add\n        /* \"src/Shipment.sol\":1698:1711  _deliveryName */\n      dup6\n        /* \"src/Shipment.sol\":1670:1730  ShipmentDetails(shipmentId, _deliveryName, _location, \"\", 0) */\n      dup2\n      mstore\n      0x20\n      add\n        /* \"src/Shipment.sol\":1713:1722  _location */\n      dup5\n        /* \"src/Shipment.sol\":1670:1730  ShipmentDetails(shipmentId, _deliveryName, _location, \"\", 0) */\n      dup2\n      mstore\n      0x20\n      add\n      mload(0x40)\n      dup1\n      0x20\n      add\n      0x40\n      mstore\n      dup1\n      0x00\n      dup2\n      mstore\n      pop\n      dup2\n      mstore\n      0x20\n      add\n        /* \"src/Shipment.sol\":1728:1729  0 */\n      0x00\n        /* \"src/Shipment.sol\":1670:1730  ShipmentDetails(shipmentId, _deliveryName, _location, \"\", 0) */\n      dup2\n      mstore\n      pop\n        /* \"src/Shipment.sol\":1646:1655  shipments */\n      0x02\n        /* \"src/Shipment.sol\":1646:1667  shipments[shipmentId] */\n      0x00\n        /* \"src/Shipment.sol\":1656:1666  shipmentId */\n      dup4\n        /* \"src/Shipment.sol\":1646:1667  shipments[shipmentId] */\n      dup2\n      mstore\n      0x20\n      add\n      swap1\n      dup2\n      mstore\n      0x20\n      add\n      0x00\n      keccak256\n        /* \"src/Shipment.sol\":1646:1730  shipments[shipmentId] = ShipmentDetails(shipmentId, _deliveryName, _location, \"\", 0) */\n      0x00\n      dup3\n      add\n      mload\n      dup2\n      0x00\n      add\n      sstore\n      0x20\n      dup3\n      add\n      mload\n      dup2\n      0x01\n      add\n      swap1\n      dup2\n      tag_82\n      swap2\n      swap1\n      tag_55\n      jump\t// in\n    tag_82:\n      pop\n      0x40\n      dup3\n      add\n      mload\n      dup2\n      0x02\n      add\n      swap1\n      dup2\n      tag_83\n      swap2\n      swap1\n      tag_55\n      jump\t// in\n    tag_83:\n      pop\n      0x60\n      dup3\n      add\n      mload\n      dup2\n      0x03\n      add\n      swap1\n      dup2\n      tag_84\n      swap2\n      swap1\n      tag_55\n      jump\t// in\n    tag_84:\n      pop\n      0x80\n      dup3\n      add\n      mload\n      dup2\n      0x04\n      add\n      sstore\n      swap1\n      pop\n      pop\n        /* \"src/Shipment.sol\":1747:1757  shipmentId */\n      dup1\n        /* \"src/Shipment.sol\":1740:1757  return shipmentId */\n      swap2\n      pop\n      pop\n        /* \"src/Shipment.sol\":1338:1764  function createShipment(string memory _deliveryName, string memory _location) public returns (uint) {... */\n      swap3\n      swap2\n      pop\n      pop\n      jump\t// out\n        /* \"src/Shipment.sol\":186:208  address public manager */\n    tag_28:\n      0x00\n      dup1\n      sload\n      swap1\n      0x0100\n      exp\n      swap1\n      div\n      0xffffffffffffffffffffffffffffffffffffffff\n      and\n      dup2\n      jump\t// out\n        /* \"src/Shipment.sol\":3002:3601  function updateShipmentLocation(uint _shipmentId) public {... */\n    tag_33:\n        /* \"src/Shipment.sol\":3091:3092  0 */\n      0x00\n        /* \"src/Shipment.sol\":3077:3088  _shipmentId */\n      dup2\n        /* \"src/Shipment.sol\":3077:3092  _shipmentId > 0 */\n      gt\n        /* \"src/Shipment.sol\":3077:3124  _shipmentId > 0 && _shipmentId <= shipmentCount */\n      dup1\n      iszero\n      tag_86\n      jumpi\n      pop\n        /* \"src/Shipment.sol\":3111:3124  shipmentCount */\n      sload(0x01)\n        /* \"src/Shipment.sol\":3096:3107  _shipmentId */\n      dup2\n        /* \"src/Shipment.sol\":3096:3124  _shipmentId <= shipmentCount */\n      gt\n      iszero\n        /* \"src/Shipment.sol\":3077:3124  _shipmentId > 0 && _shipmentId <= shipmentCount */\n    tag_86:\n        /* \"src/Shipment.sol\":3069:3151  require(_shipmentId > 0 && _shipmentId <= shipmentCount, \"Shipment ID is invalid\") */\n      tag_87\n      jumpi\n      mload(0x40)\n      0x08c379a000000000000000000000000000000000000000000000000000000000\n      dup2\n      mstore\n      0x04\n      add\n      tag_88\n      swap1\n      tag_49\n      jump\t// in\n    tag_88:\n      mload(0x40)\n      dup1\n      swap2\n      sub\n      swap1\n      revert\n    tag_87:\n        /* \"src/Shipment.sol\":3162:3194  ShipmentDetails storage shipment */\n      0x00\n        /* \"src/Shipment.sol\":3197:3206  shipments */\n      0x02\n        /* \"src/Shipment.sol\":3197:3219  shipments[_shipmentId] */\n      0x00\n        /* \"src/Shipment.sol\":3207:3218  _shipmentId */\n      dup4\n        /* \"src/Shipment.sol\":3197:3219  shipments[_shipmentId] */\n      dup2\n      mstore\n      0x20\n      add\n      swap1\n      dup2\n      mstore\n      0x20\n      add\n      0x00\n      keccak256\n        /* \"src/Shipment.sol\":3162:3219  ShipmentDetails storage shipment = shipments[_shipmentId] */\n      swap1\n      pop\n        /* \"src/Shipment.sol\":3253:3261  shipment */\n      dup1\n        /* \"src/Shipment.sol\":3253:3275  shipment.moveTimestamp */\n      0x04\n      add\n      sload\n        /* \"src/Shipment.sol\":3234:3249  block.timestamp */\n      timestamp\n        /* \"src/Shipment.sol\":3234:3275  block.timestamp >= shipment.moveTimestamp */\n      lt\n      iszero\n        /* \"src/Shipment.sol\":3234:3306  block.timestamp >= shipment.moveTimestamp && shipment.moveTimestamp != 0 */\n      dup1\n      iszero\n      tag_89\n      jumpi\n      pop\n        /* \"src/Shipment.sol\":3305:3306  0 */\n      0x00\n        /* \"src/Shipment.sol\":3279:3287  shipment */\n      dup2\n        /* \"src/Shipment.sol\":3279:3301  shipment.moveTimestamp */\n      0x04\n      add\n      sload\n        /* \"src/Shipment.sol\":3279:3306  shipment.moveTimestamp != 0 */\n      eq\n      iszero\n        /* \"src/Shipment.sol\":3234:3306  block.timestamp >= shipment.moveTimestamp && shipment.moveTimestamp != 0 */\n    tag_89:\n        /* \"src/Shipment.sol\":3230:3595  if (block.timestamp >= shipment.moveTimestamp && shipment.moveTimestamp != 0) {... */\n      iszero\n      tag_90\n      jumpi\n        /* \"src/Shipment.sol\":3342:3350  shipment */\n      dup1\n        /* \"src/Shipment.sol\":3342:3365  shipment.targetLocation */\n      0x03\n      add\n        /* \"src/Shipment.sol\":3322:3330  shipment */\n      dup2\n        /* \"src/Shipment.sol\":3322:3339  shipment.location */\n      0x02\n      add\n        /* \"src/Shipment.sol\":3322:3365  shipment.location = shipment.targetLocation */\n      swap1\n      dup2\n      tag_91\n      swap2\n      swap1\n      tag_92\n      jump\t// in\n    tag_91:\n      pop\n        /* \"src/Shipment.sol\":3379:3407  shipment.targetLocation = \"\" */\n      mload(0x40)\n      dup1\n      0x20\n      add\n      0x40\n      mstore\n      dup1\n      0x00\n      dup2\n      mstore\n      pop\n        /* \"src/Shipment.sol\":3379:3387  shipment */\n      dup2\n        /* \"src/Shipment.sol\":3379:3402  shipment.targetLocation */\n      0x03\n      add\n        /* \"src/Shipment.sol\":3379:3407  shipment.targetLocation = \"\" */\n      swap1\n      dup2\n      tag_93\n      swap2\n      swap1\n      tag_55\n      jump\t// in\n    tag_93:\n      pop\n        /* \"src/Shipment.sol\":3484:3485  0 */\n      0x00\n        /* \"src/Shipment.sol\":3459:3467  shipment */\n      dup2\n        /* \"src/Shipment.sol\":3459:3481  shipment.moveTimestamp */\n      0x04\n      add\n        /* \"src/Shipment.sol\":3459:3485  shipment.moveTimestamp = 0 */\n      dup2\n      swap1\n      sstore\n      pop\n        /* \"src/Shipment.sol\":3523:3570  LocationUpdated(_shipmentId, shipment.location) */\n      0x65edc79681b60dda53ce45315418e2d9637c424299784fc6aaf815fa304dda2b\n        /* \"src/Shipment.sol\":3539:3550  _shipmentId */\n      dup3\n        /* \"src/Shipment.sol\":3552:3560  shipment */\n      dup3\n        /* \"src/Shipment.sol\":3552:3569  shipment.location */\n      0x02\n      add\n        /* \"src/Shipment.sol\":3523:3570  LocationUpdated(_shipmentId, shipment.location) */\n      mload(0x40)\n      tag_94\n      swap3\n      swap2\n      swap1\n      tag_59\n      jump\t// in\n    tag_94:\n      mload(0x40)\n      dup1\n      swap2\n      sub\n      swap1\n      log1\n        /* \"src/Shipment.sol\":3230:3595  if (block.timestamp >= shipment.moveTimestamp && shipment.moveTimestamp != 0) {... */\n    tag_90:\n        /* \"src/Shipment.sol\":3059:3601  {... */\n      pop\n        /* \"src/Shipment.sol\":3002:3601  function updateShipmentLocation(uint _shipmentId) public {... */\n      pop\n      jump\t// out\n        /* \"src/Shipment.sol\":3979:4416  function getShipmentDetails(uint _shipmentId) public view returns (string memory deliveryName, string memory location, string memory targetLocation, uint moveTimestamp) {... */\n    tag_36:\n        /* \"src/Shipment.sol\":4046:4072  string memory deliveryName */\n      0x60\n        /* \"src/Shipment.sol\":4074:4096  string memory location */\n      dup1\n        /* \"src/Shipment.sol\":4098:4126  string memory targetLocation */\n      0x60\n        /* \"src/Shipment.sol\":4128:4146  uint moveTimestamp */\n      0x00\n        /* \"src/Shipment.sol\":4180:4181  0 */\n      dup1\n        /* \"src/Shipment.sol\":4166:4177  _shipmentId */\n      dup6\n        /* \"src/Shipment.sol\":4166:4181  _shipmentId > 0 */\n      gt\n        /* \"src/Shipment.sol\":4166:4213  _shipmentId > 0 && _shipmentId <= shipmentCount */\n      dup1\n      iszero\n      tag_96\n      jumpi\n      pop\n        /* \"src/Shipment.sol\":4200:4213  shipmentCount */\n      sload(0x01)\n        /* \"src/Shipment.sol\":4185:4196  _shipmentId */\n      dup6\n        /* \"src/Shipment.sol\":4185:4213  _shipmentId <= shipmentCount */\n      gt\n      iszero\n        /* \"src/Shipment.sol\":4166:4213  _shipmentId > 0 && _shipmentId <= shipmentCount */\n    tag_96:\n        /* \"src/Shipment.sol\":4158:4240  require(_shipmentId > 0 && _shipmentId <= shipmentCount, \"Shipment ID is invalid\") */\n      tag_97\n      jumpi\n      mload(0x40)\n      0x08c379a000000000000000000000000000000000000000000000000000000000\n      dup2\n      mstore\n      0x04\n      add\n      tag_98\n      swap1\n      tag_49\n      jump\t// in\n    tag_98:\n      mload(0x40)\n      dup1\n      swap2\n      sub\n      swap1\n      revert\n    tag_97:\n        /* \"src/Shipment.sol\":4250:4280  ShipmentDetails memory details */\n      0x00\n        /* \"src/Shipment.sol\":4283:4292  shipments */\n      0x02\n        /* \"src/Shipment.sol\":4283:4305  shipments[_shipmentId] */\n      0x00\n        /* \"src/Shipment.sol\":4293:4304  _shipmentId */\n      dup8\n        /* \"src/Shipment.sol\":4283:4305  shipments[_shipmentId] */\n      dup2\n      mstore\n      0x20\n      add\n      swap1\n      dup2\n      mstore\n      0x20\n      add\n      0x00\n      keccak256\n        /* \"src/Shipment.sol\":4250:4305  ShipmentDetails memory details = shipments[_shipmentId] */\n      mload(0x40)\n      dup1\n      0xa0\n      add\n      0x40\n      mstore\n      swap1\n      dup2\n      0x00\n      dup3\n      add\n      sload\n      dup2\n      mstore\n      0x20\n      add\n      0x01\n      dup3\n      add\n      dup1\n      sload\n      tag_99\n      swap1\n      tag_61\n      jump\t// in\n    tag_99:\n      dup1\n      0x1f\n      add\n      0x20\n      dup1\n      swap2\n      div\n      mul\n      0x20\n      add\n      mload(0x40)\n      swap1\n      dup2\n      add\n      0x40\n      mstore\n      dup1\n      swap3\n      swap2\n      swap1\n      dup2\n      dup2\n      mstore\n      0x20\n      add\n      dup3\n      dup1\n      sload\n      tag_100\n      swap1\n      tag_61\n      jump\t// in\n    tag_100:\n      dup1\n      iszero\n      tag_101\n      jumpi\n      dup1\n      0x1f\n      lt\n      tag_102\n      jumpi\n      0x0100\n      dup1\n      dup4\n      sload\n      div\n      mul\n      dup4\n      mstore\n      swap2\n      0x20\n      add\n      swap2\n      jump(tag_101)\n    tag_102:\n      dup3\n      add\n      swap2\n      swap1\n      0x00\n      mstore\n      keccak256(0x00, 0x20)\n      swap1\n    tag_103:\n      dup2\n      sload\n      dup2\n      mstore\n      swap1\n      0x01\n      add\n      swap1\n      0x20\n      add\n      dup1\n      dup4\n      gt\n      tag_103\n      jumpi\n      dup3\n      swap1\n      sub\n      0x1f\n      and\n      dup3\n      add\n      swap2\n    tag_101:\n      pop\n      pop\n      pop\n      pop\n      pop\n      dup2\n      mstore\n      0x20\n      add\n      0x02\n      dup3\n      add\n      dup1\n      sload\n      tag_104\n      swap1\n      tag_61\n      jump\t// in\n    tag_104:\n      dup1\n      0x1f\n      add\n      0x20\n      dup1\n      swap2\n      div\n      mul\n      0x20\n      add\n      mload(0x40)\n      swap1\n      dup2\n      add\n      0x40\n      mstore\n      dup1\n      swap3\n      swap2\n      swap1\n      dup2\n      dup2\n      mstore\n      0x20\n      add\n      dup3\n      dup1\n      sload\n      tag_105\n      swap1\n      tag_61\n      jump\t// in\n    tag_105:\n      dup1\n      iszero\n      tag_106\n      jumpi\n      dup1\n      0x1f\n      lt\n      tag_107\n      jumpi\n      0x0100\n      dup1\n      dup4\n      sload\n      div\n      mul\n      dup4\n      mstore\n      swap2\n      0x20\n      add\n      swap2\n      jump(tag_106)\n    tag_107:\n      dup3\n      add\n      swap2\n      swap1\n      0x00\n      mstore\n      keccak256(0x00, 0x20)\n      swap1\n    tag_108:\n      dup2\n      sload\n      dup2\n      mstore\n      swap1\n      0x01\n      add\n      swap1\n      0x20\n      add\n      dup1\n      dup4\n      gt\n      tag_108\n      jumpi\n      dup3\n      swap1\n      sub\n      0x1f\n      and\n      dup3\n      add\n      swap2\n    tag_106:\n      pop\n      pop\n      pop\n      pop\n      pop\n      dup2\n      mstore\n      0x20\n      add\n      0x03\n      dup3\n      add\n      dup1\n      sload\n      tag_109\n      swap1\n      tag_61\n      jump\t// in\n    tag_109:\n      dup1\n      0x1f\n      add\n      0x20\n      dup1\n      swap2\n      div\n      mul\n      0x20\n      add\n      mload(0x40)\n      swap1\n      dup2\n      add\n      0x40\n      mstore\n      dup1\n      swap3\n      swap2\n      swap1\n      dup2\n      dup2\n      mstore\n      0x20\n      add\n      dup3\n      dup1\n      sload\n      tag_110\n      swap1\n      tag_61\n      jump\t// in\n    tag_110:\n      dup1\n      iszero\n      tag_111\n      jumpi\n      dup1\n      0x1f\n      lt\n      tag_112\n      jumpi\n      0x0100\n      dup1\n      dup4\n      sload\n      div\n      mul\n      dup4\n      mstore\n      swap2\n      0x20\n      add\n      swap2\n      jump(tag_111)\n    tag_112:\n      dup3\n      add\n      swap2\n      swap1\n      0x00\n      mstore\n      keccak256(0x00, 0x20)\n      swap1\n    tag_113:\n      dup2\n      sload\n      dup2\n      mstore\n      swap1\n      0x01\n      add\n      swap1\n      0x20\n      add\n      dup1\n      dup4\n      gt\n      tag_113\n      jumpi\n      dup3\n      swap1\n      sub\n      0x1f\n      and\n      dup3\n      add\n      swap2\n    tag_111:\n      pop\n      pop\n      pop\n      pop\n      pop\n      dup2\n      mstore\n      0x20\n      add\n      0x04\n      dup3\n      add\n      sload\n      dup2\n      mstore\n      pop\n      pop\n      swap1\n      pop\n        /* \"src/Shipment.sol\":4323:4330  details */\n      dup1\n        /* \"src/Shipment.sol\":4323:4343  details.deliveryName */\n      0x20\n      add\n      mload\n        /* \"src/Shipment.sol\":4345:4352  details */\n      dup2\n        /* \"src/Shipment.sol\":4345:4361  details.location */\n      0x40\n      add\n      mload\n        /* \"src/Shipment.sol\":4363:4370  details */\n      dup3\n        /* \"src/Shipment.sol\":4363:4385  details.targetLocation */\n      0x60\n      add\n      mload\n        /* \"src/Shipment.sol\":4387:4394  details */\n      dup4\n        /* \"src/Shipment.sol\":4387:4408  details.moveTimestamp */\n      0x80\n      add\n      mload\n        /* \"src/Shipment.sol\":4315:4409  return (details.deliveryName, details.location, details.targetLocation, details.moveTimestamp) */\n      swap5\n      pop\n      swap5\n      pop\n      swap5\n      pop\n      swap5\n      pop\n      pop\n        /* \"src/Shipment.sol\":3979:4416  function getShipmentDetails(uint _shipmentId) public view returns (string memory deliveryName, string memory location, string memory targetLocation, uint moveTimestamp) {... */\n      swap2\n      swap4\n      pop\n      swap2\n      swap4\n      jump\t// out\n        /* \"src/Shipment.sol\":615:640  uint public shipmentCount */\n    tag_40:\n      sload(0x01)\n      dup2\n      jump\t// out\n        /* \"#utility.yul\":7:82   */\n    tag_114:\n        /* \"#utility.yul\":40:46   */\n      0x00\n        /* \"#utility.yul\":73:75   */\n      0x40\n        /* \"#utility.yul\":67:76   */\n      mload\n        /* \"#utility.yul\":57:76   */\n      swap1\n      pop\n        /* \"#utility.yul\":7:82   */\n      swap1\n      jump\t// out\n        /* \"#utility.yul\":88:205   */\n    tag_115:\n        /* \"#utility.yul\":197:198   */\n      0x00\n        /* \"#utility.yul\":194:195   */\n      dup1\n        /* \"#utility.yul\":187:199   */\n      revert\n        /* \"#utility.yul\":211:328   */\n    tag_116:\n        /* \"#utility.yul\":320:321   */\n      0x00\n        /* \"#utility.yul\":317:318   */\n      dup1\n        /* \"#utility.yul\":310:322   */\n      revert\n        /* \"#utility.yul\":334:411   */\n    tag_117:\n        /* \"#utility.yul\":371:378   */\n      0x00\n        /* \"#utility.yul\":400:405   */\n      dup2\n        /* \"#utility.yul\":389:405   */\n      swap1\n      pop\n        /* \"#utility.yul\":334:411   */\n      swap2\n      swap1\n      pop\n      jump\t// out\n        /* \"#utility.yul\":417:539   */\n    tag_118:\n        /* \"#utility.yul\":490:514   */\n      tag_172\n        /* \"#utility.yul\":508:513   */\n      dup2\n        /* \"#utility.yul\":490:514   */\n      tag_117\n      jump\t// in\n    tag_172:\n        /* \"#utility.yul\":483:488   */\n      dup2\n        /* \"#utility.yul\":480:515   */\n      eq\n        /* \"#utility.yul\":470:533   */\n      tag_173\n      jumpi\n        /* \"#utility.yul\":529:530   */\n      0x00\n        /* \"#utility.yul\":526:527   */\n      dup1\n        /* \"#utility.yul\":519:531   */\n      revert\n        /* \"#utility.yul\":470:533   */\n    tag_173:\n        /* \"#utility.yul\":417:539   */\n      pop\n      jump\t// out\n        /* \"#utility.yul\":545:684   */\n    tag_119:\n        /* \"#utility.yul\":591:596   */\n      0x00\n        /* \"#utility.yul\":629:635   */\n      dup2\n        /* \"#utility.yul\":616:636   */\n      calldataload\n        /* \"#utility.yul\":607:636   */\n      swap1\n      pop\n        /* \"#utility.yul\":645:678   */\n      tag_175\n        /* \"#utility.yul\":672:677   */\n      dup2\n        /* \"#utility.yul\":645:678   */\n      tag_118\n      jump\t// in\n    tag_175:\n        /* \"#utility.yul\":545:684   */\n      swap3\n      swap2\n      pop\n      pop\n      jump\t// out\n        /* \"#utility.yul\":690:807   */\n    tag_120:\n        /* \"#utility.yul\":799:800   */\n      0x00\n        /* \"#utility.yul\":796:797   */\n      dup1\n        /* \"#utility.yul\":789:801   */\n      revert\n        /* \"#utility.yul\":813:930   */\n    tag_121:\n        /* \"#utility.yul\":922:923   */\n      0x00\n        /* \"#utility.yul\":919:920   */\n      dup1\n        /* \"#utility.yul\":912:924   */\n      revert\n        /* \"#utility.yul\":936:1038   */\n    tag_122:\n        /* \"#utility.yul\":977:983   */\n      0x00\n        /* \"#utility.yul\":1028:1030   */\n      0x1f\n        /* \"#utility.yul\":1024:1031   */\n      not\n        /* \"#utility.yul\":1019:1021   */\n      0x1f\n        /* \"#utility.yul\":1012:1017   */\n      dup4\n        /* \"#utility.yul\":1008:1022   */\n      add\n        /* \"#utility.yul\":1004:1032   */\n      and\n        /* \"#utility.yul\":994:1032   */\n      swap1\n      pop\n        /* \"#utility.yul\":936:1038   */\n      swap2\n      swap1\n      pop\n      jump\t// out\n        /* \"#utility.yul\":1044:1224   */\n    tag_123:\n        /* \"#utility.yul\":1092:1169   */\n      0x4e487b7100000000000000000000000000000000000000000000000000000000\n        /* \"#utility.yul\":1089:1090   */\n      0x00\n        /* \"#utility.yul\":1082:1170   */\n      mstore\n        /* \"#utility.yul\":1189:1193   */\n      0x41\n        /* \"#utility.yul\":1186:1187   */\n      0x04\n        /* \"#utility.yul\":1179:1194   */\n      mstore\n        /* \"#utility.yul\":1213:1217   */\n      0x24\n        /* \"#utility.yul\":1210:1211   */\n      0x00\n        /* \"#utility.yul\":1203:1218   */\n      revert\n        /* \"#utility.yul\":1230:1511   */\n    tag_124:\n        /* \"#utility.yul\":1313:1340   */\n      tag_181\n        /* \"#utility.yul\":1335:1339   */\n      dup3\n        /* \"#utility.yul\":1313:1340   */\n      tag_122\n      jump\t// in\n    tag_181:\n        /* \"#utility.yul\":1305:1311   */\n      dup2\n        /* \"#utility.yul\":1301:1341   */\n      add\n        /* \"#utility.yul\":1443:1449   */\n      dup2\n        /* \"#utility.yul\":1431:1441   */\n      dup2\n        /* \"#utility.yul\":1428:1450   */\n      lt\n        /* \"#utility.yul\":1407:1425   */\n      0xffffffffffffffff\n        /* \"#utility.yul\":1395:1405   */\n      dup3\n        /* \"#utility.yul\":1392:1426   */\n      gt\n        /* \"#utility.yul\":1389:1451   */\n      or\n        /* \"#utility.yul\":1386:1474   */\n      iszero\n      tag_182\n      jumpi\n        /* \"#utility.yul\":1454:1472   */\n      tag_183\n      tag_123\n      jump\t// in\n    tag_183:\n        /* \"#utility.yul\":1386:1474   */\n    tag_182:\n        /* \"#utility.yul\":1494:1504   */\n      dup1\n        /* \"#utility.yul\":1490:1492   */\n      0x40\n        /* \"#utility.yul\":1483:1505   */\n      mstore\n        /* \"#utility.yul\":1273:1511   */\n      pop\n        /* \"#utility.yul\":1230:1511   */\n      pop\n      pop\n      jump\t// out\n        /* \"#utility.yul\":1517:1646   */\n    tag_125:\n        /* \"#utility.yul\":1551:1557   */\n      0x00\n        /* \"#utility.yul\":1578:1598   */\n      tag_185\n      tag_114\n      jump\t// in\n    tag_185:\n        /* \"#utility.yul\":1568:1598   */\n      swap1\n      pop\n        /* \"#utility.yul\":1607:1640   */\n      tag_186\n        /* \"#utility.yul\":1635:1639   */\n      dup3\n        /* \"#utility.yul\":1627:1633   */\n      dup3\n        /* \"#utility.yul\":1607:1640   */\n      tag_124\n      jump\t// in\n    tag_186:\n        /* \"#utility.yul\":1517:1646   */\n      swap2\n      swap1\n      pop\n      jump\t// out\n        /* \"#utility.yul\":1652:1960   */\n    tag_126:\n        /* \"#utility.yul\":1714:1718   */\n      0x00\n        /* \"#utility.yul\":1804:1822   */\n      0xffffffffffffffff\n        /* \"#utility.yul\":1796:1802   */\n      dup3\n        /* \"#utility.yul\":1793:1823   */\n      gt\n        /* \"#utility.yul\":1790:1846   */\n      iszero\n      tag_188\n      jumpi\n        /* \"#utility.yul\":1826:1844   */\n      tag_189\n      tag_123\n      jump\t// in\n    tag_189:\n        /* \"#utility.yul\":1790:1846   */\n    tag_188:\n        /* \"#utility.yul\":1864:1893   */\n      tag_190\n        /* \"#utility.yul\":1886:1892   */\n      dup3\n        /* \"#utility.yul\":1864:1893   */\n      tag_122\n      jump\t// in\n    tag_190:\n        /* \"#utility.yul\":1856:1893   */\n      swap1\n      pop\n        /* \"#utility.yul\":1948:1952   */\n      0x20\n        /* \"#utility.yul\":1942:1946   */\n      dup2\n        /* \"#utility.yul\":1938:1953   */\n      add\n        /* \"#utility.yul\":1930:1953   */\n      swap1\n      pop\n        /* \"#utility.yul\":1652:1960   */\n      swap2\n      swap1\n      pop\n      jump\t// out\n        /* \"#utility.yul\":1966:2114   */\n    tag_127:\n        /* \"#utility.yul\":2064:2070   */\n      dup3\n        /* \"#utility.yul\":2059:2062   */\n      dup2\n        /* \"#utility.yul\":2054:2057   */\n      dup4\n        /* \"#utility.yul\":2041:2071   */\n      calldatacopy\n        /* \"#utility.yul\":2105:2106   */\n      0x00\n        /* \"#utility.yul\":2096:2102   */\n      dup4\n        /* \"#utility.yul\":2091:2094   */\n      dup4\n        /* \"#utility.yul\":2087:2103   */\n      add\n        /* \"#utility.yul\":2080:2107   */\n      mstore\n        /* \"#utility.yul\":1966:2114   */\n      pop\n      pop\n      pop\n      jump\t// out\n        /* \"#utility.yul\":2120:2545   */\n    tag_128:\n        /* \"#utility.yul\":2198:2203   */\n      0x00\n        /* \"#utility.yul\":2223:2289   */\n      tag_193\n        /* \"#utility.yul\":2239:2288   */\n      tag_194\n        /* \"#utility.yul\":2281:2287   */\n      dup5\n        /* \"#utility.yul\":2239:2288   */\n      tag_126\n      jump\t// in\n    tag_194:\n        /* \"#utility.yul\":2223:2289   */\n      tag_125\n      jump\t// in\n    tag_193:\n        /* \"#utility.yul\":2214:2289   */\n      swap1\n      pop\n        /* \"#utility.yul\":2312:2318   */\n      dup3\n        /* \"#utility.yul\":2305:2310   */\n      dup2\n        /* \"#utility.yul\":2298:2319   */\n      mstore\n        /* \"#utility.yul\":2350:2354   */\n      0x20\n        /* \"#utility.yul\":2343:2348   */\n      dup2\n        /* \"#utility.yul\":2339:2355   */\n      add\n        /* \"#utility.yul\":2388:2391   */\n      dup5\n        /* \"#utility.yul\":2379:2385   */\n      dup5\n        /* \"#utility.yul\":2374:2377   */\n      dup5\n        /* \"#utility.yul\":2370:2386   */\n      add\n        /* \"#utility.yul\":2367:2392   */\n      gt\n        /* \"#utility.yul\":2364:2476   */\n      iszero\n      tag_195\n      jumpi\n        /* \"#utility.yul\":2395:2474   */\n      tag_196\n      tag_121\n      jump\t// in\n    tag_196:\n        /* \"#utility.yul\":2364:2476   */\n    tag_195:\n        /* \"#utility.yul\":2485:2539   */\n      tag_197\n        /* \"#utility.yul\":2532:2538   */\n      dup5\n        /* \"#utility.yul\":2527:2530   */\n      dup3\n        /* \"#utility.yul\":2522:2525   */\n      dup6\n        /* \"#utility.yul\":2485:2539   */\n      tag_127\n      jump\t// in\n    tag_197:\n        /* \"#utility.yul\":2204:2545   */\n      pop\n        /* \"#utility.yul\":2120:2545   */\n      swap4\n      swap3\n      pop\n      pop\n      pop\n      jump\t// out\n        /* \"#utility.yul\":2565:2905   */\n    tag_129:\n        /* \"#utility.yul\":2621:2626   */\n      0x00\n        /* \"#utility.yul\":2670:2673   */\n      dup3\n        /* \"#utility.yul\":2663:2667   */\n      0x1f\n        /* \"#utility.yul\":2655:2661   */\n      dup4\n        /* \"#utility.yul\":2651:2668   */\n      add\n        /* \"#utility.yul\":2647:2674   */\n      slt\n        /* \"#utility.yul\":2637:2759   */\n      tag_199\n      jumpi\n        /* \"#utility.yul\":2678:2757   */\n      tag_200\n      tag_120\n      jump\t// in\n    tag_200:\n        /* \"#utility.yul\":2637:2759   */\n    tag_199:\n        /* \"#utility.yul\":2795:2801   */\n      dup2\n        /* \"#utility.yul\":2782:2802   */\n      calldataload\n        /* \"#utility.yul\":2820:2899   */\n      tag_201\n        /* \"#utility.yul\":2895:2898   */\n      dup5\n        /* \"#utility.yul\":2887:2893   */\n      dup3\n        /* \"#utility.yul\":2880:2884   */\n      0x20\n        /* \"#utility.yul\":2872:2878   */\n      dup7\n        /* \"#utility.yul\":2868:2885   */\n      add\n        /* \"#utility.yul\":2820:2899   */\n      tag_128\n      jump\t// in\n    tag_201:\n        /* \"#utility.yul\":2811:2899   */\n      swap2\n      pop\n        /* \"#utility.yul\":2627:2905   */\n      pop\n        /* \"#utility.yul\":2565:2905   */\n      swap3\n      swap2\n      pop\n      pop\n      jump\t// out\n        /* \"#utility.yul\":2911:3710   */\n    tag_13:\n        /* \"#utility.yul\":2998:3004   */\n      0x00\n        /* \"#utility.yul\":3006:3012   */\n      dup1\n        /* \"#utility.yul\":3014:3020   */\n      0x00\n        /* \"#utility.yul\":3063:3065   */\n      0x60\n        /* \"#utility.yul\":3051:3060   */\n      dup5\n        /* \"#utility.yul\":3042:3049   */\n      dup7\n        /* \"#utility.yul\":3038:3061   */\n      sub\n        /* \"#utility.yul\":3034:3066   */\n      slt\n        /* \"#utility.yul\":3031:3150   */\n      iszero\n      tag_203\n      jumpi\n        /* \"#utility.yul\":3069:3148   */\n      tag_204\n      tag_115\n      jump\t// in\n    tag_204:\n        /* \"#utility.yul\":3031:3150   */\n    tag_203:\n        /* \"#utility.yul\":3189:3190   */\n      0x00\n        /* \"#utility.yul\":3214:3267   */\n      tag_205\n        /* \"#utility.yul\":3259:3266   */\n      dup7\n        /* \"#utility.yul\":3250:3256   */\n      dup3\n        /* \"#utility.yul\":3239:3248   */\n      dup8\n        /* \"#utility.yul\":3235:3257   */\n      add\n        /* \"#utility.yul\":3214:3267   */\n      tag_119\n      jump\t// in\n    tag_205:\n        /* \"#utility.yul\":3204:3267   */\n      swap4\n      pop\n        /* \"#utility.yul\":3160:3277   */\n      pop\n        /* \"#utility.yul\":3316:3318   */\n      0x20\n        /* \"#utility.yul\":3342:3395   */\n      tag_206\n        /* \"#utility.yul\":3387:3394   */\n      dup7\n        /* \"#utility.yul\":3378:3384   */\n      dup3\n        /* \"#utility.yul\":3367:3376   */\n      dup8\n        /* \"#utility.yul\":3363:3385   */\n      add\n        /* \"#utility.yul\":3342:3395   */\n      tag_119\n      jump\t// in\n    tag_206:\n        /* \"#utility.yul\":3332:3395   */\n      swap3\n      pop\n        /* \"#utility.yul\":3287:3405   */\n      pop\n        /* \"#utility.yul\":3472:3474   */\n      0x40\n        /* \"#utility.yul\":3461:3470   */\n      dup5\n        /* \"#utility.yul\":3457:3475   */\n      add\n        /* \"#utility.yul\":3444:3476   */\n      calldataload\n        /* \"#utility.yul\":3503:3521   */\n      0xffffffffffffffff\n        /* \"#utility.yul\":3495:3501   */\n      dup2\n        /* \"#utility.yul\":3492:3522   */\n      gt\n        /* \"#utility.yul\":3489:3606   */\n      iszero\n      tag_207\n      jumpi\n        /* \"#utility.yul\":3525:3604   */\n      tag_208\n      tag_116\n      jump\t// in\n    tag_208:\n        /* \"#utility.yul\":3489:3606   */\n    tag_207:\n        /* \"#utility.yul\":3630:3693   */\n      tag_209\n        /* \"#utility.yul\":3685:3692   */\n      dup7\n        /* \"#utility.yul\":3676:3682   */\n      dup3\n        /* \"#utility.yul\":3665:3674   */\n      dup8\n        /* \"#utility.yul\":3661:3683   */\n      add\n        /* \"#utility.yul\":3630:3693   */\n      tag_129\n      jump\t// in\n    tag_209:\n        /* \"#utility.yul\":3620:3693   */\n      swap2\n      pop\n        /* \"#utility.yul\":3415:3703   */\n      pop\n        /* \"#utility.yul\":2911:3710   */\n      swap3\n      pop\n      swap3\n      pop\n      swap3\n      jump\t// out\n        /* \"#utility.yul\":3716:4045   */\n    tag_17:\n        /* \"#utility.yul\":3775:3781   */\n      0x00\n        /* \"#utility.yul\":3824:3826   */\n      0x20\n        /* \"#utility.yul\":3812:3821   */\n      dup3\n        /* \"#utility.yul\":3803:3810   */\n      dup5\n        /* \"#utility.yul\":3799:3822   */\n      sub\n        /* \"#utility.yul\":3795:3827   */\n      slt\n        /* \"#utility.yul\":3792:3911   */\n      iszero\n      tag_211\n      jumpi\n        /* \"#utility.yul\":3830:3909   */\n      tag_212\n      tag_115\n      jump\t// in\n    tag_212:\n        /* \"#utility.yul\":3792:3911   */\n    tag_211:\n        /* \"#utility.yul\":3950:3951   */\n      0x00\n        /* \"#utility.yul\":3975:4028   */\n      tag_213\n        /* \"#utility.yul\":4020:4027   */\n      dup5\n        /* \"#utility.yul\":4011:4017   */\n      dup3\n        /* \"#utility.yul\":4000:4009   */\n      dup6\n        /* \"#utility.yul\":3996:4018   */\n      add\n        /* \"#utility.yul\":3975:4028   */\n      tag_119\n      jump\t// in\n    tag_213:\n        /* \"#utility.yul\":3965:4028   */\n      swap2\n      pop\n        /* \"#utility.yul\":3921:4038   */\n      pop\n        /* \"#utility.yul\":3716:4045   */\n      swap3\n      swap2\n      pop\n      pop\n      jump\t// out\n        /* \"#utility.yul\":4051:4169   */\n    tag_130:\n        /* \"#utility.yul\":4138:4162   */\n      tag_215\n        /* \"#utility.yul\":4156:4161   */\n      dup2\n        /* \"#utility.yul\":4138:4162   */\n      tag_117\n      jump\t// in\n    tag_215:\n        /* \"#utility.yul\":4133:4136   */\n      dup3\n        /* \"#utility.yul\":4126:4163   */\n      mstore\n        /* \"#utility.yul\":4051:4169   */\n      pop\n      pop\n      jump\t// out\n        /* \"#utility.yul\":4175:4274   */\n    tag_131:\n        /* \"#utility.yul\":4227:4233   */\n      0x00\n        /* \"#utility.yul\":4261:4266   */\n      dup2\n        /* \"#utility.yul\":4255:4267   */\n      mload\n        /* \"#utility.yul\":4245:4267   */\n      swap1\n      pop\n        /* \"#utility.yul\":4175:4274   */\n      swap2\n      swap1\n      pop\n      jump\t// out\n        /* \"#utility.yul\":4280:4449   */\n    tag_132:\n        /* \"#utility.yul\":4364:4375   */\n      0x00\n        /* \"#utility.yul\":4398:4404   */\n      dup3\n        /* \"#utility.yul\":4393:4396   */\n      dup3\n        /* \"#utility.yul\":4386:4405   */\n      mstore\n        /* \"#utility.yul\":4438:4442   */\n      0x20\n        /* \"#utility.yul\":4433:4436   */\n      dup3\n        /* \"#utility.yul\":4429:4443   */\n      add\n        /* \"#utility.yul\":4414:4443   */\n      swap1\n      pop\n        /* \"#utility.yul\":4280:4449   */\n      swap3\n      swap2\n      pop\n      pop\n      jump\t// out\n        /* \"#utility.yul\":4455:4594   */\n    tag_133:\n        /* \"#utility.yul\":4544:4550   */\n      dup3\n        /* \"#utility.yul\":4539:4542   */\n      dup2\n        /* \"#utility.yul\":4534:4537   */\n      dup4\n        /* \"#utility.yul\":4528:4551   */\n      mcopy\n        /* \"#utility.yul\":4585:4586   */\n      0x00\n        /* \"#utility.yul\":4576:4582   */\n      dup4\n        /* \"#utility.yul\":4571:4574   */\n      dup4\n        /* \"#utility.yul\":4567:4583   */\n      add\n        /* \"#utility.yul\":4560:4587   */\n      mstore\n        /* \"#utility.yul\":4455:4594   */\n      pop\n      pop\n      pop\n      jump\t// out\n        /* \"#utility.yul\":4600:4977   */\n    tag_134:\n        /* \"#utility.yul\":4688:4691   */\n      0x00\n        /* \"#utility.yul\":4716:4755   */\n      tag_220\n        /* \"#utility.yul\":4749:4754   */\n      dup3\n        /* \"#utility.yul\":4716:4755   */\n      tag_131\n      jump\t// in\n    tag_220:\n        /* \"#utility.yul\":4771:4842   */\n      tag_221\n        /* \"#utility.yul\":4835:4841   */\n      dup2\n        /* \"#utility.yul\":4830:4833   */\n      dup6\n        /* \"#utility.yul\":4771:4842   */\n      tag_132\n      jump\t// in\n    tag_221:\n        /* \"#utility.yul\":4764:4842   */\n      swap4\n      pop\n        /* \"#utility.yul\":4851:4916   */\n      tag_222\n        /* \"#utility.yul\":4909:4915   */\n      dup2\n        /* \"#utility.yul\":4904:4907   */\n      dup6\n        /* \"#utility.yul\":4897:4901   */\n      0x20\n        /* \"#utility.yul\":4890:4895   */\n      dup7\n        /* \"#utility.yul\":4886:4902   */\n      add\n        /* \"#utility.yul\":4851:4916   */\n      tag_133\n      jump\t// in\n    tag_222:\n        /* \"#utility.yul\":4941:4970   */\n      tag_223\n        /* \"#utility.yul\":4963:4969   */\n      dup2\n        /* \"#utility.yul\":4941:4970   */\n      tag_122\n      jump\t// in\n    tag_223:\n        /* \"#utility.yul\":4936:4939   */\n      dup5\n        /* \"#utility.yul\":4932:4971   */\n      add\n        /* \"#utility.yul\":4925:4971   */\n      swap2\n      pop\n        /* \"#utility.yul\":4692:4977   */\n      pop\n        /* \"#utility.yul\":4600:4977   */\n      swap3\n      swap2\n      pop\n      pop\n      jump\t// out\n        /* \"#utility.yul\":4983:5920   */\n    tag_20:\n        /* \"#utility.yul\":5248:5252   */\n      0x00\n        /* \"#utility.yul\":5286:5289   */\n      0xa0\n        /* \"#utility.yul\":5275:5284   */\n      dup3\n        /* \"#utility.yul\":5271:5290   */\n      add\n        /* \"#utility.yul\":5263:5290   */\n      swap1\n      pop\n        /* \"#utility.yul\":5300:5371   */\n      tag_225\n        /* \"#utility.yul\":5368:5369   */\n      0x00\n        /* \"#utility.yul\":5357:5366   */\n      dup4\n        /* \"#utility.yul\":5353:5370   */\n      add\n        /* \"#utility.yul\":5344:5350   */\n      dup9\n        /* \"#utility.yul\":5300:5371   */\n      tag_130\n      jump\t// in\n    tag_225:\n        /* \"#utility.yul\":5418:5427   */\n      dup2\n        /* \"#utility.yul\":5412:5416   */\n      dup2\n        /* \"#utility.yul\":5408:5428   */\n      sub\n        /* \"#utility.yul\":5403:5405   */\n      0x20\n        /* \"#utility.yul\":5392:5401   */\n      dup4\n        /* \"#utility.yul\":5388:5406   */\n      add\n        /* \"#utility.yul\":5381:5429   */\n      mstore\n        /* \"#utility.yul\":5446:5524   */\n      tag_226\n        /* \"#utility.yul\":5519:5523   */\n      dup2\n        /* \"#utility.yul\":5510:5516   */\n      dup8\n        /* \"#utility.yul\":5446:5524   */\n      tag_134\n      jump\t// in\n    tag_226:\n        /* \"#utility.yul\":5438:5524   */\n      swap1\n      pop\n        /* \"#utility.yul\":5571:5580   */\n      dup2\n        /* \"#utility.yul\":5565:5569   */\n      dup2\n        /* \"#utility.yul\":5561:5581   */\n      sub\n        /* \"#utility.yul\":5556:5558   */\n      0x40\n        /* \"#utility.yul\":5545:5554   */\n      dup4\n        /* \"#utility.yul\":5541:5559   */\n      add\n        /* \"#utility.yul\":5534:5582   */\n      mstore\n        /* \"#utility.yul\":5599:5677   */\n      tag_227\n        /* \"#utility.yul\":5672:5676   */\n      dup2\n        /* \"#utility.yul\":5663:5669   */\n      dup7\n        /* \"#utility.yul\":5599:5677   */\n      tag_134\n      jump\t// in\n    tag_227:\n        /* \"#utility.yul\":5591:5677   */\n      swap1\n      pop\n        /* \"#utility.yul\":5724:5733   */\n      dup2\n        /* \"#utility.yul\":5718:5722   */\n      dup2\n        /* \"#utility.yul\":5714:5734   */\n      sub\n        /* \"#utility.yul\":5709:5711   */\n      0x60\n        /* \"#utility.yul\":5698:5707   */\n      dup4\n        /* \"#utility.yul\":5694:5712   */\n      add\n        /* \"#utility.yul\":5687:5735   */\n      mstore\n        /* \"#utility.yul\":5752:5830   */\n      tag_228\n        /* \"#utility.yul\":5825:5829   */\n      dup2\n        /* \"#utility.yul\":5816:5822   */\n      dup6\n        /* \"#utility.yul\":5752:5830   */\n      tag_134\n      jump\t// in\n    tag_228:\n        /* \"#utility.yul\":5744:5830   */\n      swap1\n      pop\n        /* \"#utility.yul\":5840:5913   */\n      tag_229\n        /* \"#utility.yul\":5908:5911   */\n      0x80\n        /* \"#utility.yul\":5897:5906   */\n      dup4\n        /* \"#utility.yul\":5893:5912   */\n      add\n        /* \"#utility.yul\":5884:5890   */\n      dup5\n        /* \"#utility.yul\":5840:5913   */\n      tag_130\n      jump\t// in\n    tag_229:\n        /* \"#utility.yul\":4983:5920   */\n      swap7\n      swap6\n      pop\n      pop\n      pop\n      pop\n      pop\n      pop\n      jump\t// out\n        /* \"#utility.yul\":5926:6760   */\n    tag_23:\n        /* \"#utility.yul\":6014:6020   */\n      0x00\n        /* \"#utility.yul\":6022:6028   */\n      dup1\n        /* \"#utility.yul\":6071:6073   */\n      0x40\n        /* \"#utility.yul\":6059:6068   */\n      dup4\n        /* \"#utility.yul\":6050:6057   */\n      dup6\n        /* \"#utility.yul\":6046:6069   */\n      sub\n        /* \"#utility.yul\":6042:6074   */\n      slt\n        /* \"#utility.yul\":6039:6158   */\n      iszero\n      tag_231\n      jumpi\n        /* \"#utility.yul\":6077:6156   */\n      tag_232\n      tag_115\n      jump\t// in\n    tag_232:\n        /* \"#utility.yul\":6039:6158   */\n    tag_231:\n        /* \"#utility.yul\":6225:6226   */\n      0x00\n        /* \"#utility.yul\":6214:6223   */\n      dup4\n        /* \"#utility.yul\":6210:6227   */\n      add\n        /* \"#utility.yul\":6197:6228   */\n      calldataload\n        /* \"#utility.yul\":6255:6273   */\n      0xffffffffffffffff\n        /* \"#utility.yul\":6247:6253   */\n      dup2\n        /* \"#utility.yul\":6244:6274   */\n      gt\n        /* \"#utility.yul\":6241:6358   */\n      iszero\n      tag_233\n      jumpi\n        /* \"#utility.yul\":6277:6356   */\n      tag_234\n      tag_116\n      jump\t// in\n    tag_234:\n        /* \"#utility.yul\":6241:6358   */\n    tag_233:\n        /* \"#utility.yul\":6382:6445   */\n      tag_235\n        /* \"#utility.yul\":6437:6444   */\n      dup6\n        /* \"#utility.yul\":6428:6434   */\n      dup3\n        /* \"#utility.yul\":6417:6426   */\n      dup7\n        /* \"#utility.yul\":6413:6435   */\n      add\n        /* \"#utility.yul\":6382:6445   */\n      tag_129\n      jump\t// in\n    tag_235:\n        /* \"#utility.yul\":6372:6445   */\n      swap3\n      pop\n        /* \"#utility.yul\":6168:6455   */\n      pop\n        /* \"#utility.yul\":6522:6524   */\n      0x20\n        /* \"#utility.yul\":6511:6520   */\n      dup4\n        /* \"#utility.yul\":6507:6525   */\n      add\n        /* \"#utility.yul\":6494:6526   */\n      calldataload\n        /* \"#utility.yul\":6553:6571   */\n      0xffffffffffffffff\n        /* \"#utility.yul\":6545:6551   */\n      dup2\n        /* \"#utility.yul\":6542:6572   */\n      gt\n        /* \"#utility.yul\":6539:6656   */\n      iszero\n      tag_236\n      jumpi\n        /* \"#utility.yul\":6575:6654   */\n      tag_237\n      tag_116\n      jump\t// in\n    tag_237:\n        /* \"#utility.yul\":6539:6656   */\n    tag_236:\n        /* \"#utility.yul\":6680:6743   */\n      tag_238\n        /* \"#utility.yul\":6735:6742   */\n      dup6\n        /* \"#utility.yul\":6726:6732   */\n      dup3\n        /* \"#utility.yul\":6715:6724   */\n      dup7\n        /* \"#utility.yul\":6711:6733   */\n      add\n        /* \"#utility.yul\":6680:6743   */\n      tag_129\n      jump\t// in\n    tag_238:\n        /* \"#utility.yul\":6670:6743   */\n      swap2\n      pop\n        /* \"#utility.yul\":6465:6753   */\n      pop\n        /* \"#utility.yul\":5926:6760   */\n      swap3\n      pop\n      swap3\n      swap1\n      pop\n      jump\t// out\n        /* \"#utility.yul\":6766:6988   */\n    tag_26:\n        /* \"#utility.yul\":6859:6863   */\n      0x00\n        /* \"#utility.yul\":6897:6899   */\n      0x20\n        /* \"#utility.yul\":6886:6895   */\n      dup3\n        /* \"#utility.yul\":6882:6900   */\n      add\n        /* \"#utility.yul\":6874:6900   */\n      swap1\n      pop\n        /* \"#utility.yul\":6910:6981   */\n      tag_240\n        /* \"#utility.yul\":6978:6979   */\n      0x00\n        /* \"#utility.yul\":6967:6976   */\n      dup4\n        /* \"#utility.yul\":6963:6980   */\n      add\n        /* \"#utility.yul\":6954:6960   */\n      dup5\n        /* \"#utility.yul\":6910:6981   */\n      tag_130\n      jump\t// in\n    tag_240:\n        /* \"#utility.yul\":6766:6988   */\n      swap3\n      swap2\n      pop\n      pop\n      jump\t// out\n        /* \"#utility.yul\":6994:7120   */\n    tag_135:\n        /* \"#utility.yul\":7031:7038   */\n      0x00\n        /* \"#utility.yul\":7071:7113   */\n      0xffffffffffffffffffffffffffffffffffffffff\n        /* \"#utility.yul\":7064:7069   */\n      dup3\n        /* \"#utility.yul\":7060:7114   */\n      and\n        /* \"#utility.yul\":7049:7114   */\n      swap1\n      pop\n        /* \"#utility.yul\":6994:7120   */\n      swap2\n      swap1\n      pop\n      jump\t// out\n        /* \"#utility.yul\":7126:7222   */\n    tag_136:\n        /* \"#utility.yul\":7163:7170   */\n      0x00\n        /* \"#utility.yul\":7192:7216   */\n      tag_243\n        /* \"#utility.yul\":7210:7215   */\n      dup3\n        /* \"#utility.yul\":7192:7216   */\n      tag_135\n      jump\t// in\n    tag_243:\n        /* \"#utility.yul\":7181:7216   */\n      swap1\n      pop\n        /* \"#utility.yul\":7126:7222   */\n      swap2\n      swap1\n      pop\n      jump\t// out\n        /* \"#utility.yul\":7228:7346   */\n    tag_137:\n        /* \"#utility.yul\":7315:7339   */\n      tag_245\n        /* \"#utility.yul\":7333:7338   */\n      dup2\n        /* \"#utility.yul\":7315:7339   */\n      tag_136\n      jump\t// in\n    tag_245:\n        /* \"#utility.yul\":7310:7313   */\n      dup3\n        /* \"#utility.yul\":7303:7340   */\n      mstore\n        /* \"#utility.yul\":7228:7346   */\n      pop\n      pop\n      jump\t// out\n        /* \"#utility.yul\":7352:7574   */\n    tag_30:\n        /* \"#utility.yul\":7445:7449   */\n      0x00\n        /* \"#utility.yul\":7483:7485   */\n      0x20\n        /* \"#utility.yul\":7472:7481   */\n      dup3\n        /* \"#utility.yul\":7468:7486   */\n      add\n        /* \"#utility.yul\":7460:7486   */\n      swap1\n      pop\n        /* \"#utility.yul\":7496:7567   */\n      tag_247\n        /* \"#utility.yul\":7564:7565   */\n      0x00\n        /* \"#utility.yul\":7553:7562   */\n      dup4\n        /* \"#utility.yul\":7549:7566   */\n      add\n        /* \"#utility.yul\":7540:7546   */\n      dup5\n        /* \"#utility.yul\":7496:7567   */\n      tag_137\n      jump\t// in\n    tag_247:\n        /* \"#utility.yul\":7352:7574   */\n      swap3\n      swap2\n      pop\n      pop\n      jump\t// out\n        /* \"#utility.yul\":7580:8406   */\n    tag_38:\n        /* \"#utility.yul\":7817:7821   */\n      0x00\n        /* \"#utility.yul\":7855:7858   */\n      0x80\n        /* \"#utility.yul\":7844:7853   */\n      dup3\n        /* \"#utility.yul\":7840:7859   */\n      add\n        /* \"#utility.yul\":7832:7859   */\n      swap1\n      pop\n        /* \"#utility.yul\":7905:7914   */\n      dup2\n        /* \"#utility.yul\":7899:7903   */\n      dup2\n        /* \"#utility.yul\":7895:7915   */\n      sub\n        /* \"#utility.yul\":7891:7892   */\n      0x00\n        /* \"#utility.yul\":7880:7889   */\n      dup4\n        /* \"#utility.yul\":7876:7893   */\n      add\n        /* \"#utility.yul\":7869:7916   */\n      mstore\n        /* \"#utility.yul\":7933:8011   */\n      tag_249\n        /* \"#utility.yul\":8006:8010   */\n      dup2\n        /* \"#utility.yul\":7997:8003   */\n      dup8\n        /* \"#utility.yul\":7933:8011   */\n      tag_134\n      jump\t// in\n    tag_249:\n        /* \"#utility.yul\":7925:8011   */\n      swap1\n      pop\n        /* \"#utility.yul\":8058:8067   */\n      dup2\n        /* \"#utility.yul\":8052:8056   */\n      dup2\n        /* \"#utility.yul\":8048:8068   */\n      sub\n        /* \"#utility.yul\":8043:8045   */\n      0x20\n        /* \"#utility.yul\":8032:8041   */\n      dup4\n        /* \"#utility.yul\":8028:8046   */\n      add\n        /* \"#utility.yul\":8021:8069   */\n      mstore\n        /* \"#utility.yul\":8086:8164   */\n      tag_250\n        /* \"#utility.yul\":8159:8163   */\n      dup2\n        /* \"#utility.yul\":8150:8156   */\n      dup7\n        /* \"#utility.yul\":8086:8164   */\n      tag_134\n      jump\t// in\n    tag_250:\n        /* \"#utility.yul\":8078:8164   */\n      swap1\n      pop\n        /* \"#utility.yul\":8211:8220   */\n      dup2\n        /* \"#utility.yul\":8205:8209   */\n      dup2\n        /* \"#utility.yul\":8201:8221   */\n      sub\n        /* \"#utility.yul\":8196:8198   */\n      0x40\n        /* \"#utility.yul\":8185:8194   */\n      dup4\n        /* \"#utility.yul\":8181:8199   */\n      add\n        /* \"#utility.yul\":8174:8222   */\n      mstore\n        /* \"#utility.yul\":8239:8317   */\n      tag_251\n        /* \"#utility.yul\":8312:8316   */\n      dup2\n        /* \"#utility.yul\":8303:8309   */\n      dup6\n        /* \"#utility.yul\":8239:8317   */\n      tag_134\n      jump\t// in\n    tag_251:\n        /* \"#utility.yul\":8231:8317   */\n      swap1\n      pop\n        /* \"#utility.yul\":8327:8399   */\n      tag_252\n        /* \"#utility.yul\":8395:8397   */\n      0x60\n        /* \"#utility.yul\":8384:8393   */\n      dup4\n        /* \"#utility.yul\":8380:8398   */\n      add\n        /* \"#utility.yul\":8371:8377   */\n      dup5\n        /* \"#utility.yul\":8327:8399   */\n      tag_130\n      jump\t// in\n    tag_252:\n        /* \"#utility.yul\":7580:8406   */\n      swap6\n      swap5\n      pop\n      pop\n      pop\n      pop\n      pop\n      jump\t// out\n        /* \"#utility.yul\":8412:8637   */\n    tag_138:\n        /* \"#utility.yul\":8552:8586   */\n      0x4f6e6c7920746865206d616e616765722063616e206d6f766520746865207368\n        /* \"#utility.yul\":8548:8549   */\n      0x00\n        /* \"#utility.yul\":8540:8546   */\n      dup3\n        /* \"#utility.yul\":8536:8550   */\n      add\n        /* \"#utility.yul\":8529:8587   */\n      mstore\n        /* \"#utility.yul\":8621:8629   */\n      0x69706d656e740000000000000000000000000000000000000000000000000000\n        /* \"#utility.yul\":8616:8618   */\n      0x20\n        /* \"#utility.yul\":8608:8614   */\n      dup3\n        /* \"#utility.yul\":8604:8619   */\n      add\n        /* \"#utility.yul\":8597:8630   */\n      mstore\n        /* \"#utility.yul\":8412:8637   */\n      pop\n      jump\t// out\n        /* \"#utility.yul\":8643:9009   */\n    tag_139:\n        /* \"#utility.yul\":8785:8788   */\n      0x00\n        /* \"#utility.yul\":8806:8873   */\n      tag_255\n        /* \"#utility.yul\":8870:8872   */\n      0x26\n        /* \"#utility.yul\":8865:8868   */\n      dup4\n        /* \"#utility.yul\":8806:8873   */\n      tag_132\n      jump\t// in\n    tag_255:\n        /* \"#utility.yul\":8799:8873   */\n      swap2\n      pop\n        /* \"#utility.yul\":8882:8975   */\n      tag_256\n        /* \"#utility.yul\":8971:8974   */\n      dup3\n        /* \"#utility.yul\":8882:8975   */\n      tag_138\n      jump\t// in\n    tag_256:\n        /* \"#utility.yul\":9000:9002   */\n      0x40\n        /* \"#utility.yul\":8995:8998   */\n      dup3\n        /* \"#utility.yul\":8991:9003   */\n      add\n        /* \"#utility.yul\":8984:9003   */\n      swap1\n      pop\n        /* \"#utility.yul\":8643:9009   */\n      swap2\n      swap1\n      pop\n      jump\t// out\n        /* \"#utility.yul\":9015:9434   */\n    tag_45:\n        /* \"#utility.yul\":9181:9185   */\n      0x00\n        /* \"#utility.yul\":9219:9221   */\n      0x20\n        /* \"#utility.yul\":9208:9217   */\n      dup3\n        /* \"#utility.yul\":9204:9222   */\n      add\n        /* \"#utility.yul\":9196:9222   */\n      swap1\n      pop\n        /* \"#utility.yul\":9268:9277   */\n      dup2\n        /* \"#utility.yul\":9262:9266   */\n      dup2\n        /* \"#utility.yul\":9258:9278   */\n      sub\n        /* \"#utility.yul\":9254:9255   */\n      0x00\n        /* \"#utility.yul\":9243:9252   */\n      dup4\n        /* \"#utility.yul\":9239:9256   */\n      add\n        /* \"#utility.yul\":9232:9279   */\n      mstore\n        /* \"#utility.yul\":9296:9427   */\n      tag_258\n        /* \"#utility.yul\":9422:9426   */\n      dup2\n        /* \"#utility.yul\":9296:9427   */\n      tag_139\n      jump\t// in\n    tag_258:\n        /* \"#utility.yul\":9288:9427   */\n      swap1\n      pop\n        /* \"#utility.yul\":9015:9434   */\n      swap2\n      swap1\n      pop\n      jump\t// out\n        /* \"#utility.yul\":9440:9612   */\n    tag_140:\n        /* \"#utility.yul\":9580:9604   */\n      0x536869706d656e7420494420697320696e76616c696400000000000000000000\n        /* \"#utility.yul\":9576:9577   */\n      0x00\n        /* \"#utility.yul\":9568:9574   */\n      dup3\n        /* \"#utility.yul\":9564:9578   */\n      add\n        /* \"#utility.yul\":9557:9605   */\n      mstore\n        /* \"#utility.yul\":9440:9612   */\n      pop\n      jump\t// out\n        /* \"#utility.yul\":9618:9984   */\n    tag_141:\n        /* \"#utility.yul\":9760:9763   */\n      0x00\n        /* \"#utility.yul\":9781:9848   */\n      tag_261\n        /* \"#utility.yul\":9845:9847   */\n      0x16\n        /* \"#utility.yul\":9840:9843   */\n      dup4\n        /* \"#utility.yul\":9781:9848   */\n      tag_132\n      jump\t// in\n    tag_261:\n        /* \"#utility.yul\":9774:9848   */\n      swap2\n      pop\n        /* \"#utility.yul\":9857:9950   */\n      tag_262\n        /* \"#utility.yul\":9946:9949   */\n      dup3\n        /* \"#utility.yul\":9857:9950   */\n      tag_140\n      jump\t// in\n    tag_262:\n        /* \"#utility.yul\":9975:9977   */\n      0x20\n        /* \"#utility.yul\":9970:9973   */\n      dup3\n        /* \"#utility.yul\":9966:9978   */\n      add\n        /* \"#utility.yul\":9959:9978   */\n      swap1\n      pop\n        /* \"#utility.yul\":9618:9984   */\n      swap2\n      swap1\n      pop\n      jump\t// out\n        /* \"#utility.yul\":9990:10409   */\n    tag_49:\n        /* \"#utility.yul\":10156:10160   */\n      0x00\n        /* \"#utility.yul\":10194:10196   */\n      0x20\n        /* \"#utility.yul\":10183:10192   */\n      dup3\n        /* \"#utility.yul\":10179:10197   */\n      add\n        /* \"#utility.yul\":10171:10197   */\n      swap1\n      pop\n        /* \"#utility.yul\":10243:10252   */\n      dup2\n        /* \"#utility.yul\":10237:10241   */\n      dup2\n        /* \"#utility.yul\":10233:10253   */\n      sub\n        /* \"#utility.yul\":10229:10230   */\n      0x00\n        /* \"#utility.yul\":10218:10227   */\n      dup4\n        /* \"#utility.yul\":10214:10231   */\n      add\n        /* \"#utility.yul\":10207:10254   */\n      mstore\n        /* \"#utility.yul\":10271:10402   */\n      tag_264\n        /* \"#utility.yul\":10397:10401   */\n      dup2\n        /* \"#utility.yul\":10271:10402   */\n      tag_141\n      jump\t// in\n    tag_264:\n        /* \"#utility.yul\":10263:10402   */\n      swap1\n      pop\n        /* \"#utility.yul\":9990:10409   */\n      swap2\n      swap1\n      pop\n      jump\t// out\n        /* \"#utility.yul\":10415:10643   */\n    tag_142:\n        /* \"#utility.yul\":10555:10589   */\n      0x54656d7065726174757265206973206e6f74207375697461626c6520666f7220\n        /* \"#utility.yul\":10551:10552   */\n      0x00\n        /* \"#utility.yul\":10543:10549   */\n      dup3\n        /* \"#utility.yul\":10539:10553   */\n      add\n        /* \"#utility.yul\":10532:10590   */\n      mstore\n        /* \"#utility.yul\":10624:10635   */\n      0x6465706172747572650000000000000000000000000000000000000000000000\n        /* \"#utility.yul\":10619:10621   */\n      0x20\n        /* \"#utility.yul\":10611:10617   */\n      dup3\n        /* \"#utility.yul\":10607:10622   */\n      add\n        /* \"#utility.yul\":10600:10636   */\n      mstore\n        /* \"#utility.yul\":10415:10643   */\n      pop\n      jump\t// out\n        /* \"#utility.yul\":10649:11015   */\n    tag_143:\n        /* \"#utility.yul\":10791:10794   */\n      0x00\n        /* \"#utility.yul\":10812:10879   */\n      tag_267\n        /* \"#utility.yul\":10876:10878   */\n      0x29\n        /* \"#utility.yul\":10871:10874   */\n      dup4\n        /* \"#utility.yul\":10812:10879   */\n      tag_132\n      jump\t// in\n    tag_267:\n        /* \"#utility.yul\":10805:10879   */\n      swap2\n      pop\n        /* \"#utility.yul\":10888:10981   */\n      tag_268\n        /* \"#utility.yul\":10977:10980   */\n      dup3\n        /* \"#utility.yul\":10888:10981   */\n      tag_142\n      jump\t// in\n    tag_268:\n        /* \"#utility.yul\":11006:11008   */\n      0x40\n        /* \"#utility.yul\":11001:11004   */\n      dup3\n        /* \"#utility.yul\":10997:11009   */\n      add\n        /* \"#utility.yul\":10990:11009   */\n      swap1\n      pop\n        /* \"#utility.yul\":10649:11015   */\n      swap2\n      swap1\n      pop\n      jump\t// out\n        /* \"#utility.yul\":11021:11440   */\n    tag_53:\n        /* \"#utility.yul\":11187:11191   */\n      0x00\n        /* \"#utility.yul\":11225:11227   */\n      0x20\n        /* \"#utility.yul\":11214:11223   */\n      dup3\n        /* \"#utility.yul\":11210:11228   */\n      add\n        /* \"#utility.yul\":11202:11228   */\n      swap1\n      pop\n        /* \"#utility.yul\":11274:11283   */\n      dup2\n        /* \"#utility.yul\":11268:11272   */\n      dup2\n        /* \"#utility.yul\":11264:11284   */\n      sub\n        /* \"#utility.yul\":11260:11261   */\n      0x00\n        /* \"#utility.yul\":11249:11258   */\n      dup4\n        /* \"#utility.yul\":11245:11262   */\n      add\n        /* \"#utility.yul\":11238:11285   */\n      mstore\n        /* \"#utility.yul\":11302:11433   */\n      tag_270\n        /* \"#utility.yul\":11428:11432   */\n      dup2\n        /* \"#utility.yul\":11302:11433   */\n      tag_143\n      jump\t// in\n    tag_270:\n        /* \"#utility.yul\":11294:11433   */\n      swap1\n      pop\n        /* \"#utility.yul\":11021:11440   */\n      swap2\n      swap1\n      pop\n      jump\t// out\n        /* \"#utility.yul\":11446:11626   */\n    tag_144:\n        /* \"#utility.yul\":11494:11571   */\n      0x4e487b7100000000000000000000000000000000000000000000000000000000\n        /* \"#utility.yul\":11491:11492   */\n      0x00\n        /* \"#utility.yul\":11484:11572   */\n      mstore\n        /* \"#utility.yul\":11591:11595   */\n      0x22\n        /* \"#utility.yul\":11588:11589   */\n      0x04\n        /* \"#utility.yul\":11581:11596   */\n      mstore\n        /* \"#utility.yul\":11615:11619   */\n      0x24\n        /* \"#utility.yul\":11612:11613   */\n      0x00\n        /* \"#utility.yul\":11605:11620   */\n      revert\n        /* \"#utility.yul\":11632:11952   */\n    tag_61:\n        /* \"#utility.yul\":11676:11682   */\n      0x00\n        /* \"#utility.yul\":11713:11714   */\n      0x02\n        /* \"#utility.yul\":11707:11711   */\n      dup3\n        /* \"#utility.yul\":11703:11715   */\n      div\n        /* \"#utility.yul\":11693:11715   */\n      swap1\n      pop\n        /* \"#utility.yul\":11760:11761   */\n      0x01\n        /* \"#utility.yul\":11754:11758   */\n      dup3\n        /* \"#utility.yul\":11750:11762   */\n      and\n        /* \"#utility.yul\":11781:11799   */\n      dup1\n        /* \"#utility.yul\":11771:11852   */\n      tag_273\n      jumpi\n        /* \"#utility.yul\":11837:11841   */\n      0x7f\n        /* \"#utility.yul\":11829:11835   */\n      dup3\n        /* \"#utility.yul\":11825:11842   */\n      and\n        /* \"#utility.yul\":11815:11842   */\n      swap2\n      pop\n        /* \"#utility.yul\":11771:11852   */\n    tag_273:\n        /* \"#utility.yul\":11899:11901   */\n      0x20\n        /* \"#utility.yul\":11891:11897   */\n      dup3\n        /* \"#utility.yul\":11888:11902   */\n      lt\n        /* \"#utility.yul\":11868:11886   */\n      dup2\n        /* \"#utility.yul\":11865:11903   */\n      sub\n        /* \"#utility.yul\":11862:11946   */\n      tag_274\n      jumpi\n        /* \"#utility.yul\":11918:11936   */\n      tag_275\n      tag_144\n      jump\t// in\n    tag_275:\n        /* \"#utility.yul\":11862:11946   */\n    tag_274:\n        /* \"#utility.yul\":11683:11952   */\n      pop\n        /* \"#utility.yul\":11632:11952   */\n      swap2\n      swap1\n      pop\n      jump\t// out\n        /* \"#utility.yul\":11958:12099   */\n    tag_145:\n        /* \"#utility.yul\":12007:12011   */\n      0x00\n        /* \"#utility.yul\":12030:12033   */\n      dup2\n        /* \"#utility.yul\":12022:12033   */\n      swap1\n      pop\n        /* \"#utility.yul\":12053:12056   */\n      dup2\n        /* \"#utility.yul\":12050:12051   */\n      0x00\n        /* \"#utility.yul\":12043:12057   */\n      mstore\n        /* \"#utility.yul\":12087:12091   */\n      0x20\n        /* \"#utility.yul\":12084:12085   */\n      0x00\n        /* \"#utility.yul\":12074:12092   */\n      keccak256\n        /* \"#utility.yul\":12066:12092   */\n      swap1\n      pop\n        /* \"#utility.yul\":11958:12099   */\n      swap2\n      swap1\n      pop\n      jump\t// out\n        /* \"#utility.yul\":12105:12198   */\n    tag_146:\n        /* \"#utility.yul\":12142:12148   */\n      0x00\n        /* \"#utility.yul\":12189:12191   */\n      0x20\n        /* \"#utility.yul\":12184:12186   */\n      0x1f\n        /* \"#utility.yul\":12177:12182   */\n      dup4\n        /* \"#utility.yul\":12173:12187   */\n      add\n        /* \"#utility.yul\":12169:12192   */\n      div\n        /* \"#utility.yul\":12159:12192   */\n      swap1\n      pop\n        /* \"#utility.yul\":12105:12198   */\n      swap2\n      swap1\n      pop\n      jump\t// out\n        /* \"#utility.yul\":12204:12311   */\n    tag_147:\n        /* \"#utility.yul\":12248:12256   */\n      0x00\n        /* \"#utility.yul\":12298:12303   */\n      dup3\n        /* \"#utility.yul\":12292:12296   */\n      dup3\n        /* \"#utility.yul\":12288:12304   */\n      shl\n        /* \"#utility.yul\":12267:12304   */\n      swap1\n      pop\n        /* \"#utility.yul\":12204:12311   */\n      swap3\n      swap2\n      pop\n      pop\n      jump\t// out\n        /* \"#utility.yul\":12317:12710   */\n    tag_148:\n        /* \"#utility.yul\":12386:12392   */\n      0x00\n        /* \"#utility.yul\":12436:12437   */\n      0x08\n        /* \"#utility.yul\":12424:12434   */\n      dup4\n        /* \"#utility.yul\":12420:12438   */\n      mul\n        /* \"#utility.yul\":12459:12556   */\n      tag_280\n        /* \"#utility.yul\":12489:12555   */\n      0xffffffffffffffffffffffffffffffffffffffffffffffffffffffffffffffff\n        /* \"#utility.yul\":12478:12487   */\n      dup3\n        /* \"#utility.yul\":12459:12556   */\n      tag_147\n      jump\t// in\n    tag_280:\n        /* \"#utility.yul\":12577:12616   */\n      tag_281\n        /* \"#utility.yul\":12607:12615   */\n      dup7\n        /* \"#utility.yul\":12596:12605   */\n      dup4\n        /* \"#utility.yul\":12577:12616   */\n      tag_147\n      jump\t// in\n    tag_281:\n        /* \"#utility.yul\":12565:12616   */\n      swap6\n      pop\n        /* \"#utility.yul\":12649:12653   */\n      dup1\n        /* \"#utility.yul\":12645:12654   */\n      not\n        /* \"#utility.yul\":12638:12643   */\n      dup5\n        /* \"#utility.yul\":12634:12655   */\n      and\n        /* \"#utility.yul\":12625:12655   */\n      swap4\n      pop\n        /* \"#utility.yul\":12698:12702   */\n      dup1\n        /* \"#utility.yul\":12688:12696   */\n      dup7\n        /* \"#utility.yul\":12684:12703   */\n      and\n        /* \"#utility.yul\":12677:12682   */\n      dup5\n        /* \"#utility.yul\":12674:12704   */\n      or\n        /* \"#utility.yul\":12664:12704   */\n      swap3\n      pop\n        /* \"#utility.yul\":12393:12710   */\n      pop\n      pop\n        /* \"#utility.yul\":12317:12710   */\n      swap4\n      swap3\n      pop\n      pop\n      pop\n      jump\t// out\n        /* \"#utility.yul\":12716:12776   */\n    tag_149:\n        /* \"#utility.yul\":12744:12747   */\n      0x00\n        /* \"#utility.yul\":12765:12770   */\n      dup2\n        /* \"#utility.yul\":12758:12770   */\n      swap1\n      pop\n        /* \"#utility.yul\":12716:12776   */\n      swap2\n      swap1\n      pop\n      jump\t// out\n        /* \"#utility.yul\":12782:12924   */\n    tag_150:\n        /* \"#utility.yul\":12832:12841   */\n      0x00\n        /* \"#utility.yul\":12865:12918   */\n      tag_284\n        /* \"#utility.yul\":12883:12917   */\n      tag_285\n        /* \"#utility.yul\":12892:12916   */\n      tag_286\n        /* \"#utility.yul\":12910:12915   */\n      dup5\n        /* \"#utility.yul\":12892:12916   */\n      tag_117\n      jump\t// in\n    tag_286:\n        /* \"#utility.yul\":12883:12917   */\n      tag_149\n      jump\t// in\n    tag_285:\n        /* \"#utility.yul\":12865:12918   */\n      tag_117\n      jump\t// in\n    tag_284:\n        /* \"#utility.yul\":12852:12918   */\n      swap1\n      pop\n        /* \"#utility.yul\":12782:12924   */\n      swap2\n      swap1\n      pop\n      jump\t// out\n        /* \"#utility.yul\":12930:13005   */\n    tag_151:\n        /* \"#utility.yul\":12973:12976   */\n      0x00\n        /* \"#utility.yul\":12994:12999   */\n      dup2\n        /* \"#utility.yul\":12987:12999   */\n      swap1\n      pop\n        /* \"#utility.yul\":12930:13005   */\n      swap2\n      swap1\n      pop\n      jump\t// out\n        /* \"#utility.yul\":13011:13280   */\n    tag_152:\n        /* \"#utility.yul\":13121:13160   */\n      tag_289\n        /* \"#utility.yul\":13152:13159   */\n      dup4\n        /* \"#utility.yul\":13121:13160   */\n      tag_150\n      jump\t// in\n    tag_289:\n        /* \"#utility.yul\":13182:13273   */\n      tag_290\n        /* \"#utility.yul\":13231:13272   */\n      tag_291\n        /* \"#utility.yul\":13255:13271   */\n      dup3\n        /* \"#utility.yul\":13231:13272   */\n      tag_151\n      jump\t// in\n    tag_291:\n        /* \"#utility.yul\":13223:13229   */\n      dup5\n        /* \"#utility.yul\":13216:13220   */\n      dup5\n        /* \"#utility.yul\":13210:13221   */\n      sload\n        /* \"#utility.yul\":13182:13273   */\n      tag_148\n      jump\t// in\n    tag_290:\n        /* \"#utility.yul\":13176:13180   */\n      dup3\n        /* \"#utility.yul\":13169:13274   */\n      sstore\n        /* \"#utility.yul\":13087:13280   */\n      pop\n        /* \"#utility.yul\":13011:13280   */\n      pop\n      pop\n      pop\n      jump\t// out\n        /* \"#utility.yul\":13286:13359   */\n    tag_153:\n        /* \"#utility.yul\":13331:13334   */\n      0x00\n        /* \"#utility.yul\":13286:13359   */\n      swap1\n      jump\t// out\n        /* \"#utility.yul\":13365:13554   */\n    tag_154:\n        /* \"#utility.yul\":13442:13474   */\n      tag_294\n      tag_153\n      jump\t// in\n    tag_294:\n        /* \"#utility.yul\":13483:13548   */\n      tag_295\n        /* \"#utility.yul\":13541:13547   */\n      dup2\n        /* \"#utility.yul\":13533:13539   */\n      dup5\n        /* \"#utility.yul\":13527:13531   */\n      dup5\n        /* \"#utility.yul\":13483:13548   */\n      tag_152\n      jump\t// in\n    tag_295:\n        /* \"#utility.yul\":13418:13554   */\n      pop\n        /* \"#utility.yul\":13365:13554   */\n      pop\n      pop\n      jump\t// out\n        /* \"#utility.yul\":13560:13746   */\n    tag_155:\n        /* \"#utility.yul\":13620:13740   */\n    tag_297:\n        /* \"#utility.yul\":13637:13640   */\n      dup2\n        /* \"#utility.yul\":13630:13635   */\n      dup2\n        /* \"#utility.yul\":13627:13641   */\n      lt\n        /* \"#utility.yul\":13620:13740   */\n      iszero\n      tag_299\n      jumpi\n        /* \"#utility.yul\":13691:13730   */\n      tag_300\n        /* \"#utility.yul\":13728:13729   */\n      0x00\n        /* \"#utility.yul\":13721:13726   */\n      dup3\n        /* \"#utility.yul\":13691:13730   */\n      tag_154\n      jump\t// in\n    tag_300:\n        /* \"#utility.yul\":13664:13665   */\n      0x01\n        /* \"#utility.yul\":13657:13662   */\n      dup2\n        /* \"#utility.yul\":13653:13666   */\n      add\n        /* \"#utility.yul\":13644:13666   */\n      swap1\n      pop\n        /* \"#utility.yul\":13620:13740   */\n      jump(tag_297)\n    tag_299:\n        /* \"#utility.yul\":13560:13746   */\n      pop\n      pop\n      jump\t// out\n        /* \"#utility.yul\":13752:14295   */\n    tag_156:\n        /* \"#utility.yul\":13853:13855   */\n      0x1f\n        /* \"#utility.yul\":13848:13851   */\n      dup3\n        /* \"#utility.yul\":13845:13856   */\n      gt\n        /* \"#utility.yul\":13842:14288   */\n      iszero\n      tag_302\n      jumpi\n        /* \"#utility.yul\":13887:13925   */\n      tag_303\n        /* \"#utility.yul\":13919:13924   */\n      dup2\n        /* \"#utility.yul\":13887:13925   */\n      tag_145\n      jump\t// in\n    tag_303:\n        /* \"#utility.yul\":13971:14000   */\n      tag_304\n        /* \"#utility.yul\":13989:13999   */\n      dup5\n        /* \"#utility.yul\":13971:14000   */\n      tag_146\n      jump\t// in\n    tag_304:\n        /* \"#utility.yul\":13961:13969   */\n      dup2\n        /* \"#utility.yul\":13957:14001   */\n      add\n        /* \"#utility.yul\":14154:14156   */\n      0x20\n        /* \"#utility.yul\":14142:14152   */\n      dup6\n        /* \"#utility.yul\":14139:14157   */\n      lt\n        /* \"#utility.yul\":14136:14185   */\n      iszero\n      tag_305\n      jumpi\n        /* \"#utility.yul\":14175:14183   */\n      dup2\n        /* \"#utility.yul\":14160:14183   */\n      swap1\n      pop\n        /* \"#utility.yul\":14136:14185   */\n    tag_305:\n        /* \"#utility.yul\":14198:14278   */\n      tag_306\n        /* \"#utility.yul\":14254:14276   */\n      tag_307\n        /* \"#utility.yul\":14272:14275   */\n      dup6\n        /* \"#utility.yul\":14254:14276   */\n      tag_146\n      jump\t// in\n    tag_307:\n        /* \"#utility.yul\":14244:14252   */\n      dup4\n        /* \"#utility.yul\":14240:14277   */\n      add\n        /* \"#utility.yul\":14227:14238   */\n      dup3\n        /* \"#utility.yul\":14198:14278   */\n      tag_155\n      jump\t// in\n    tag_306:\n        /* \"#utility.yul\":13857:14288   */\n      pop\n      pop\n        /* \"#utility.yul\":13842:14288   */\n    tag_302:\n        /* \"#utility.yul\":13752:14295   */\n      pop\n      pop\n      pop\n      jump\t// out\n        /* \"#utility.yul\":14301:14418   */\n    tag_157:\n        /* \"#utility.yul\":14355:14363   */\n      0x00\n        /* \"#utility.yul\":14405:14410   */\n      dup3\n        /* \"#utility.yul\":14399:14403   */\n      dup3\n        /* \"#utility.yul\":14395:14411   */\n      shr\n        /* \"#utility.yul\":14374:14411   */\n      swap1\n      pop\n        /* \"#utility.yul\":14301:14418   */\n      swap3\n      swap2\n      pop\n      pop\n      jump\t// out\n        /* \"#utility.yul\":14424:14593   */\n    tag_158:\n        /* \"#utility.yul\":14468:14474   */\n      0x00\n        /* \"#utility.yul\":14501:14552   */\n      tag_310\n        /* \"#utility.yul\":14549:14550   */\n      0x00\n        /* \"#utility.yul\":14545:14551   */\n      not\n        /* \"#utility.yul\":14537:14542   */\n      dup5\n        /* \"#utility.yul\":14534:14535   */\n      0x08\n        /* \"#utility.yul\":14530:14543   */\n      mul\n        /* \"#utility.yul\":14501:14552   */\n      tag_157\n      jump\t// in\n    tag_310:\n        /* \"#utility.yul\":14497:14553   */\n      not\n        /* \"#utility.yul\":14582:14586   */\n      dup1\n        /* \"#utility.yul\":14576:14580   */\n      dup4\n        /* \"#utility.yul\":14572:14587   */\n      and\n        /* \"#utility.yul\":14562:14587   */\n      swap2\n      pop\n        /* \"#utility.yul\":14475:14593   */\n      pop\n        /* \"#utility.yul\":14424:14593   */\n      swap3\n      swap2\n      pop\n      pop\n      jump\t// out\n        /* \"#utility.yul\":14598:14893   */\n    tag_159:\n        /* \"#utility.yul\":14674:14678   */\n      0x00\n        /* \"#utility.yul\":14820:14849   */\n      tag_312\n        /* \"#utility.yul\":14845:14848   */\n      dup4\n        /* \"#utility.yul\":14839:14843   */\n      dup4\n        /* \"#utility.yul\":14820:14849   */\n      tag_158\n      jump\t// in\n    tag_312:\n        /* \"#utility.yul\":14812:14849   */\n      swap2\n      pop\n        /* \"#utility.yul\":14882:14885   */\n      dup3\n        /* \"#utility.yul\":14879:14880   */\n      0x02\n        /* \"#utility.yul\":14875:14886   */\n      mul\n        /* \"#utility.yul\":14869:14873   */\n      dup3\n        /* \"#utility.yul\":14866:14887   */\n      or\n        /* \"#utility.yul\":14858:14887   */\n      swap1\n      pop\n        /* \"#utility.yul\":14598:14893   */\n      swap3\n      swap2\n      pop\n      pop\n      jump\t// out\n        /* \"#utility.yul\":14898:16293   */\n    tag_55:\n        /* \"#utility.yul\":15015:15052   */\n      tag_314\n        /* \"#utility.yul\":15048:15051   */\n      dup3\n        /* \"#utility.yul\":15015:15052   */\n      tag_131\n      jump\t// in\n    tag_314:\n        /* \"#utility.yul\":15117:15135   */\n      0xffffffffffffffff\n        /* \"#utility.yul\":15109:15115   */\n      dup2\n        /* \"#utility.yul\":15106:15136   */\n      gt\n        /* \"#utility.yul\":15103:15159   */\n      iszero\n      tag_315\n      jumpi\n        /* \"#utility.yul\":15139:15157   */\n      tag_316\n      tag_123\n      jump\t// in\n    tag_316:\n        /* \"#utility.yul\":15103:15159   */\n    tag_315:\n        /* \"#utility.yul\":15183:15221   */\n      tag_317\n        /* \"#utility.yul\":15215:15219   */\n      dup3\n        /* \"#utility.yul\":15209:15220   */\n      sload\n        /* \"#utility.yul\":15183:15221   */\n      tag_61\n      jump\t// in\n    tag_317:\n        /* \"#utility.yul\":15268:15335   */\n      tag_318\n        /* \"#utility.yul\":15328:15334   */\n      dup3\n        /* \"#utility.yul\":15320:15326   */\n      dup3\n        /* \"#utility.yul\":15314:15318   */\n      dup6\n        /* \"#utility.yul\":15268:15335   */\n      tag_156\n      jump\t// in\n    tag_318:\n        /* \"#utility.yul\":15362:15363   */\n      0x00\n        /* \"#utility.yul\":15386:15390   */\n      0x20\n        /* \"#utility.yul\":15373:15390   */\n      swap1\n      pop\n        /* \"#utility.yul\":15418:15420   */\n      0x1f\n        /* \"#utility.yul\":15410:15416   */\n      dup4\n        /* \"#utility.yul\":15407:15421   */\n      gt\n        /* \"#utility.yul\":15435:15436   */\n      0x01\n        /* \"#utility.yul\":15430:16048   */\n      dup2\n      eq\n      tag_320\n      jumpi\n        /* \"#utility.yul\":16092:16093   */\n      0x00\n        /* \"#utility.yul\":16109:16115   */\n      dup5\n        /* \"#utility.yul\":16106:16183   */\n      iszero\n      tag_321\n      jumpi\n        /* \"#utility.yul\":16158:16167   */\n      dup3\n        /* \"#utility.yul\":16153:16156   */\n      dup8\n        /* \"#utility.yul\":16149:16168   */\n      add\n        /* \"#utility.yul\":16143:16169   */\n      mload\n        /* \"#utility.yul\":16134:16169   */\n      swap1\n      pop\n        /* \"#utility.yul\":16106:16183   */\n    tag_321:\n        /* \"#utility.yul\":16209:16276   */\n      tag_322\n        /* \"#utility.yul\":16269:16275   */\n      dup6\n        /* \"#utility.yul\":16262:16267   */\n      dup3\n        /* \"#utility.yul\":16209:16276   */\n      tag_159\n      jump\t// in\n    tag_322:\n        /* \"#utility.yul\":16203:16207   */\n      dup7\n        /* \"#utility.yul\":16196:16277   */\n      sstore\n        /* \"#utility.yul\":16065:16287   */\n      pop\n        /* \"#utility.yul\":15400:16287   */\n      jump(tag_319)\n        /* \"#utility.yul\":15430:16048   */\n    tag_320:\n        /* \"#utility.yul\":15482:15486   */\n      0x1f\n        /* \"#utility.yul\":15478:15487   */\n      not\n        /* \"#utility.yul\":15470:15476   */\n      dup5\n        /* \"#utility.yul\":15466:15488   */\n      and\n        /* \"#utility.yul\":15516:15553   */\n      tag_323\n        /* \"#utility.yul\":15548:15552   */\n      dup7\n        /* \"#utility.yul\":15516:15553   */\n      tag_145\n      jump\t// in\n    tag_323:\n        /* \"#utility.yul\":15575:15576   */\n      0x00\n        /* \"#utility.yul\":15589:15797   */\n    tag_324:\n        /* \"#utility.yul\":15603:15610   */\n      dup3\n        /* \"#utility.yul\":15600:15601   */\n      dup2\n        /* \"#utility.yul\":15597:15611   */\n      lt\n        /* \"#utility.yul\":15589:15797   */\n      iszero\n      tag_326\n      jumpi\n        /* \"#utility.yul\":15682:15691   */\n      dup5\n        /* \"#utility.yul\":15677:15680   */\n      dup10\n        /* \"#utility.yul\":15673:15692   */\n      add\n        /* \"#utility.yul\":15667:15693   */\n      mload\n        /* \"#utility.yul\":15659:15665   */\n      dup3\n        /* \"#utility.yul\":15652:15694   */\n      sstore\n        /* \"#utility.yul\":15733:15734   */\n      0x01\n        /* \"#utility.yul\":15725:15731   */\n      dup3\n        /* \"#utility.yul\":15721:15735   */\n      add\n        /* \"#utility.yul\":15711:15735   */\n      swap2\n      pop\n        /* \"#utility.yul\":15780:15782   */\n      0x20\n        /* \"#utility.yul\":15769:15778   */\n      dup6\n        /* \"#utility.yul\":15765:15783   */\n      add\n        /* \"#utility.yul\":15752:15783   */\n      swap5\n      pop\n        /* \"#utility.yul\":15626:15630   */\n      0x20\n        /* \"#utility.yul\":15623:15624   */\n      dup2\n        /* \"#utility.yul\":15619:15631   */\n      add\n        /* \"#utility.yul\":15614:15631   */\n      swap1\n      pop\n        /* \"#utility.yul\":15589:15797   */\n      jump(tag_324)\n    tag_326:\n        /* \"#utility.yul\":15825:15831   */\n      dup7\n        /* \"#utility.yul\":15816:15823   */\n      dup4\n        /* \"#utility.yul\":15813:15832   */\n      lt\n        /* \"#utility.yul\":15810:15989   */\n      iszero\n      tag_327\n      jumpi\n        /* \"#utility.yul\":15883:15892   */\n      dup5\n        /* \"#utility.yul\":15878:15881   */\n      dup10\n        /* \"#utility.yul\":15874:15893   */\n      add\n        /* \"#utility.yul\":15868:15894   */\n      mload\n        /* \"#utility.yul\":15926:15974   */\n      tag_328\n        /* \"#utility.yul\":15968:15972   */\n      0x1f\n        /* \"#utility.yul\":15960:15966   */\n      dup10\n        /* \"#utility.yul\":15956:15973   */\n      and\n        /* \"#utility.yul\":15945:15954   */\n      dup3\n        /* \"#utility.yul\":15926:15974   */\n      tag_158\n      jump\t// in\n    tag_328:\n        /* \"#utility.yul\":15918:15924   */\n      dup4\n        /* \"#utility.yul\":15911:15975   */\n      sstore\n        /* \"#utility.yul\":15833:15989   */\n      pop\n        /* \"#utility.yul\":15810:15989   */\n    tag_327:\n        /* \"#utility.yul\":16035:16036   */\n      0x01\n        /* \"#utility.yul\":16031:16032   */\n      0x02\n        /* \"#utility.yul\":16023:16029   */\n      dup9\n        /* \"#utility.yul\":16019:16033   */\n      mul\n        /* \"#utility.yul\":16015:16037   */\n      add\n        /* \"#utility.yul\":16009:16013   */\n      dup9\n        /* \"#utility.yul\":16002:16038   */\n      sstore\n        /* \"#utility.yul\":15437:16048   */\n      pop\n      pop\n      pop\n        /* \"#utility.yul\":15400:16287   */\n    tag_319:\n      pop\n        /* \"#utility.yul\":14990:16293   */\n      pop\n      pop\n      pop\n        /* \"#utility.yul\":14898:16293   */\n      pop\n      pop\n      jump\t// out\n        /* \"#utility.yul\":16299:16479   */\n    tag_160:\n        /* \"#utility.yul\":16347:16424   */\n      0x4e487b7100000000000000000000000000000000000000000000000000000000\n        /* \"#utility.yul\":16344:16345   */\n      0x00\n        /* \"#utility.yul\":16337:16425   */\n      mstore\n        /* \"#utility.yul\":16444:16448   */\n      0x11\n        /* \"#utility.yul\":16441:16442   */\n      0x04\n        /* \"#utility.yul\":16434:16449   */\n      mstore\n        /* \"#utility.yul\":16468:16472   */\n      0x24\n        /* \"#utility.yul\":16465:16466   */\n      0x00\n        /* \"#utility.yul\":16458:16473   */\n      revert\n        /* \"#utility.yul\":16485:16676   */\n    tag_57:\n        /* \"#utility.yul\":16525:16528   */\n      0x00\n        /* \"#utility.yul\":16544:16564   */\n      tag_331\n        /* \"#utility.yul\":16562:16563   */\n      dup3\n        /* \"#utility.yul\":16544:16564   */\n      tag_117\n      jump\t// in\n    tag_331:\n        /* \"#utility.yul\":16539:16564   */\n      swap2\n      pop\n        /* \"#utility.yul\":16578:16598   */\n      tag_332\n        /* \"#utility.yul\":16596:16597   */\n      dup4\n        /* \"#utility.yul\":16578:16598   */\n      tag_117\n      jump\t// in\n    tag_332:\n        /* \"#utility.yul\":16573:16598   */\n      swap3\n      pop\n        /* \"#utility.yul\":16621:16622   */\n      dup3\n        /* \"#utility.yul\":16618:16619   */\n      dup3\n        /* \"#utility.yul\":16614:16623   */\n      add\n        /* \"#utility.yul\":16607:16623   */\n      swap1\n      pop\n        /* \"#utility.yul\":16642:16645   */\n      dup1\n        /* \"#utility.yul\":16639:16640   */\n      dup3\n        /* \"#utility.yul\":16636:16646   */\n      gt\n        /* \"#utility.yul\":16633:16669   */\n      iszero\n      tag_333\n      jumpi\n        /* \"#utility.yul\":16649:16667   */\n      tag_334\n      tag_160\n      jump\t// in\n    tag_334:\n        /* \"#utility.yul\":16633:16669   */\n    tag_333:\n        /* \"#utility.yul\":16485:16676   */\n      swap3\n      swap2\n      pop\n      pop\n      jump\t// out\n        /* \"#utility.yul\":16706:17537   */\n    tag_161:\n        /* \"#utility.yul\":16791:16794   */\n      0x00\n        /* \"#utility.yul\":16828:16833   */\n      dup2\n        /* \"#utility.yul\":16822:16834   */\n      sload\n        /* \"#utility.yul\":16857:16893   */\n      tag_336\n        /* \"#utility.yul\":16883:16892   */\n      dup2\n        /* \"#utility.yul\":16857:16893   */\n      tag_61\n      jump\t// in\n    tag_336:\n        /* \"#utility.yul\":16909:16980   */\n      tag_337\n        /* \"#utility.yul\":16973:16979   */\n      dup2\n        /* \"#utility.yul\":16968:16971   */\n      dup7\n        /* \"#utility.yul\":16909:16980   */\n      tag_132\n      jump\t// in\n    tag_337:\n        /* \"#utility.yul\":16902:16980   */\n      swap5\n      pop\n        /* \"#utility.yul\":17011:17012   */\n      0x01\n        /* \"#utility.yul\":17000:17009   */\n      dup3\n        /* \"#utility.yul\":16996:17013   */\n      and\n        /* \"#utility.yul\":17027:17028   */\n      0x00\n        /* \"#utility.yul\":17022:17186   */\n      dup2\n      eq\n      tag_339\n      jumpi\n        /* \"#utility.yul\":17200:17201   */\n      0x01\n        /* \"#utility.yul\":17195:17531   */\n      dup2\n      eq\n      tag_340\n      jumpi\n        /* \"#utility.yul\":16989:17531   */\n      jump(tag_338)\n        /* \"#utility.yul\":17022:17186   */\n    tag_339:\n        /* \"#utility.yul\":17106:17110   */\n      0xff\n        /* \"#utility.yul\":17102:17111   */\n      not\n        /* \"#utility.yul\":17091:17100   */\n      dup4\n        /* \"#utility.yul\":17087:17112   */\n      and\n        /* \"#utility.yul\":17082:17085   */\n      dup7\n        /* \"#utility.yul\":17075:17113   */\n      mstore\n        /* \"#utility.yul\":17166:17172   */\n      dup2\n        /* \"#utility.yul\":17159:17173   */\n      iszero\n        /* \"#utility.yul\":17152:17174   */\n      iszero\n        /* \"#utility.yul\":17146:17150   */\n      0x20\n        /* \"#utility.yul\":17142:17175   */\n      mul\n        /* \"#utility.yul\":17137:17140   */\n      dup7\n        /* \"#utility.yul\":17133:17176   */\n      add\n        /* \"#utility.yul\":17126:17176   */\n      swap4\n      pop\n        /* \"#utility.yul\":17022:17186   */\n      jump(tag_338)\n        /* \"#utility.yul\":17195:17531   */\n    tag_340:\n        /* \"#utility.yul\":17262:17300   */\n      tag_341\n        /* \"#utility.yul\":17294:17299   */\n      dup6\n        /* \"#utility.yul\":17262:17300   */\n      tag_145\n      jump\t// in\n    tag_341:\n        /* \"#utility.yul\":17322:17323   */\n      0x00\n        /* \"#utility.yul\":17336:17490   */\n    tag_342:\n        /* \"#utility.yul\":17350:17356   */\n      dup4\n        /* \"#utility.yul\":17347:17348   */\n      dup2\n        /* \"#utility.yul\":17344:17357   */\n      lt\n        /* \"#utility.yul\":17336:17490   */\n      iszero\n      tag_344\n      jumpi\n        /* \"#utility.yul\":17424:17431   */\n      dup2\n        /* \"#utility.yul\":17418:17432   */\n      sload\n        /* \"#utility.yul\":17414:17415   */\n      dup2\n        /* \"#utility.yul\":17409:17412   */\n      dup10\n        /* \"#utility.yul\":17405:17416   */\n      add\n        /* \"#utility.yul\":17398:17433   */\n      mstore\n        /* \"#utility.yul\":17474:17475   */\n      0x01\n        /* \"#utility.yul\":17465:17472   */\n      dup3\n        /* \"#utility.yul\":17461:17476   */\n      add\n        /* \"#utility.yul\":17450:17476   */\n      swap2\n      pop\n        /* \"#utility.yul\":17372:17376   */\n      0x20\n        /* \"#utility.yul\":17369:17370   */\n      dup2\n        /* \"#utility.yul\":17365:17377   */\n      add\n        /* \"#utility.yul\":17360:17377   */\n      swap1\n      pop\n        /* \"#utility.yul\":17336:17490   */\n      jump(tag_342)\n    tag_344:\n        /* \"#utility.yul\":17519:17520   */\n      dup1\n        /* \"#utility.yul\":17514:17517   */\n      dup9\n        /* \"#utility.yul\":17510:17521   */\n      add\n        /* \"#utility.yul\":17503:17521   */\n      swap6\n      pop\n        /* \"#utility.yul\":17202:17531   */\n      pop\n      pop\n        /* \"#utility.yul\":16989:17531   */\n    tag_338:\n      pop\n        /* \"#utility.yul\":16795:17537   */\n      pop\n      pop\n        /* \"#utility.yul\":16706:17537   */\n      swap3\n      swap2\n      pop\n      pop\n      jump\t// out\n        /* \"#utility.yul\":17543:17960   */\n    tag_59:\n        /* \"#utility.yul\":17681:17685   */\n      0x00\n        /* \"#utility.yul\":17719:17721   */\n      0x40\n        /* \"#utility.yul\":17708:17717   */\n      dup3\n        /* \"#utility.yul\":17704:17722   */\n      add\n        /* \"#utility.yul\":17696:17722   */\n      swap1\n      pop\n        /* \"#utility.yul\":17732:17803   */\n      tag_346\n        /* \"#utility.yul\":17800:17801   */\n      0x00\n        /* \"#utility.yul\":17789:17798   */\n      dup4\n        /* \"#utility.yul\":17785:17802   */\n      add\n        /* \"#utility.yul\":17776:17782   */\n      dup6\n        /* \"#utility.yul\":17732:17803   */\n      tag_130\n      jump\t// in\n    tag_346:\n        /* \"#utility.yul\":17850:17859   */\n      dup2\n        /* \"#utility.yul\":17844:17848   */\n      dup2\n        /* \"#utility.yul\":17840:17860   */\n      sub\n        /* \"#utility.yul\":17835:17837   */\n      0x20\n        /* \"#utility.yul\":17824:17833   */\n      dup4\n        /* \"#utility.yul\":17820:17838   */\n      add\n        /* \"#utility.yul\":17813:17861   */\n      mstore\n        /* \"#utility.yul\":17878:17953   */\n      tag_347\n        /* \"#utility.yul\":17948:17952   */\n      dup2\n        /* \"#utility.yul\":17939:17945   */\n      dup5\n        /* \"#utility.yul\":17878:17953   */\n      tag_161\n      jump\t// in\n    tag_347:\n        /* \"#utility.yul\":17870:17953   */\n      swap1\n      pop\n        /* \"#utility.yul\":17543:17960   */\n      swap4\n      swap3\n      pop\n      pop\n      pop\n      jump\t// out\n        /* \"#utility.yul\":17966:18191   */\n    tag_162:\n        /* \"#utility.yul\":18106:18140   */\n      0x4f6e6c7920746865206d616e616765722063616e206372656174652061207368\n        /* \"#utility.yul\":18102:18103   */\n      0x00\n        /* \"#utility.yul\":18094:18100   */\n      dup3\n        /* \"#utility.yul\":18090:18104   */\n      add\n        /* \"#utility.yul\":18083:18141   */\n      mstore\n        /* \"#utility.yul\":18175:18183   */\n      0x69706d656e740000000000000000000000000000000000000000000000000000\n        /* \"#utility.yul\":18170:18172   */\n      0x20\n        /* \"#utility.yul\":18162:18168   */\n      dup3\n        /* \"#utility.yul\":18158:18173   */\n      add\n        /* \"#utility.yul\":18151:18184   */\n      mstore\n        /* \"#utility.yul\":17966:18191   */\n      pop\n      jump\t// out\n        /* \"#utility.yul\":18197:18563   */\n    tag_163:\n        /* \"#utility.yul\":18339:18342   */\n      0x00\n        /* \"#utility.yul\":18360:18427   */\n      tag_350\n        /* \"#utility.yul\":18424:18426   */\n      0x26\n        /* \"#utility.yul\":18419:18422   */\n      dup4\n        /* \"#utility.yul\":18360:18427   */\n      tag_132\n      jump\t// in\n    tag_350:\n        /* \"#utility.yul\":18353:18427   */\n      swap2\n      pop\n        /* \"#utility.yul\":18436:18529   */\n      tag_351\n        /* \"#utility.yul\":18525:18528   */\n      dup3\n        /* \"#utility.yul\":18436:18529   */\n      tag_162\n      jump\t// in\n    tag_351:\n        /* \"#utility.yul\":18554:18556   */\n      0x40\n        /* \"#utility.yul\":18549:18552   */\n      dup3\n        /* \"#utility.yul\":18545:18557   */\n      add\n        /* \"#utility.yul\":18538:18557   */\n      swap1\n      pop\n        /* \"#utility.yul\":18197:18563   */\n      swap2\n      swap1\n      pop\n      jump\t// out\n        /* \"#utility.yul\":18569:18988   */\n    tag_79:\n        /* \"#utility.yul\":18735:18739   */\n      0x00\n        /* \"#utility.yul\":18773:18775   */\n      0x20\n        /* \"#utility.yul\":18762:18771   */\n      dup3\n        /* \"#utility.yul\":18758:18776   */\n      add\n        /* \"#utility.yul\":18750:18776   */\n      swap1\n      pop\n        /* \"#utility.yul\":18822:18831   */\n      dup2\n        /* \"#utility.yul\":18816:18820   */\n      dup2\n        /* \"#utility.yul\":18812:18832   */\n      sub\n        /* \"#utility.yul\":18808:18809   */\n      0x00\n        /* \"#utility.yul\":18797:18806   */\n      dup4\n        /* \"#utility.yul\":18793:18810   */\n      add\n        /* \"#utility.yul\":18786:18833   */\n      mstore\n        /* \"#utility.yul\":18850:18981   */\n      tag_353\n        /* \"#utility.yul\":18976:18980   */\n      dup2\n        /* \"#utility.yul\":18850:18981   */\n      tag_163\n      jump\t// in\n    tag_353:\n        /* \"#utility.yul\":18842:18981   */\n      swap1\n      pop\n        /* \"#utility.yul\":18569:18988   */\n      swap2\n      swap1\n      pop\n      jump\t// out\n        /* \"#utility.yul\":18994:19227   */\n    tag_81:\n        /* \"#utility.yul\":19033:19036   */\n      0x00\n        /* \"#utility.yul\":19056:19080   */\n      tag_355\n        /* \"#utility.yul\":19074:19079   */\n      dup3\n        /* \"#utility.yul\":19056:19080   */\n      tag_117\n      jump\t// in\n    tag_355:\n        /* \"#utility.yul\":19047:19080   */\n      swap2\n      pop\n        /* \"#utility.yul\":19102:19168   */\n      0xffffffffffffffffffffffffffffffffffffffffffffffffffffffffffffffff\n        /* \"#utility.yul\":19095:19100   */\n      dup3\n        /* \"#utility.yul\":19092:19169   */\n      sub\n        /* \"#utility.yul\":19089:19192   */\n      tag_356\n      jumpi\n        /* \"#utility.yul\":19172:19190   */\n      tag_357\n      tag_160\n      jump\t// in\n    tag_357:\n        /* \"#utility.yul\":19089:19192   */\n    tag_356:\n        /* \"#utility.yul\":19219:19220   */\n      0x01\n        /* \"#utility.yul\":19212:19217   */\n      dup3\n        /* \"#utility.yul\":19208:19221   */\n      add\n        /* \"#utility.yul\":19201:19221   */\n      swap1\n      pop\n        /* \"#utility.yul\":18994:19227   */\n      swap2\n      swap1\n      pop\n      jump\t// out\n        /* \"#utility.yul\":19233:19386   */\n    tag_164:\n        /* \"#utility.yul\":19286:19292   */\n      0x00\n        /* \"#utility.yul\":19320:19325   */\n      dup2\n        /* \"#utility.yul\":19314:19326   */\n      sload\n        /* \"#utility.yul\":19304:19326   */\n      swap1\n      pop\n        /* \"#utility.yul\":19346:19379   */\n      tag_359\n        /* \"#utility.yul\":19372:19378   */\n      dup2\n        /* \"#utility.yul\":19346:19379   */\n      tag_61\n      jump\t// in\n    tag_359:\n        /* \"#utility.yul\":19336:19379   */\n      swap1\n      pop\n        /* \"#utility.yul\":19233:19386   */\n      swap2\n      swap1\n      pop\n      jump\t// out\n        /* \"#utility.yul\":19392:19537   */\n    tag_165:\n        /* \"#utility.yul\":19445:19449   */\n      0x00\n        /* \"#utility.yul\":19468:19471   */\n      dup2\n        /* \"#utility.yul\":19460:19471   */\n      swap1\n      pop\n        /* \"#utility.yul\":19491:19494   */\n      dup2\n        /* \"#utility.yul\":19488:19489   */\n      0x00\n        /* \"#utility.yul\":19481:19495   */\n      mstore\n        /* \"#utility.yul\":19525:19529   */\n      0x20\n        /* \"#utility.yul\":19522:19523   */\n      0x00\n        /* \"#utility.yul\":19512:19530   */\n      keccak256\n        /* \"#utility.yul\":19504:19530   */\n      swap1\n      pop\n        /* \"#utility.yul\":19392:19537   */\n      swap2\n      swap1\n      pop\n      jump\t// out\n        /* \"#utility.yul\":19543:21006   */\n    tag_92:\n        /* \"#utility.yul\":19658:19661   */\n      dup2\n        /* \"#utility.yul\":19652:19656   */\n      dup2\n        /* \"#utility.yul\":19649:19662   */\n      sub\n        /* \"#utility.yul\":19646:19672   */\n      tag_362\n      jumpi\n        /* \"#utility.yul\":19665:19670   */\n      pop\n      pop\n      jump(tag_361)\n        /* \"#utility.yul\":19646:19672   */\n    tag_362:\n        /* \"#utility.yul\":19696:19734   */\n      tag_363\n        /* \"#utility.yul\":19730:19733   */\n      dup3\n        /* \"#utility.yul\":19696:19734   */\n      tag_164\n      jump\t// in\n    tag_363:\n        /* \"#utility.yul\":19799:19817   */\n      0xffffffffffffffff\n        /* \"#utility.yul\":19791:19797   */\n      dup2\n        /* \"#utility.yul\":19788:19818   */\n      gt\n        /* \"#utility.yul\":19785:19841   */\n      iszero\n      tag_364\n      jumpi\n        /* \"#utility.yul\":19821:19839   */\n      tag_365\n      tag_123\n      jump\t// in\n    tag_365:\n        /* \"#utility.yul\":19785:19841   */\n    tag_364:\n        /* \"#utility.yul\":19865:19903   */\n      tag_366\n        /* \"#utility.yul\":19897:19901   */\n      dup3\n        /* \"#utility.yul\":19891:19902   */\n      sload\n        /* \"#utility.yul\":19865:19903   */\n      tag_61\n      jump\t// in\n    tag_366:\n        /* \"#utility.yul\":19950:20017   */\n      tag_367\n        /* \"#utility.yul\":20010:20016   */\n      dup3\n        /* \"#utility.yul\":20002:20008   */\n      dup3\n        /* \"#utility.yul\":19996:20000   */\n      dup6\n        /* \"#utility.yul\":19950:20017   */\n      tag_156\n      jump\t// in\n    tag_367:\n        /* \"#utility.yul\":20044:20045   */\n      0x00\n        /* \"#utility.yul\":20073:20075   */\n      0x1f\n        /* \"#utility.yul\":20065:20071   */\n      dup4\n        /* \"#utility.yul\":20062:20076   */\n      gt\n        /* \"#utility.yul\":20090:20091   */\n      0x01\n        /* \"#utility.yul\":20085:20761   */\n      dup2\n      eq\n      tag_369\n      jumpi\n        /* \"#utility.yul\":20805:20806   */\n      0x00\n        /* \"#utility.yul\":20822:20828   */\n      dup5\n        /* \"#utility.yul\":20819:20896   */\n      iszero\n      tag_370\n      jumpi\n        /* \"#utility.yul\":20871:20880   */\n      dup3\n        /* \"#utility.yul\":20866:20869   */\n      dup8\n        /* \"#utility.yul\":20862:20881   */\n      add\n        /* \"#utility.yul\":20856:20882   */\n      sload\n        /* \"#utility.yul\":20847:20882   */\n      swap1\n      pop\n        /* \"#utility.yul\":20819:20896   */\n    tag_370:\n        /* \"#utility.yul\":20922:20989   */\n      tag_371\n        /* \"#utility.yul\":20982:20988   */\n      dup6\n        /* \"#utility.yul\":20975:20980   */\n      dup3\n        /* \"#utility.yul\":20922:20989   */\n      tag_159\n      jump\t// in\n    tag_371:\n        /* \"#utility.yul\":20916:20920   */\n      dup7\n        /* \"#utility.yul\":20909:20990   */\n      sstore\n        /* \"#utility.yul\":20778:21000   */\n      pop\n        /* \"#utility.yul\":20055:21000   */\n      jump(tag_368)\n        /* \"#utility.yul\":20085:20761   */\n    tag_369:\n        /* \"#utility.yul\":20137:20141   */\n      0x1f\n        /* \"#utility.yul\":20133:20142   */\n      not\n        /* \"#utility.yul\":20125:20131   */\n      dup5\n        /* \"#utility.yul\":20121:20143   */\n      and\n        /* \"#utility.yul\":20163:20203   */\n      tag_372\n        /* \"#utility.yul\":20199:20202   */\n      dup8\n        /* \"#utility.yul\":20163:20203   */\n      tag_165\n      jump\t// in\n    tag_372:\n        /* \"#utility.yul\":20156:20203   */\n      swap7\n      pop\n        /* \"#utility.yul\":20230:20267   */\n      tag_373\n        /* \"#utility.yul\":20262:20266   */\n      dup7\n        /* \"#utility.yul\":20230:20267   */\n      tag_145\n      jump\t// in\n    tag_373:\n        /* \"#utility.yul\":20289:20290   */\n      0x00\n        /* \"#utility.yul\":20303:20510   */\n    tag_374:\n        /* \"#utility.yul\":20317:20324   */\n      dup3\n        /* \"#utility.yul\":20314:20315   */\n      dup2\n        /* \"#utility.yul\":20311:20325   */\n      lt\n        /* \"#utility.yul\":20303:20510   */\n      iszero\n      tag_376\n      jumpi\n        /* \"#utility.yul\":20396:20405   */\n      dup5\n        /* \"#utility.yul\":20391:20394   */\n      dup10\n        /* \"#utility.yul\":20387:20406   */\n      add\n        /* \"#utility.yul\":20381:20407   */\n      sload\n        /* \"#utility.yul\":20373:20379   */\n      dup3\n        /* \"#utility.yul\":20366:20408   */\n      sstore\n        /* \"#utility.yul\":20447:20448   */\n      0x01\n        /* \"#utility.yul\":20439:20445   */\n      dup3\n        /* \"#utility.yul\":20435:20449   */\n      add\n        /* \"#utility.yul\":20425:20449   */\n      swap2\n      pop\n        /* \"#utility.yul\":20494:20495   */\n      0x01\n        /* \"#utility.yul\":20483:20492   */\n      dup6\n        /* \"#utility.yul\":20479:20496   */\n      add\n        /* \"#utility.yul\":20466:20496   */\n      swap5\n      pop\n        /* \"#utility.yul\":20340:20344   */\n      0x20\n        /* \"#utility.yul\":20337:20338   */\n      dup2\n        /* \"#utility.yul\":20333:20345   */\n      add\n        /* \"#utility.yul\":20328:20345   */\n      swap1\n      pop\n        /* \"#utility.yul\":20303:20510   */\n      jump(tag_374)\n    tag_376:\n        /* \"#utility.yul\":20538:20544   */\n      dup7\n        /* \"#utility.yul\":20529:20536   */\n      dup4\n        /* \"#utility.yul\":20526:20545   */\n      lt\n        /* \"#utility.yul\":20523:20702   */\n      iszero\n      tag_377\n      jumpi\n        /* \"#utility.yul\":20596:20605   */\n      dup5\n        /* \"#utility.yul\":20591:20594   */\n      dup10\n        /* \"#utility.yul\":20587:20606   */\n      add\n        /* \"#utility.yul\":20581:20607   */\n      sload\n        /* \"#utility.yul\":20639:20687   */\n      tag_378\n        /* \"#utility.yul\":20681:20685   */\n      0x1f\n        /* \"#utility.yul\":20673:20679   */\n      dup10\n        /* \"#utility.yul\":20669:20686   */\n      and\n        /* \"#utility.yul\":20658:20667   */\n      dup3\n        /* \"#utility.yul\":20639:20687   */\n      tag_158\n      jump\t// in\n    tag_378:\n        /* \"#utility.yul\":20631:20637   */\n      dup4\n        /* \"#utility.yul\":20624:20688   */\n      sstore\n        /* \"#utility.yul\":20546:20702   */\n      pop\n        /* \"#utility.yul\":20523:20702   */\n    tag_377:\n        /* \"#utility.yul\":20748:20749   */\n      0x01\n        /* \"#utility.yul\":20744:20745   */\n      0x02\n        /* \"#utility.yul\":20736:20742   */\n      dup9\n        /* \"#utility.yul\":20732:20746   */\n      mul\n        /* \"#utility.yul\":20728:20750   */\n      add\n        /* \"#utility.yul\":20722:20726   */\n      dup9\n        /* \"#utility.yul\":20715:20751   */\n      sstore\n        /* \"#utility.yul\":20092:20761   */\n      pop\n      pop\n      pop\n        /* \"#utility.yul\":20055:21000   */\n    tag_368:\n      pop\n        /* \"#utility.yul\":19636:21006   */\n      pop\n      pop\n      pop\n        /* \"#utility.yul\":19543:21006   */\n      pop\n      pop\n    tag_361:\n      jump\t// out\n\n    auxdata: 0xa2646970667358221220cbb95c223987a1510497438cd7fd3b1a1f09dce88d81d0bf443c9bf24955321664736f6c634300081a0033\n}\n",
				"bytecode": {
					"linkReferences": {},
					"object": "6080604052348015600e575f80fd5b50335f806101000a81548173ffffffffffffffffffffffffffffffffffffffff021916908373ffffffffffffffffffffffffffffffffffffffff1602179055505f600181905550611574806100625f395ff3fe608060405234801561000f575f80fd5b506004361061007b575f3560e01c8063481c6a7511610059578063481c6a75146100ff578063564d1b0a1461011d578063693d70aa14610139578063aace20b71461016c5761007b565b8063249e702c1461007f5780632ac08a931461009b5780633def2b52146100cf575b5f80fd5b61009960048036038101906100949190610b56565b61018a565b005b6100b560048036038101906100b09190610bc2565b61033a565b6040516100c6959493929190610c5c565b60405180910390f35b6100e960048036038101906100e49190610cc2565b6104fe565b6040516100f69190610d38565b60405180910390f35b610107610651565b6040516101149190610d90565b60405180910390f35b61013760048036038101906101329190610bc2565b610674565b005b610153600480360381019061014e9190610bc2565b610774565b6040516101639493929190610da9565b60405180910390f35b6101746109d0565b6040516101819190610d38565b60405180910390f35b5f8054906101000a900473ffffffffffffffffffffffffffffffffffffffff1673ffffffffffffffffffffffffffffffffffffffff163373ffffffffffffffffffffffffffffffffffffffff1614610217576040517f08c379a000000000000000000000000000000000000000000000000000000000815260040161020e90610e71565b60405180910390fd5b5f8311801561022857506001548311155b610267576040517f08c379a000000000000000000000000000000000000000000000000000000000815260040161025e90610ed9565b60405180910390fd5b5f60149050600f811015801561027e575060198111155b6102bd576040517f08c379a00000000000000000000000000000000000000000000000000000000081526004016102b490610f67565b60405180910390fd5b5f60025f8681526020019081526020015f209050828160030190816102e2919061117f565b5083426102ef919061127b565b81600401819055507f65edc79681b60dda53ce45315418e2d9637c424299784fc6aaf815fa304dda2b858260020160405161032b92919061132f565b60405180910390a15050505050565b6002602052805f5260405f205f91509050805f01549080600101805461035f90610fb2565b80601f016020809104026020016040519081016040528092919081815260200182805461038b90610fb2565b80156103d65780601f106103ad576101008083540402835291602001916103d6565b820191905f5260205f20905b8154815290600101906020018083116103b957829003601f168201915b5050505050908060020180546103eb90610fb2565b80601f016020809104026020016040519081016040528092919081815260200182805461041790610fb2565b80156104625780601f1061043957610100808354040283529160200191610462565b820191905f5260205f20905b81548152906001019060200180831161044557829003601f168201915b50505050509080600301805461047790610fb2565b80601f01602080910402602001604051908101604052809291908181526020018280546104a390610fb2565b80156104ee5780601f106104c5576101008083540402835291602001916104ee565b820191905f5260205f20905b8154815290600101906020018083116104d157829003601f168201915b5050505050908060040154905085565b5f805f9054906101000a900473ffffffffffffffffffffffffffffffffffffffff1673ffffffffffffffffffffffffffffffffffffffff163373ffffffffffffffffffffffffffffffffffffffff161461058d576040517f08c379a0000000000000000000000000000000000000000000000000000000008152600401610584906113cd565b60405180910390fd5b60015f81548092919061059f906113eb565b91905055505f60015490506040518060a0016040528082815260200185815260200184815260200160405180602001604052805f81525081526020015f81525060025f8381526020019081526020015f205f820151815f0155602082015181600101908161060d919061117f565b506040820151816002019081610623919061117f565b506060820151816003019081610639919061117f565b50608082015181600401559050508091505092915050565b5f8054906101000a900473ffffffffffffffffffffffffffffffffffffffff1681565b5f8111801561068557506001548111155b6106c4576040517f08c379a00000000000000000000000000000000000000000000000000000000081526004016106bb90610ed9565b60405180910390fd5b5f60025f8381526020019081526020015f209050806004015442101580156106f057505f816004015414155b1561077057806003018160020190816107099190611459565b5060405180602001604052805f815250816003019081610729919061117f565b505f81600401819055507f65edc79681b60dda53ce45315418e2d9637c424299784fc6aaf815fa304dda2b828260020160405161076792919061132f565b60405180910390a15b5050565b60608060605f808511801561078b57506001548511155b6107ca576040517f08c379a00000000000000000000000000000000000000000000000000000000081526004016107c190610ed9565b60405180910390fd5b5f60025f8781526020019081526020015f206040518060a00160405290815f820154815260200160018201805461080090610fb2565b80601f016020809104026020016040519081016040528092919081815260200182805461082c90610fb2565b80156108775780601f1061084e57610100808354040283529160200191610877565b820191905f5260205f20905b81548152906001019060200180831161085a57829003601f168201915b5050505050815260200160028201805461089090610fb2565b80601f01602080910402602001604051908101604052809291908181526020018280546108bc90610fb2565b80156109075780601f106108de57610100808354040283529160200191610907565b820191905f5260205f20905b8154815290600101906020018083116108ea57829003601f168201915b5050505050815260200160038201805461092090610fb2565b80601f016020809104026020016040519081016040528092919081815260200182805461094c90610fb2565b80156109975780601f1061096e57610100808354040283529160200191610997565b820191905f5260205f20905b81548152906001019060200180831161097a57829003601f168201915b50505050508152602001600482015481525050905080602001518160400151826060015183608001519450945094509450509193509193565b60015481565b5f604051905090565b5f80fd5b5f80fd5b5f819050919050565b6109f9816109e7565b8114610a03575f80fd5b50565b5f81359050610a14816109f0565b92915050565b5f80fd5b5f80fd5b5f601f19601f8301169050919050565b7f4e487b71000000000000000000000000000000000000000000000000000000005f52604160045260245ffd5b610a6882610a22565b810181811067ffffffffffffffff82111715610a8757610a86610a32565b5b80604052505050565b5f610a996109d6565b9050610aa58282610a5f565b919050565b5f67ffffffffffffffff821115610ac457610ac3610a32565b5b610acd82610a22565b9050602081019050919050565b828183375f83830152505050565b5f610afa610af584610aaa565b610a90565b905082815260208101848484011115610b1657610b15610a1e565b5b610b21848285610ada565b509392505050565b5f82601f830112610b3d57610b3c610a1a565b5b8135610b4d848260208601610ae8565b91505092915050565b5f805f60608486031215610b6d57610b6c6109df565b5b5f610b7a86828701610a06565b9350506020610b8b86828701610a06565b925050604084013567ffffffffffffffff811115610bac57610bab6109e3565b5b610bb886828701610b29565b9150509250925092565b5f60208284031215610bd757610bd66109df565b5b5f610be484828501610a06565b91505092915050565b610bf6816109e7565b82525050565b5f81519050919050565b5f82825260208201905092915050565b8281835e5f83830152505050565b5f610c2e82610bfc565b610c388185610c06565b9350610c48818560208601610c16565b610c5181610a22565b840191505092915050565b5f60a082019050610c6f5f830188610bed565b8181036020830152610c818187610c24565b90508181036040830152610c958186610c24565b90508181036060830152610ca98185610c24565b9050610cb86080830184610bed565b9695505050505050565b5f8060408385031215610cd857610cd76109df565b5b5f83013567ffffffffffffffff811115610cf557610cf46109e3565b5b610d0185828601610b29565b925050602083013567ffffffffffffffff811115610d2257610d216109e3565b5b610d2e85828601610b29565b9150509250929050565b5f602082019050610d4b5f830184610bed565b92915050565b5f73ffffffffffffffffffffffffffffffffffffffff82169050919050565b5f610d7a82610d51565b9050919050565b610d8a81610d70565b82525050565b5f602082019050610da35f830184610d81565b92915050565b5f6080820190508181035f830152610dc18187610c24565b90508181036020830152610dd58186610c24565b90508181036040830152610de98185610c24565b9050610df86060830184610bed565b95945050505050565b7f4f6e6c7920746865206d616e616765722063616e206d6f7665207468652073685f8201527f69706d656e740000000000000000000000000000000000000000000000000000602082015250565b5f610e5b602683610c06565b9150610e6682610e01565b604082019050919050565b5f6020820190508181035f830152610e8881610e4f565b9050919050565b7f536869706d656e7420494420697320696e76616c6964000000000000000000005f82015250565b5f610ec3601683610c06565b9150610ece82610e8f565b602082019050919050565b5f6020820190508181035f830152610ef081610eb7565b9050919050565b7f54656d7065726174757265206973206e6f74207375697461626c6520666f72205f8201527f6465706172747572650000000000000000000000000000000000000000000000602082015250565b5f610f51602983610c06565b9150610f5c82610ef7565b604082019050919050565b5f6020820190508181035f830152610f7e81610f45565b9050919050565b7f4e487b71000000000000000000000000000000000000000000000000000000005f52602260045260245ffd5b5f6002820490506001821680610fc957607f821691505b602082108103610fdc57610fdb610f85565b5b50919050565b5f819050815f5260205f209050919050565b5f6020601f8301049050919050565b5f82821b905092915050565b5f6008830261103e7fffffffffffffffffffffffffffffffffffffffffffffffffffffffffffffffff82611003565b6110488683611003565b95508019841693508086168417925050509392505050565b5f819050919050565b5f61108361107e611079846109e7565b611060565b6109e7565b9050919050565b5f819050919050565b61109c83611069565b6110b06110a88261108a565b84845461100f565b825550505050565b5f90565b6110c46110b8565b6110cf818484611093565b505050565b5b818110156110f2576110e75f826110bc565b6001810190506110d5565b5050565b601f8211156111375761110881610fe2565b61111184610ff4565b81016020851015611120578190505b61113461112c85610ff4565b8301826110d4565b50505b505050565b5f82821c905092915050565b5f6111575f198460080261113c565b1980831691505092915050565b5f61116f8383611148565b9150826002028217905092915050565b61118882610bfc565b67ffffffffffffffff8111156111a1576111a0610a32565b5b6111ab8254610fb2565b6111b68282856110f6565b5f60209050601f8311600181146111e7575f84156111d5578287015190505b6111df8582611164565b865550611246565b601f1984166111f586610fe2565b5f5b8281101561121c578489015182556001820191506020850194506020810190506111f7565b868310156112395784890151611235601f891682611148565b8355505b6001600288020188555050505b505050505050565b7f4e487b71000000000000000000000000000000000000000000000000000000005f52601160045260245ffd5b5f611285826109e7565b9150611290836109e7565b92508282019050808211156112a8576112a761124e565b5b92915050565b5f81546112ba81610fb2565b6112c48186610c06565b9450600182165f81146112de57600181146112f457611326565b60ff198316865281151560200286019350611326565b6112fd85610fe2565b5f5b8381101561131e578154818901526001820191506020810190506112ff565b808801955050505b50505092915050565b5f6040820190506113425f830185610bed565b818103602083015261135481846112ae565b90509392505050565b7f4f6e6c7920746865206d616e616765722063616e2063726561746520612073685f8201527f69706d656e740000000000000000000000000000000000000000000000000000602082015250565b5f6113b7602683610c06565b91506113c28261135d565b604082019050919050565b5f6020820190508181035f8301526113e4816113ab565b9050919050565b5f6113f5826109e7565b91507fffffffffffffffffffffffffffffffffffffffffffffffffffffffffffffffff82036114275761142661124e565b5b600182019050919050565b5f8154905061144081610fb2565b9050919050565b5f819050815f5260205f209050919050565b81810361146757505061153c565b61147082611432565b67ffffffffffffffff81111561148957611488610a32565b5b6114938254610fb2565b61149e8282856110f6565b5f601f8311600181146114cb575f84156114b9578287015490505b6114c38582611164565b865550611535565b601f1984166114d987611447565b96506114e486610fe2565b5f5b8281101561150b578489015482556001820191506001850194506020810190506114e6565b868310156115285784890154611524601f891682611148565b8355505b6001600288020188555050505b5050505050505b56fea2646970667358221220cbb95c223987a1510497438cd7fd3b1a1f09dce88d81d0bf443c9bf24955321664736f6c634300081a0033",
					"opcodes": "PUSH1 0x80 PUSH1 0x40 MSTORE CALLVALUE DUP1 ISZERO PUSH1 0xE JUMPI PUSH0 DUP1 REVERT JUMPDEST POP CALLER PUSH0 DUP1 PUSH2 0x100 EXP DUP2 SLOAD DUP2 PUSH20 0xFFFFFFFFFFFFFFFFFFFFFFFFFFFFFFFFFFFFFFFF MUL NOT AND SWAP1 DUP4 PUSH20 0xFFFFFFFFFFFFFFFFFFFFFFFFFFFFFFFFFFFFFFFF AND MUL OR SWAP1 SSTORE POP PUSH0 PUSH1 0x1 DUP2 SWAP1 SSTORE POP PUSH2 0x1574 DUP1 PUSH2 0x62 PUSH0 CODECOPY PUSH0 RETURN INVALID PUSH1 0x80 PUSH1 0x40 MSTORE CALLVALUE DUP1 ISZERO PUSH2 0xF JUMPI PUSH0 DUP1 REVERT JUMPDEST POP PUSH1 0x4 CALLDATASIZE LT PUSH2 0x7B JUMPI PUSH0 CALLDATALOAD PUSH1 0xE0 SHR DUP1 PUSH4 0x481C6A75 GT PUSH2 0x59 JUMPI DUP1 PUSH4 0x481C6A75 EQ PUSH2 0xFF JUMPI DUP1 PUSH4 0x564D1B0A EQ PUSH2 0x11D JUMPI DUP1 PUSH4 0x693D70AA EQ PUSH2 0x139 JUMPI DUP1 PUSH4 0xAACE20B7 EQ PUSH2 0x16C JUMPI PUSH2 0x7B JUMP JUMPDEST DUP1 PUSH4 0x249E702C EQ PUSH2 0x7F JUMPI DUP1 PUSH4 0x2AC08A93 EQ PUSH2 0x9B JUMPI DUP1 PUSH4 0x3DEF2B52 EQ PUSH2 0xCF JUMPI JUMPDEST PUSH0 DUP1 REVERT JUMPDEST PUSH2 0x99 PUSH1 0x4 DUP1 CALLDATASIZE SUB DUP2 ADD SWAP1 PUSH2 0x94 SWAP2 SWAP1 PUSH2 0xB56 JUMP JUMPDEST PUSH2 0x18A JUMP JUMPDEST STOP JUMPDEST PUSH2 0xB5 PUSH1 0x4 DUP1 CALLDATASIZE SUB DUP2 ADD SWAP1 PUSH2 0xB0 SWAP2 SWAP1 PUSH2 0xBC2 JUMP JUMPDEST PUSH2 0x33A JUMP JUMPDEST PUSH1 0x40 MLOAD PUSH2 0xC6 SWAP6 SWAP5 SWAP4 SWAP3 SWAP2 SWAP1 PUSH2 0xC5C JUMP JUMPDEST PUSH1 0x40 MLOAD DUP1 SWAP2 SUB SWAP1 RETURN JUMPDEST PUSH2 0xE9 PUSH1 0x4 DUP1 CALLDATASIZE SUB DUP2 ADD SWAP1 PUSH2 0xE4 SWAP2 SWAP1 PUSH2 0xCC2 JUMP JUMPDEST PUSH2 0x4FE JUMP JUMPDEST PUSH1 0x40 MLOAD PUSH2 0xF6 SWAP2 SWAP1 PUSH2 0xD38 JUMP JUMPDEST PUSH1 0x40 MLOAD DUP1 SWAP2 SUB SWAP1 RETURN JUMPDEST PUSH2 0x107 PUSH2 0x651 JUMP JUMPDEST PUSH1 0x40 MLOAD PUSH2 0x114 SWAP2 SWAP1 PUSH2 0xD90 JUMP JUMPDEST PUSH1 0x40 MLOAD DUP1 SWAP2 SUB SWAP1 RETURN JUMPDEST PUSH2 0x137 PUSH1 0x4 DUP1 CALLDATASIZE SUB DUP2 ADD SWAP1 PUSH2 0x132 SWAP2 SWAP1 PUSH2 0xBC2 JUMP JUMPDEST PUSH2 0x674 JUMP JUMPDEST STOP JUMPDEST PUSH2 0x153 PUSH1 0x4 DUP1 CALLDATASIZE SUB DUP2 ADD SWAP1 PUSH2 0x14E SWAP2 SWAP1 PUSH2 0xBC2 JUMP JUMPDEST PUSH2 0x774 JUMP JUMPDEST PUSH1 0x40 MLOAD PUSH2 0x163 SWAP5 SWAP4 SWAP3 SWAP2 SWAP1 PUSH2 0xDA9 JUMP JUMPDEST PUSH1 0x40 MLOAD DUP1 SWAP2 SUB SWAP1 RETURN JUMPDEST PUSH2 0x174 PUSH2 0x9D0 JUMP JUMPDEST PUSH1 0x40 MLOAD PUSH2 0x181 SWAP2 SWAP1 PUSH2 0xD38 JUMP JUMPDEST PUSH1 0x40 MLOAD DUP1 SWAP2 SUB SWAP1 RETURN JUMPDEST PUSH0 DUP1 SLOAD SWAP1 PUSH2 0x100 EXP SWAP1 DIV PUSH20 0xFFFFFFFFFFFFFFFFFFFFFFFFFFFFFFFFFFFFFFFF AND PUSH20 0xFFFFFFFFFFFFFFFFFFFFFFFFFFFFFFFFFFFFFFFF AND CALLER PUSH20 0xFFFFFFFFFFFFFFFFFFFFFFFFFFFFFFFFFFFFFFFF AND EQ PUSH2 0x217 JUMPI PUSH1 0x40 MLOAD PUSH32 0x8C379A000000000000000000000000000000000000000000000000000000000 DUP2 MSTORE PUSH1 0x4 ADD PUSH2 0x20E SWAP1 PUSH2 0xE71 JUMP JUMPDEST PUSH1 0x40 MLOAD DUP1 SWAP2 SUB SWAP1 REVERT JUMPDEST PUSH0 DUP4 GT DUP1 ISZERO PUSH2 0x228 JUMPI POP PUSH1 0x1 SLOAD DUP4 GT ISZERO JUMPDEST PUSH2 0x267 JUMPI PUSH1 0x40 MLOAD PUSH32 0x8C379A000000000000000000000000000000000000000000000000000000000 DUP2 MSTORE PUSH1 0x4 ADD PUSH2 0x25E SWAP1 PUSH2 0xED9 JUMP JUMPDEST PUSH1 0x40 MLOAD DUP1 SWAP2 SUB SWAP1 REVERT JUMPDEST PUSH0 PUSH1 0x14 SWAP1 POP PUSH1 0xF DUP2 LT ISZERO DUP1 ISZERO PUSH2 0x27E JUMPI POP PUSH1 0x19 DUP2 GT ISZERO JUMPDEST PUSH2 0x2BD JUMPI PUSH1 0x40 MLOAD PUSH32 0x8C379A000000000000000000000000000000000000000000000000000000000 DUP2 MSTORE PUSH1 0x4 ADD PUSH2 0x2B4 SWAP1 PUSH2 0xF67 JUMP JUMPDEST PUSH1 0x40 MLOAD DUP1 SWAP2 SUB SWAP1 REVERT JUMPDEST PUSH0 PUSH1 0x2 PUSH0 DUP7 DUP2 MSTORE PUSH1 0x20 ADD SWAP1 DUP2 MSTORE PUSH1 0x20 ADD PUSH0 KECCAK256 SWAP1 POP DUP3 DUP2 PUSH1 0x3 ADD SWAP1 DUP2 PUSH2 0x2E2 SWAP2 SWAP1 PUSH2 0x117F JUMP JUMPDEST POP DUP4 TIMESTAMP PUSH2 0x2EF SWAP2 SWAP1 PUSH2 0x127B JUMP JUMPDEST DUP2 PUSH1 0x4 ADD DUP2 SWAP1 SSTORE POP PUSH32 0x65EDC79681B60DDA53CE45315418E2D9637C424299784FC6AAF815FA304DDA2B DUP6 DUP3 PUSH1 0x2 ADD PUSH1 0x40 MLOAD PUSH2 0x32B SWAP3 SWAP2 SWAP1 PUSH2 0x132F JUMP JUMPDEST PUSH1 0x40 MLOAD DUP1 SWAP2 SUB SWAP1 LOG1 POP POP POP POP POP JUMP JUMPDEST PUSH1 0x2 PUSH1 0x20 MSTORE DUP1 PUSH0 MSTORE PUSH1 0x40 PUSH0 KECCAK256 PUSH0 SWAP2 POP SWAP1 POP DUP1 PUSH0 ADD SLOAD SWAP1 DUP1 PUSH1 0x1 ADD DUP1 SLOAD PUSH2 0x35F SWAP1 PUSH2 0xFB2 JUMP JUMPDEST DUP1 PUSH1 0x1F ADD PUSH1 0x20 DUP1 SWAP2 DIV MUL PUSH1 0x20 ADD PUSH1 0x40 MLOAD SWAP1 DUP2 ADD PUSH1 0x40 MSTORE DUP1 SWAP3 SWAP2 SWAP1 DUP2 DUP2 MSTORE PUSH1 0x20 ADD DUP3 DUP1 SLOAD PUSH2 0x38B SWAP1 PUSH2 0xFB2 JUMP JUMPDEST DUP1 ISZERO PUSH2 0x3D6 JUMPI DUP1 PUSH1 0x1F LT PUSH2 0x3AD JUMPI PUSH2 0x100 DUP1 DUP4 SLOAD DIV MUL DUP4 MSTORE SWAP2 PUSH1 0x20 ADD SWAP2 PUSH2 0x3D6 JUMP JUMPDEST DUP3 ADD SWAP2 SWAP1 PUSH0 MSTORE PUSH1 0x20 PUSH0 KECCAK256 SWAP1 JUMPDEST DUP2 SLOAD DUP2 MSTORE SWAP1 PUSH1 0x1 ADD SWAP1 PUSH1 0x20 ADD DUP1 DUP4 GT PUSH2 0x3B9 JUMPI DUP3 SWAP1 SUB PUSH1 0x1F AND DUP3 ADD SWAP2 JUMPDEST POP POP POP POP POP SWAP1 DUP1 PUSH1 0x2 ADD DUP1 SLOAD PUSH2 0x3EB SWAP1 PUSH2 0xFB2 JUMP JUMPDEST DUP1 PUSH1 0x1F ADD PUSH1 0x20 DUP1 SWAP2 DIV MUL PUSH1 0x20 ADD PUSH1 0x40 MLOAD SWAP1 DUP2 ADD PUSH1 0x40 MSTORE DUP1 SWAP3 SWAP2 SWAP1 DUP2 DUP2 MSTORE PUSH1 0x20 ADD DUP3 DUP1 SLOAD PUSH2 0x417 SWAP1 PUSH2 0xFB2 JUMP JUMPDEST DUP1 ISZERO PUSH2 0x462 JUMPI DUP1 PUSH1 0x1F LT PUSH2 0x439 JUMPI PUSH2 0x100 DUP1 DUP4 SLOAD DIV MUL DUP4 MSTORE SWAP2 PUSH1 0x20 ADD SWAP2 PUSH2 0x462 JUMP JUMPDEST DUP3 ADD SWAP2 SWAP1 PUSH0 MSTORE PUSH1 0x20 PUSH0 KECCAK256 SWAP1 JUMPDEST DUP2 SLOAD DUP2 MSTORE SWAP1 PUSH1 0x1 ADD SWAP1 PUSH1 0x20 ADD DUP1 DUP4 GT PUSH2 0x445 JUMPI DUP3 SWAP1 SUB PUSH1 0x1F AND DUP3 ADD SWAP2 JUMPDEST POP POP POP POP POP SWAP1 DUP1 PUSH1 0x3 ADD DUP1 SLOAD PUSH2 0x477 SWAP1 PUSH2 0xFB2 JUMP JUMPDEST DUP1 PUSH1 0x1F ADD PUSH1 0x20 DUP1 SWAP2 DIV MUL PUSH1 0x20 ADD PUSH1 0x40 MLOAD SWAP1 DUP2 ADD PUSH1 0x40 MSTORE DUP1 SWAP3 SWAP2 SWAP1 DUP2 DUP2 MSTORE PUSH1 0x20 ADD DUP3 DUP1 SLOAD PUSH2 0x4A3 SWAP1 PUSH2 0xFB2 JUMP JUMPDEST DUP1 ISZERO PUSH2 0x4EE JUMPI DUP1 PUSH1 0x1F LT PUSH2 0x4C5 JUMPI PUSH2 0x100 DUP1 DUP4 SLOAD DIV MUL DUP4 MSTORE SWAP2 PUSH1 0x20 ADD SWAP2 PUSH2 0x4EE JUMP JUMPDEST DUP3 ADD SWAP2 SWAP1 PUSH0 MSTORE PUSH1 0x20 PUSH0 KECCAK256 SWAP1 JUMPDEST DUP2 SLOAD DUP2 MSTORE SWAP1 PUSH1 0x1 ADD SWAP1 PUSH1 0x20 ADD DUP1 DUP4 GT PUSH2 0x4D1 JUMPI DUP3 SWAP1 SUB PUSH1 0x1F AND DUP3 ADD SWAP2 JUMPDEST POP POP POP POP POP SWAP1 DUP1 PUSH1 0x4 ADD SLOAD SWAP1 POP DUP6 JUMP JUMPDEST PUSH0 DUP1 PUSH0 SWAP1 SLOAD SWAP1 PUSH2 0x100 EXP SWAP1 DIV PUSH20 0xFFFFFFFFFFFFFFFFFFFFFFFFFFFFFFFFFFFFFFFF AND PUSH20 0xFFFFFFFFFFFFFFFFFFFFFFFFFFFFFFFFFFFFFFFF AND CALLER PUSH20 0xFFFFFFFFFFFFFFFFFFFFFFFFFFFFFFFFFFFFFFFF AND EQ PUSH2 0x58D JUMPI PUSH1 0x40 MLOAD PUSH32 0x8C379A000000000000000000000000000000000000000000000000000000000 DUP2 MSTORE PUSH1 0x4 ADD PUSH2 0x584 SWAP1 PUSH2 0x13CD JUMP JUMPDEST PUSH1 0x40 MLOAD DUP1 SWAP2 SUB SWAP1 REVERT JUMPDEST PUSH1 0x1 PUSH0 DUP2 SLOAD DUP1 SWAP3 SWAP2 SWAP1 PUSH2 0x59F SWAP1 PUSH2 0x13EB JUMP JUMPDEST SWAP2 SWAP1 POP SSTORE POP PUSH0 PUSH1 0x1 SLOAD SWAP1 POP PUSH1 0x40 MLOAD DUP1 PUSH1 0xA0 ADD PUSH1 0x40 MSTORE DUP1 DUP3 DUP2 MSTORE PUSH1 0x20 ADD DUP6 DUP2 MSTORE PUSH1 0x20 ADD DUP5 DUP2 MSTORE PUSH1 0x20 ADD PUSH1 0x40 MLOAD DUP1 PUSH1 0x20 ADD PUSH1 0x40 MSTORE DUP1 PUSH0 DUP2 MSTORE POP DUP2 MSTORE PUSH1 0x20 ADD PUSH0 DUP2 MSTORE POP PUSH1 0x2 PUSH0 DUP4 DUP2 MSTORE PUSH1 0x20 ADD SWAP1 DUP2 MSTORE PUSH1 0x20 ADD PUSH0 KECCAK256 PUSH0 DUP3 ADD MLOAD DUP2 PUSH0 ADD SSTORE PUSH1 0x20 DUP3 ADD MLOAD DUP2 PUSH1 0x1 ADD SWAP1 DUP2 PUSH2 0x60D SWAP2 SWAP1 PUSH2 0x117F JUMP JUMPDEST POP PUSH1 0x40 DUP3 ADD MLOAD DUP2 PUSH1 0x2 ADD SWAP1 DUP2 PUSH2 0x623 SWAP2 SWAP1 PUSH2 0x117F JUMP JUMPDEST POP PUSH1 0x60 DUP3 ADD MLOAD DUP2 PUSH1 0x3 ADD SWAP1 DUP2 PUSH2 0x639 SWAP2 SWAP1 PUSH2 0x117F JUMP JUMPDEST POP PUSH1 0x80 DUP3 ADD MLOAD DUP2 PUSH1 0x4 ADD SSTORE SWAP1 POP POP DUP1 SWAP2 POP POP SWAP3 SWAP2 POP POP JUMP JUMPDEST PUSH0 DUP1 SLOAD SWAP1 PUSH2 0x100 EXP SWAP1 DIV PUSH20 0xFFFFFFFFFFFFFFFFFFFFFFFFFFFFFFFFFFFFFFFF AND DUP2 JUMP JUMPDEST PUSH0 DUP2 GT DUP1 ISZERO PUSH2 0x685 JUMPI POP PUSH1 0x1 SLOAD DUP2 GT ISZERO JUMPDEST PUSH2 0x6C4 JUMPI PUSH1 0x40 MLOAD PUSH32 0x8C379A000000000000000000000000000000000000000000000000000000000 DUP2 MSTORE PUSH1 0x4 ADD PUSH2 0x6BB SWAP1 PUSH2 0xED9 JUMP JUMPDEST PUSH1 0x40 MLOAD DUP1 SWAP2 SUB SWAP1 REVERT JUMPDEST PUSH0 PUSH1 0x2 PUSH0 DUP4 DUP2 MSTORE PUSH1 0x20 ADD SWAP1 DUP2 MSTORE PUSH1 0x20 ADD PUSH0 KECCAK256 SWAP1 POP DUP1 PUSH1 0x4 ADD SLOAD TIMESTAMP LT ISZERO DUP1 ISZERO PUSH2 0x6F0 JUMPI POP PUSH0 DUP2 PUSH1 0x4 ADD SLOAD EQ ISZERO JUMPDEST ISZERO PUSH2 0x770 JUMPI DUP1 PUSH1 0x3 ADD DUP2 PUSH1 0x2 ADD SWAP1 DUP2 PUSH2 0x709 SWAP2 SWAP1 PUSH2 0x1459 JUMP JUMPDEST POP PUSH1 0x40 MLOAD DUP1 PUSH1 0x20 ADD PUSH1 0x40 MSTORE DUP1 PUSH0 DUP2 MSTORE POP DUP2 PUSH1 0x3 ADD SWAP1 DUP2 PUSH2 0x729 SWAP2 SWAP1 PUSH2 0x117F JUMP JUMPDEST POP PUSH0 DUP2 PUSH1 0x4 ADD DUP2 SWAP1 SSTORE POP PUSH32 0x65EDC79681B60DDA53CE45315418E2D9637C424299784FC6AAF815FA304DDA2B DUP3 DUP3 PUSH1 0x2 ADD PUSH1 0x40 MLOAD PUSH2 0x767 SWAP3 SWAP2 SWAP1 PUSH2 0x132F JUMP JUMPDEST PUSH1 0x40 MLOAD DUP1 SWAP2 SUB SWAP1 LOG1 JUMPDEST POP POP JUMP JUMPDEST PUSH1 0x60 DUP1 PUSH1 0x60 PUSH0 DUP1 DUP6 GT DUP1 ISZERO PUSH2 0x78B JUMPI POP PUSH1 0x1 SLOAD DUP6 GT ISZERO JUMPDEST PUSH2 0x7CA JUMPI PUSH1 0x40 MLOAD PUSH32 0x8C379A000000000000000000000000000000000000000000000000000000000 DUP2 MSTORE PUSH1 0x4 ADD PUSH2 0x7C1 SWAP1 PUSH2 0xED9 JUMP JUMPDEST PUSH1 0x40 MLOAD DUP1 SWAP2 SUB SWAP1 REVERT JUMPDEST PUSH0 PUSH1 0x2 PUSH0 DUP8 DUP2 MSTORE PUSH1 0x20 ADD SWAP1 DUP2 MSTORE PUSH1 0x20 ADD PUSH0 KECCAK256 PUSH1 0x40 MLOAD DUP1 PUSH1 0xA0 ADD PUSH1 0x40 MSTORE SWAP1 DUP2 PUSH0 DUP3 ADD SLOAD DUP2 MSTORE PUSH1 0x20 ADD PUSH1 0x1 DUP3 ADD DUP1 SLOAD PUSH2 0x800 SWAP1 PUSH2 0xFB2 JUMP JUMPDEST DUP1 PUSH1 0x1F ADD PUSH1 0x20 DUP1 SWAP2 DIV MUL PUSH1 0x20 ADD PUSH1 0x40 MLOAD SWAP1 DUP2 ADD PUSH1 0x40 MSTORE DUP1 SWAP3 SWAP2 SWAP1 DUP2 DUP2 MSTORE PUSH1 0x20 ADD DUP3 DUP1 SLOAD PUSH2 0x82C SWAP1 PUSH2 0xFB2 JUMP JUMPDEST DUP1 ISZERO PUSH2 0x877 JUMPI DUP1 PUSH1 0x1F LT PUSH2 0x84E JUMPI PUSH2 0x100 DUP1 DUP4 SLOAD DIV MUL DUP4 MSTORE SWAP2 PUSH1 0x20 ADD SWAP2 PUSH2 0x877 JUMP JUMPDEST DUP3 ADD SWAP2 SWAP1 PUSH0 MSTORE PUSH1 0x20 PUSH0 KECCAK256 SWAP1 JUMPDEST DUP2 SLOAD DUP2 MSTORE SWAP1 PUSH1 0x1 ADD SWAP1 PUSH1 0x20 ADD DUP1 DUP4 GT PUSH2 0x85A JUMPI DUP3 SWAP1 SUB PUSH1 0x1F AND DUP3 ADD SWAP2 JUMPDEST POP POP POP POP POP DUP2 MSTORE PUSH1 0x20 ADD PUSH1 0x2 DUP3 ADD DUP1 SLOAD PUSH2 0x890 SWAP1 PUSH2 0xFB2 JUMP JUMPDEST DUP1 PUSH1 0x1F ADD PUSH1 0x20 DUP1 SWAP2 DIV MUL PUSH1 0x20 ADD PUSH1 0x40 MLOAD SWAP1 DUP2 ADD PUSH1 0x40 MSTORE DUP1 SWAP3 SWAP2 SWAP1 DUP2 DUP2 MSTORE PUSH1 0x20 ADD DUP3 DUP1 SLOAD PUSH2 0x8BC SWAP1 PUSH2 0xFB2 JUMP JUMPDEST DUP1 ISZERO PUSH2 0x907 JUMPI DUP1 PUSH1 0x1F LT PUSH2 0x8DE JUMPI PUSH2 0x100 DUP1 DUP4 SLOAD DIV MUL DUP4 MSTORE SWAP2 PUSH1 0x20 ADD SWAP2 PUSH2 0x907 JUMP JUMPDEST DUP3 ADD SWAP2 SWAP1 PUSH0 MSTORE PUSH1 0x20 PUSH0 KECCAK256 SWAP1 JUMPDEST DUP2 SLOAD DUP2 MSTORE SWAP1 PUSH1 0x1 ADD SWAP1 PUSH1 0x20 ADD DUP1 DUP4 GT PUSH2 0x8EA JUMPI DUP3 SWAP1 SUB PUSH1 0x1F AND DUP3 ADD SWAP2 JUMPDEST POP POP POP POP POP DUP2 MSTORE PUSH1 0x20 ADD PUSH1 0x3 DUP3 ADD DUP1 SLOAD PUSH2 0x920 SWAP1 PUSH2 0xFB2 JUMP JUMPDEST DUP1 PUSH1 0x1F ADD PUSH1 0x20 DUP1 SWAP2 DIV MUL PUSH1 0x20 ADD PUSH1 0x40 MLOAD SWAP1 DUP2 ADD PUSH1 0x40 MSTORE DUP1 SWAP3 SWAP2 SWAP1 DUP2 DUP2 MSTORE PUSH1 0x20 ADD DUP3 DUP1 SLOAD PUSH2 0x94C SWAP1 PUSH2 0xFB2 JUMP JUMPDEST DUP1 ISZERO PUSH2 0x997 JUMPI DUP1 PUSH1 0x1F LT PUSH2 0x96E JUMPI PUSH2 0x100 DUP1 DUP4 SLOAD DIV MUL DUP4 MSTORE SWAP2 PUSH1 0x20 ADD SWAP2 PUSH2 0x997 JUMP JUMPDEST DUP3 ADD SWAP2 SWAP1 PUSH0 MSTORE PUSH1 0x20 PUSH0 KECCAK256 SWAP1 JUMPDEST DUP2 SLOAD DUP2 MSTORE SWAP1 PUSH1 0x1 ADD SWAP1 PUSH1 0x20 ADD DUP1 DUP4 GT PUSH2 0x97A JUMPI DUP3 SWAP1 SUB PUSH1 0x1F AND DUP3 ADD SWAP2 JUMPDEST POP POP POP POP POP DUP2 MSTORE PUSH1 0x20 ADD PUSH1 0x4 DUP3 ADD SLOAD DUP2 MSTORE POP POP SWAP1 POP DUP1 PUSH1 0x20 ADD MLOAD DUP2 PUSH1 0x40 ADD MLOAD DUP3 PUSH1 0x60 ADD MLOAD DUP4 PUSH1 0x80 ADD MLOAD SWAP5 POP SWAP5 POP SWAP5 POP SWAP5 POP POP SWAP2 SWAP4 POP SWAP2 SWAP4 JUMP JUMPDEST PUSH1 0x1 SLOAD DUP2 JUMP JUMPDEST PUSH0 PUSH1 0x40 MLOAD SWAP1 POP SWAP1 JUMP JUMPDEST PUSH0 DUP1 REVERT JUMPDEST PUSH0 DUP1 REVERT JUMPDEST PUSH0 DUP2 SWAP1 POP SWAP2 SWAP1 POP JUMP JUMPDEST PUSH2 0x9F9 DUP2 PUSH2 0x9E7 JUMP JUMPDEST DUP2 EQ PUSH2 0xA03 JUMPI PUSH0 DUP1 REVERT JUMPDEST POP JUMP JUMPDEST PUSH0 DUP2 CALLDATALOAD SWAP1 POP PUSH2 0xA14 DUP2 PUSH2 0x9F0 JUMP JUMPDEST SWAP3 SWAP2 POP POP JUMP JUMPDEST PUSH0 DUP1 REVERT JUMPDEST PUSH0 DUP1 REVERT JUMPDEST PUSH0 PUSH1 0x1F NOT PUSH1 0x1F DUP4 ADD AND SWAP1 POP SWAP2 SWAP1 POP JUMP JUMPDEST PUSH32 0x4E487B7100000000000000000000000000000000000000000000000000000000 PUSH0 MSTORE PUSH1 0x41 PUSH1 0x4 MSTORE PUSH1 0x24 PUSH0 REVERT JUMPDEST PUSH2 0xA68 DUP3 PUSH2 0xA22 JUMP JUMPDEST DUP2 ADD DUP2 DUP2 LT PUSH8 0xFFFFFFFFFFFFFFFF DUP3 GT OR ISZERO PUSH2 0xA87 JUMPI PUSH2 0xA86 PUSH2 0xA32 JUMP JUMPDEST JUMPDEST DUP1 PUSH1 0x40 MSTORE POP POP POP JUMP JUMPDEST PUSH0 PUSH2 0xA99 PUSH2 0x9D6 JUMP JUMPDEST SWAP1 POP PUSH2 0xAA5 DUP3 DUP3 PUSH2 0xA5F JUMP JUMPDEST SWAP2 SWAP1 POP JUMP JUMPDEST PUSH0 PUSH8 0xFFFFFFFFFFFFFFFF DUP3 GT ISZERO PUSH2 0xAC4 JUMPI PUSH2 0xAC3 PUSH2 0xA32 JUMP JUMPDEST JUMPDEST PUSH2 0xACD DUP3 PUSH2 0xA22 JUMP JUMPDEST SWAP1 POP PUSH1 0x20 DUP2 ADD SWAP1 POP SWAP2 SWAP1 POP JUMP JUMPDEST DUP3 DUP2 DUP4 CALLDATACOPY PUSH0 DUP4 DUP4 ADD MSTORE POP POP POP JUMP JUMPDEST PUSH0 PUSH2 0xAFA PUSH2 0xAF5 DUP5 PUSH2 0xAAA JUMP JUMPDEST PUSH2 0xA90 JUMP JUMPDEST SWAP1 POP DUP3 DUP2 MSTORE PUSH1 0x20 DUP2 ADD DUP5 DUP5 DUP5 ADD GT ISZERO PUSH2 0xB16 JUMPI PUSH2 0xB15 PUSH2 0xA1E JUMP JUMPDEST JUMPDEST PUSH2 0xB21 DUP5 DUP3 DUP6 PUSH2 0xADA JUMP JUMPDEST POP SWAP4 SWAP3 POP POP POP JUMP JUMPDEST PUSH0 DUP3 PUSH1 0x1F DUP4 ADD SLT PUSH2 0xB3D JUMPI PUSH2 0xB3C PUSH2 0xA1A JUMP JUMPDEST JUMPDEST DUP2 CALLDATALOAD PUSH2 0xB4D DUP5 DUP3 PUSH1 0x20 DUP7 ADD PUSH2 0xAE8 JUMP JUMPDEST SWAP2 POP POP SWAP3 SWAP2 POP POP JUMP JUMPDEST PUSH0 DUP1 PUSH0 PUSH1 0x60 DUP5 DUP7 SUB SLT ISZERO PUSH2 0xB6D JUMPI PUSH2 0xB6C PUSH2 0x9DF JUMP JUMPDEST JUMPDEST PUSH0 PUSH2 0xB7A DUP7 DUP3 DUP8 ADD PUSH2 0xA06 JUMP JUMPDEST SWAP4 POP POP PUSH1 0x20 PUSH2 0xB8B DUP7 DUP3 DUP8 ADD PUSH2 0xA06 JUMP JUMPDEST SWAP3 POP POP PUSH1 0x40 DUP5 ADD CALLDATALOAD PUSH8 0xFFFFFFFFFFFFFFFF DUP2 GT ISZERO PUSH2 0xBAC JUMPI PUSH2 0xBAB PUSH2 0x9E3 JUMP JUMPDEST JUMPDEST PUSH2 0xBB8 DUP7 DUP3 DUP8 ADD PUSH2 0xB29 JUMP JUMPDEST SWAP2 POP POP SWAP3 POP SWAP3 POP SWAP3 JUMP JUMPDEST PUSH0 PUSH1 0x20 DUP3 DUP5 SUB SLT ISZERO PUSH2 0xBD7 JUMPI PUSH2 0xBD6 PUSH2 0x9DF JUMP JUMPDEST JUMPDEST PUSH0 PUSH2 0xBE4 DUP5 DUP3 DUP6 ADD PUSH2 0xA06 JUMP JUMPDEST SWAP2 POP POP SWAP3 SWAP2 POP POP JUMP JUMPDEST PUSH2 0xBF6 DUP2 PUSH2 0x9E7 JUMP JUMPDEST DUP3 MSTORE POP POP JUMP JUMPDEST PUSH0 DUP2 MLOAD SWAP1 POP SWAP2 SWAP1 POP JUMP JUMPDEST PUSH0 DUP3 DUP3 MSTORE PUSH1 0x20 DUP3 ADD SWAP1 POP SWAP3 SWAP2 POP POP JUMP JUMPDEST DUP3 DUP2 DUP4 MCOPY PUSH0 DUP4 DUP4 ADD MSTORE POP POP POP JUMP JUMPDEST PUSH0 PUSH2 0xC2E DUP3 PUSH2 0xBFC JUMP JUMPDEST PUSH2 0xC38 DUP2 DUP6 PUSH2 0xC06 JUMP JUMPDEST SWAP4 POP PUSH2 0xC48 DUP2 DUP6 PUSH1 0x20 DUP7 ADD PUSH2 0xC16 JUMP JUMPDEST PUSH2 0xC51 DUP2 PUSH2 0xA22 JUMP JUMPDEST DUP5 ADD SWAP2 POP POP SWAP3 SWAP2 POP POP JUMP JUMPDEST PUSH0 PUSH1 0xA0 DUP3 ADD SWAP1 POP PUSH2 0xC6F PUSH0 DUP4 ADD DUP9 PUSH2 0xBED JUMP JUMPDEST DUP2 DUP2 SUB PUSH1 0x20 DUP4 ADD MSTORE PUSH2 0xC81 DUP2 DUP8 PUSH2 0xC24 JUMP JUMPDEST SWAP1 POP DUP2 DUP2 SUB PUSH1 0x40 DUP4 ADD MSTORE PUSH2 0xC95 DUP2 DUP7 PUSH2 0xC24 JUMP JUMPDEST SWAP1 POP DUP2 DUP2 SUB PUSH1 0x60 DUP4 ADD MSTORE PUSH2 0xCA9 DUP2 DUP6 PUSH2 0xC24 JUMP JUMPDEST SWAP1 POP PUSH2 0xCB8 PUSH1 0x80 DUP4 ADD DUP5 PUSH2 0xBED JUMP JUMPDEST SWAP7 SWAP6 POP POP POP POP POP POP JUMP JUMPDEST PUSH0 DUP1 PUSH1 0x40 DUP4 DUP6 SUB SLT ISZERO PUSH2 0xCD8 JUMPI PUSH2 0xCD7 PUSH2 0x9DF JUMP JUMPDEST JUMPDEST PUSH0 DUP4 ADD CALLDATALOAD PUSH8 0xFFFFFFFFFFFFFFFF DUP2 GT ISZERO PUSH2 0xCF5 JUMPI PUSH2 0xCF4 PUSH2 0x9E3 JUMP JUMPDEST JUMPDEST PUSH2 0xD01 DUP6 DUP3 DUP7 ADD PUSH2 0xB29 JUMP JUMPDEST SWAP3 POP POP PUSH1 0x20 DUP4 ADD CALLDATALOAD PUSH8 0xFFFFFFFFFFFFFFFF DUP2 GT ISZERO PUSH2 0xD22 JUMPI PUSH2 0xD21 PUSH2 0x9E3 JUMP JUMPDEST JUMPDEST PUSH2 0xD2E DUP6 DUP3 DUP7 ADD PUSH2 0xB29 JUMP JUMPDEST SWAP2 POP POP SWAP3 POP SWAP3 SWAP1 POP JUMP JUMPDEST PUSH0 PUSH1 0x20 DUP3 ADD SWAP1 POP PUSH2 0xD4B PUSH0 DUP4 ADD DUP5 PUSH2 0xBED JUMP JUMPDEST SWAP3 SWAP2 POP POP JUMP JUMPDEST PUSH0 PUSH20 0xFFFFFFFFFFFFFFFFFFFFFFFFFFFFFFFFFFFFFFFF DUP3 AND SWAP1 POP SWAP2 SWAP1 POP JUMP JUMPDEST PUSH0 PUSH2 0xD7A DUP3 PUSH2 0xD51 JUMP JUMPDEST SWAP1 POP SWAP2 SWAP1 POP JUMP JUMPDEST PUSH2 0xD8A DUP2 PUSH2 0xD70 JUMP JUMPDEST DUP3 MSTORE POP POP JUMP JUMPDEST PUSH0 PUSH1 0x20 DUP3 ADD SWAP1 POP PUSH2 0xDA3 PUSH0 DUP4 ADD DUP5 PUSH2 0xD81 JUMP JUMPDEST SWAP3 SWAP2 POP POP JUMP JUMPDEST PUSH0 PUSH1 0x80 DUP3 ADD SWAP1 POP DUP2 DUP2 SUB PUSH0 DUP4 ADD MSTORE PUSH2 0xDC1 DUP2 DUP8 PUSH2 0xC24 JUMP JUMPDEST SWAP1 POP DUP2 DUP2 SUB PUSH1 0x20 DUP4 ADD MSTORE PUSH2 0xDD5 DUP2 DUP7 PUSH2 0xC24 JUMP JUMPDEST SWAP1 POP DUP2 DUP2 SUB PUSH1 0x40 DUP4 ADD MSTORE PUSH2 0xDE9 DUP2 DUP6 PUSH2 0xC24 JUMP JUMPDEST SWAP1 POP PUSH2 0xDF8 PUSH1 0x60 DUP4 ADD DUP5 PUSH2 0xBED JUMP JUMPDEST SWAP6 SWAP5 POP POP POP POP POP JUMP JUMPDEST PUSH32 0x4F6E6C7920746865206D616E616765722063616E206D6F766520746865207368 PUSH0 DUP3 ADD MSTORE PUSH32 0x69706D656E740000000000000000000000000000000000000000000000000000 PUSH1 0x20 DUP3 ADD MSTORE POP JUMP JUMPDEST PUSH0 PUSH2 0xE5B PUSH1 0x26 DUP4 PUSH2 0xC06 JUMP JUMPDEST SWAP2 POP PUSH2 0xE66 DUP3 PUSH2 0xE01 JUMP JUMPDEST PUSH1 0x40 DUP3 ADD SWAP1 POP SWAP2 SWAP1 POP JUMP JUMPDEST PUSH0 PUSH1 0x20 DUP3 ADD SWAP1 POP DUP2 DUP2 SUB PUSH0 DUP4 ADD MSTORE PUSH2 0xE88 DUP2 PUSH2 0xE4F JUMP JUMPDEST SWAP1 POP SWAP2 SWAP1 POP JUMP JUMPDEST PUSH32 0x536869706D656E7420494420697320696E76616C696400000000000000000000 PUSH0 DUP3 ADD MSTORE POP JUMP JUMPDEST PUSH0 PUSH2 0xEC3 PUSH1 0x16 DUP4 PUSH2 0xC06 JUMP JUMPDEST SWAP2 POP PUSH2 0xECE DUP3 PUSH2 0xE8F JUMP JUMPDEST PUSH1 0x20 DUP3 ADD SWAP1 POP SWAP2 SWAP1 POP JUMP JUMPDEST PUSH0 PUSH1 0x20 DUP3 ADD SWAP1 POP DUP2 DUP2 SUB PUSH0 DUP4 ADD MSTORE PUSH2 0xEF0 DUP2 PUSH2 0xEB7 JUMP JUMPDEST SWAP1 POP SWAP2 SWAP1 POP JUMP JUMPDEST PUSH32 0x54656D7065726174757265206973206E6F74207375697461626C6520666F7220 PUSH0 DUP3 ADD MSTORE PUSH32 0x6465706172747572650000000000000000000000000000000000000000000000 PUSH1 0x20 DUP3 ADD MSTORE POP JUMP JUMPDEST PUSH0 PUSH2 0xF51 PUSH1 0x29 DUP4 PUSH2 0xC06 JUMP JUMPDEST SWAP2 POP PUSH2 0xF5C DUP3 PUSH2 0xEF7 JUMP JUMPDEST PUSH1 0x40 DUP3 ADD SWAP1 POP SWAP2 SWAP1 POP JUMP JUMPDEST PUSH0 PUSH1 0x20 DUP3 ADD SWAP1 POP DUP2 DUP2 SUB PUSH0 DUP4 ADD MSTORE PUSH2 0xF7E DUP2 PUSH2 0xF45 JUMP JUMPDEST SWAP1 POP SWAP2 SWAP1 POP JUMP JUMPDEST PUSH32 0x4E487B7100000000000000000000000000000000000000000000000000000000 PUSH0 MSTORE PUSH1 0x22 PUSH1 0x4 MSTORE PUSH1 0x24 PUSH0 REVERT JUMPDEST PUSH0 PUSH1 0x2 DUP3 DIV SWAP1 POP PUSH1 0x1 DUP3 AND DUP1 PUSH2 0xFC9 JUMPI PUSH1 0x7F DUP3 AND SWAP2 POP JUMPDEST PUSH1 0x20 DUP3 LT DUP2 SUB PUSH2 0xFDC JUMPI PUSH2 0xFDB PUSH2 0xF85 JUMP JUMPDEST JUMPDEST POP SWAP2 SWAP1 POP JUMP JUMPDEST PUSH0 DUP2 SWAP1 POP DUP2 PUSH0 MSTORE PUSH1 0x20 PUSH0 KECCAK256 SWAP1 POP SWAP2 SWAP1 POP JUMP JUMPDEST PUSH0 PUSH1 0x20 PUSH1 0x1F DUP4 ADD DIV SWAP1 POP SWAP2 SWAP1 POP JUMP JUMPDEST PUSH0 DUP3 DUP3 SHL SWAP1 POP SWAP3 SWAP2 POP POP JUMP JUMPDEST PUSH0 PUSH1 0x8 DUP4 MUL PUSH2 0x103E PUSH32 0xFFFFFFFFFFFFFFFFFFFFFFFFFFFFFFFFFFFFFFFFFFFFFFFFFFFFFFFFFFFFFFFF DUP3 PUSH2 0x1003 JUMP JUMPDEST PUSH2 0x1048 DUP7 DUP4 PUSH2 0x1003 JUMP JUMPDEST SWAP6 POP DUP1 NOT DUP5 AND SWAP4 POP DUP1 DUP7 AND DUP5 OR SWAP3 POP POP POP SWAP4 SWAP3 POP POP POP JUMP JUMPDEST PUSH0 DUP2 SWAP1 POP SWAP2 SWAP1 POP JUMP JUMPDEST PUSH0 PUSH2 0x1083 PUSH2 0x107E PUSH2 0x1079 DUP5 PUSH2 0x9E7 JUMP JUMPDEST PUSH2 0x1060 JUMP JUMPDEST PUSH2 0x9E7 JUMP JUMPDEST SWAP1 POP SWAP2 SWAP1 POP JUMP JUMPDEST PUSH0 DUP2 SWAP1 POP SWAP2 SWAP1 POP JUMP JUMPDEST PUSH2 0x109C DUP4 PUSH2 0x1069 JUMP JUMPDEST PUSH2 0x10B0 PUSH2 0x10A8 DUP3 PUSH2 0x108A JUMP JUMPDEST DUP5 DUP5 SLOAD PUSH2 0x100F JUMP JUMPDEST DUP3 SSTORE POP POP POP POP JUMP JUMPDEST PUSH0 SWAP1 JUMP JUMPDEST PUSH2 0x10C4 PUSH2 0x10B8 JUMP JUMPDEST PUSH2 0x10CF DUP2 DUP5 DUP5 PUSH2 0x1093 JUMP JUMPDEST POP POP POP JUMP JUMPDEST JUMPDEST DUP2 DUP2 LT ISZERO PUSH2 0x10F2 JUMPI PUSH2 0x10E7 PUSH0 DUP3 PUSH2 0x10BC JUMP JUMPDEST PUSH1 0x1 DUP2 ADD SWAP1 POP PUSH2 0x10D5 JUMP JUMPDEST POP POP JUMP JUMPDEST PUSH1 0x1F DUP3 GT ISZERO PUSH2 0x1137 JUMPI PUSH2 0x1108 DUP2 PUSH2 0xFE2 JUMP JUMPDEST PUSH2 0x1111 DUP5 PUSH2 0xFF4 JUMP JUMPDEST DUP2 ADD PUSH1 0x20 DUP6 LT ISZERO PUSH2 0x1120 JUMPI DUP2 SWAP1 POP JUMPDEST PUSH2 0x1134 PUSH2 0x112C DUP6 PUSH2 0xFF4 JUMP JUMPDEST DUP4 ADD DUP3 PUSH2 0x10D4 JUMP JUMPDEST POP POP JUMPDEST POP POP POP JUMP JUMPDEST PUSH0 DUP3 DUP3 SHR SWAP1 POP SWAP3 SWAP2 POP POP JUMP JUMPDEST PUSH0 PUSH2 0x1157 PUSH0 NOT DUP5 PUSH1 0x8 MUL PUSH2 0x113C JUMP JUMPDEST NOT DUP1 DUP4 AND SWAP2 POP POP SWAP3 SWAP2 POP POP JUMP JUMPDEST PUSH0 PUSH2 0x116F DUP4 DUP4 PUSH2 0x1148 JUMP JUMPDEST SWAP2 POP DUP3 PUSH1 0x2 MUL DUP3 OR SWAP1 POP SWAP3 SWAP2 POP POP JUMP JUMPDEST PUSH2 0x1188 DUP3 PUSH2 0xBFC JUMP JUMPDEST PUSH8 0xFFFFFFFFFFFFFFFF DUP2 GT ISZERO PUSH2 0x11A1 JUMPI PUSH2 0x11A0 PUSH2 0xA32 JUMP JUMPDEST JUMPDEST PUSH2 0x11AB DUP3 SLOAD PUSH2 0xFB2 JUMP JUMPDEST PUSH2 0x11B6 DUP3 DUP3 DUP6 PUSH2 0x10F6 JUMP JUMPDEST PUSH0 PUSH1 0x20 SWAP1 POP PUSH1 0x1F DUP4 GT PUSH1 0x1 DUP2 EQ PUSH2 0x11E7 JUMPI PUSH0 DUP5 ISZERO PUSH2 0x11D5 JUMPI DUP3 DUP8 ADD MLOAD SWAP1 POP JUMPDEST PUSH2 0x11DF DUP6 DUP3 PUSH2 0x1164 JUMP JUMPDEST DUP7 SSTORE POP PUSH2 0x1246 JUMP JUMPDEST PUSH1 0x1F NOT DUP5 AND PUSH2 0x11F5 DUP7 PUSH2 0xFE2 JUMP JUMPDEST PUSH0 JUMPDEST DUP3 DUP2 LT ISZERO PUSH2 0x121C JUMPI DUP5 DUP10 ADD MLOAD DUP3 SSTORE PUSH1 0x1 DUP3 ADD SWAP2 POP PUSH1 0x20 DUP6 ADD SWAP5 POP PUSH1 0x20 DUP2 ADD SWAP1 POP PUSH2 0x11F7 JUMP JUMPDEST DUP7 DUP4 LT ISZERO PUSH2 0x1239 JUMPI DUP5 DUP10 ADD MLOAD PUSH2 0x1235 PUSH1 0x1F DUP10 AND DUP3 PUSH2 0x1148 JUMP JUMPDEST DUP4 SSTORE POP JUMPDEST PUSH1 0x1 PUSH1 0x2 DUP9 MUL ADD DUP9 SSTORE POP POP POP JUMPDEST POP POP POP POP POP POP JUMP JUMPDEST PUSH32 0x4E487B7100000000000000000000000000000000000000000000000000000000 PUSH0 MSTORE PUSH1 0x11 PUSH1 0x4 MSTORE PUSH1 0x24 PUSH0 REVERT JUMPDEST PUSH0 PUSH2 0x1285 DUP3 PUSH2 0x9E7 JUMP JUMPDEST SWAP2 POP PUSH2 0x1290 DUP4 PUSH2 0x9E7 JUMP JUMPDEST SWAP3 POP DUP3 DUP3 ADD SWAP1 POP DUP1 DUP3 GT ISZERO PUSH2 0x12A8 JUMPI PUSH2 0x12A7 PUSH2 0x124E JUMP JUMPDEST JUMPDEST SWAP3 SWAP2 POP POP JUMP JUMPDEST PUSH0 DUP2 SLOAD PUSH2 0x12BA DUP2 PUSH2 0xFB2 JUMP JUMPDEST PUSH2 0x12C4 DUP2 DUP7 PUSH2 0xC06 JUMP JUMPDEST SWAP5 POP PUSH1 0x1 DUP3 AND PUSH0 DUP2 EQ PUSH2 0x12DE JUMPI PUSH1 0x1 DUP2 EQ PUSH2 0x12F4 JUMPI PUSH2 0x1326 JUMP JUMPDEST PUSH1 0xFF NOT DUP4 AND DUP7 MSTORE DUP2 ISZERO ISZERO PUSH1 0x20 MUL DUP7 ADD SWAP4 POP PUSH2 0x1326 JUMP JUMPDEST PUSH2 0x12FD DUP6 PUSH2 0xFE2 JUMP JUMPDEST PUSH0 JUMPDEST DUP4 DUP2 LT ISZERO PUSH2 0x131E JUMPI DUP2 SLOAD DUP2 DUP10 ADD MSTORE PUSH1 0x1 DUP3 ADD SWAP2 POP PUSH1 0x20 DUP2 ADD SWAP1 POP PUSH2 0x12FF JUMP JUMPDEST DUP1 DUP9 ADD SWAP6 POP POP POP JUMPDEST POP POP POP SWAP3 SWAP2 POP POP JUMP JUMPDEST PUSH0 PUSH1 0x40 DUP3 ADD SWAP1 POP PUSH2 0x1342 PUSH0 DUP4 ADD DUP6 PUSH2 0xBED JUMP JUMPDEST DUP2 DUP2 SUB PUSH1 0x20 DUP4 ADD MSTORE PUSH2 0x1354 DUP2 DUP5 PUSH2 0x12AE JUMP JUMPDEST SWAP1 POP SWAP4 SWAP3 POP POP POP JUMP JUMPDEST PUSH32 0x4F6E6C7920746865206D616E616765722063616E206372656174652061207368 PUSH0 DUP3 ADD MSTORE PUSH32 0x69706D656E740000000000000000000000000000000000000000000000000000 PUSH1 0x20 DUP3 ADD MSTORE POP JUMP JUMPDEST PUSH0 PUSH2 0x13B7 PUSH1 0x26 DUP4 PUSH2 0xC06 JUMP JUMPDEST SWAP2 POP PUSH2 0x13C2 DUP3 PUSH2 0x135D JUMP JUMPDEST PUSH1 0x40 DUP3 ADD SWAP1 POP SWAP2 SWAP1 POP JUMP JUMPDEST PUSH0 PUSH1 0x20 DUP3 ADD SWAP1 POP DUP2 DUP2 SUB PUSH0 DUP4 ADD MSTORE PUSH2 0x13E4 DUP2 PUSH2 0x13AB JUMP JUMPDEST SWAP1 POP SWAP2 SWAP1 POP JUMP JUMPDEST PUSH0 PUSH2 0x13F5 DUP3 PUSH2 0x9E7 JUMP JUMPDEST SWAP2 POP PUSH32 0xFFFFFFFFFFFFFFFFFFFFFFFFFFFFFFFFFFFFFFFFFFFFFFFFFFFFFFFFFFFFFFFF DUP3 SUB PUSH2 0x1427 JUMPI PUSH2 0x1426 PUSH2 0x124E JUMP JUMPDEST JUMPDEST PUSH1 0x1 DUP3 ADD SWAP1 POP SWAP2 SWAP1 POP JUMP JUMPDEST PUSH0 DUP2 SLOAD SWAP1 POP PUSH2 0x1440 DUP2 PUSH2 0xFB2 JUMP JUMPDEST SWAP1 POP SWAP2 SWAP1 POP JUMP JUMPDEST PUSH0 DUP2 SWAP1 POP DUP2 PUSH0 MSTORE PUSH1 0x20 PUSH0 KECCAK256 SWAP1 POP SWAP2 SWAP1 POP JUMP JUMPDEST DUP2 DUP2 SUB PUSH2 0x1467 JUMPI POP POP PUSH2 0x153C JUMP JUMPDEST PUSH2 0x1470 DUP3 PUSH2 0x1432 JUMP JUMPDEST PUSH8 0xFFFFFFFFFFFFFFFF DUP2 GT ISZERO PUSH2 0x1489 JUMPI PUSH2 0x1488 PUSH2 0xA32 JUMP JUMPDEST JUMPDEST PUSH2 0x1493 DUP3 SLOAD PUSH2 0xFB2 JUMP JUMPDEST PUSH2 0x149E DUP3 DUP3 DUP6 PUSH2 0x10F6 JUMP JUMPDEST PUSH0 PUSH1 0x1F DUP4 GT PUSH1 0x1 DUP2 EQ PUSH2 0x14CB JUMPI PUSH0 DUP5 ISZERO PUSH2 0x14B9 JUMPI DUP3 DUP8 ADD SLOAD SWAP1 POP JUMPDEST PUSH2 0x14C3 DUP6 DUP3 PUSH2 0x1164 JUMP JUMPDEST DUP7 SSTORE POP PUSH2 0x1535 JUMP JUMPDEST PUSH1 0x1F NOT DUP5 AND PUSH2 0x14D9 DUP8 PUSH2 0x1447 JUMP JUMPDEST SWAP7 POP PUSH2 0x14E4 DUP7 PUSH2 0xFE2 JUMP JUMPDEST PUSH0 JUMPDEST DUP3 DUP2 LT ISZERO PUSH2 0x150B JUMPI DUP5 DUP10 ADD SLOAD DUP3 SSTORE PUSH1 0x1 DUP3 ADD SWAP2 POP PUSH1 0x1 DUP6 ADD SWAP5 POP PUSH1 0x20 DUP2 ADD SWAP1 POP PUSH2 0x14E6 JUMP JUMPDEST DUP7 DUP4 LT ISZERO PUSH2 0x1528 JUMPI DUP5 DUP10 ADD SLOAD PUSH2 0x1524 PUSH1 0x1F DUP10 AND DUP3 PUSH2 0x1148 JUMP JUMPDEST DUP4 SSTORE POP JUMPDEST PUSH1 0x1 PUSH1 0x2 DUP9 MUL ADD DUP9 SSTORE POP POP POP JUMPDEST POP POP POP POP POP POP JUMPDEST JUMP INVALID LOG2 PUSH5 0x6970667358 0x22 SLT KECCAK256 0xCB 0xB9 TLOAD 0x22 CODECOPY DUP8 LOG1 MLOAD DIV SWAP8 NUMBER DUP13 0xD7 REVERT EXTCODESIZE BYTE 0x1F MULMOD 0xDC 0xE8 DUP14 DUP2 0xD0 0xBF PREVRANDAO EXTCODECOPY SWAP12 CALLCODE BLOBHASH SSTORE ORIGIN AND PUSH5 0x736F6C6343 STOP ADDMOD BYTE STOP CALLER "
				},
				"gasEstimates": {
					"creation": {
						"codeDepositCost": "1098400",
						"executionCost": "30416",
						"totalCost": "1128816"
					},
					"external": {
						"createShipment(string,string)": "infinite",
						"getShipmentDetails(uint256)": "infinite",
						"manager()": "2505",
						"moveShipment(uint256,uint256,string)": "infinite",
						"shipmentCount()": "2491",
						"shipments(uint256)": "infinite",
						"updateShipmentLocation(uint256)": "infinite"
					}
				},
				"methodIdentifiers": {
					"createShipment(string,string)": "3def2b52",
					"getShipmentDetails(uint256)": "693d70aa",
					"manager()": "481c6a75",
					"moveShipment(uint256,uint256,string)": "249e702c",
					"shipmentCount()": "aace20b7",
					"shipments(uint256)": "2ac08a93",
					"updateShipmentLocation(uint256)": "564d1b0a"
				}
			},
			"storageLayout": {
				"storage": [
					{
						"astId": 4,
						"contract": "src/Shipment.sol:Shipment",
						"label": "manager",
						"offset": 0,
						"slot": "0",
						"type": "t_address"
					},
					{
						"astId": 17,
						"contract": "src/Shipment.sol:Shipment",
						"label": "shipmentCount",
						"offset": 0,
						"slot": "1",
						"type": "t_uint256"
					},
					{
						"astId": 22,
						"contract": "src/Shipment.sol:Shipment",
						"label": "shipments",
						"offset": 0,
						"slot": "2",
						"type": "t_mapping(t_uint256,t_struct(ShipmentDetails)15_storage)"
					}
				],
				"types": {
					"t_address": {
						"encoding": "inplace",
						"label": "address",
						"numberOfBytes": "20"
					},
					"t_mapping(t_uint256,t_struct(ShipmentDetails)15_storage)": {
						"encoding": "mapping",
						"key": "t_uint256",
						"label": "mapping(uint256 => struct Shipment.ShipmentDetails)",
						"numberOfBytes": "32",
						"value": "t_struct(ShipmentDetails)15_storage"
					},
					"t_string_storage": {
						"encoding": "bytes",
						"label": "string",
						"numberOfBytes": "32"
					},
					"t_struct(ShipmentDetails)15_storage": {
						"encoding": "inplace",
						"label": "struct Shipment.ShipmentDetails",
						"members": [
							{
								"astId": 6,
								"contract": "src/Shipment.sol:Shipment",
								"label": "id",
								"offset": 0,
								"slot": "0",
								"type": "t_uint256"
							},
							{
								"astId": 8,
								"contract": "src/Shipment.sol:Shipment",
								"label": "deliveryName",
								"offset": 0,
								"slot": "1",
								"type": "t_string_storage"
							},
							{
								"astId": 10,
								"contract": "src/Shipment.sol:Shipment",
								"label": "location",
								"offset": 0,
								"slot": "2",
								"type": "t_string_storage"
							},
							{
								"astId": 12,
								"contract": "src/Shipment.sol:Shipment",
								"label": "targetLocation",
								"offset": 0,
								"slot": "3",
								"type": "t_string_storage"
							},
							{
								"astId": 14,
								"contract": "src/Shipment.sol:Shipment",
								"label": "moveTimestamp",
								"offset": 0,
								"slot": "4",
								"type": "t_uint256"
							}
						],
						"numberOfBytes": "160"
					},
					"t_uint256": {
						"encoding": "inplace",
						"label": "uint256",
						"numberOfBytes": "32"
					}
				}
			},
			"userdoc": {
				"kind": "user",
				"methods": {
					"constructor": {
						"notice": "Constructor to set the manager of the contract"
					},
					"createShipment(string,string)": {
						"notice": "Create a new shipment with a delivery name and location"
					},
					"getShipmentDetails(uint256)": {
						"notice": "Get the details of a shipment by ID"
					},
					"moveShipment(uint256,uint256,string)": {
						"notice": "Move the shipment to a new location after a specified number of seconds"
					},
					"updateShipmentLocation(uint256)": {
						"notice": "Check if the location should be updated and perform the update if necessary"
					}
				},
				"version": 1
			}
		}
	}
}