{"abi":[{"type":"function","name":"getProductAddress","inputs":[{"name":"_sku","type":"uint256","internalType":"uint256"}],"outputs":[{"name":"","type":"address","internalType":"address"}],"stateMutability":"view"},{"type":"function","name":"getProductSKUs","inputs":[],"outputs":[{"name":"","type":"uint256[]","internalType":"uint256[]"}],"stateMutability":"view"},{"type":"function","name":"getShipmentAddress","inputs":[{"name":"_shipmentCode","type":"uint256","internalType":"uint256"}],"outputs":[{"name":"","type":"address","internalType":"address"}],"stateMutability":"view"},{"type":"function","name":"getShipmentCodes","inputs":[],"outputs":[{"name":"","type":"uint256[]","internalType":"uint256[]"}],"stateMutability":"view"},{"type":"function","name":"registerProduct","inputs":[{"name":"_productAddress","type":"address","internalType":"address"},{"name":"_sku","type":"uint256","internalType":"uint256"}],"outputs":[],"stateMutability":"nonpayable"},{"type":"function","name":"registerShipment","inputs":[{"name":"_shipmentAddress","type":"address","internalType":"address"},{"name":"_shipmentCode","type":"uint256","internalType":"uint256"}],"outputs":[],"stateMutability":"nonpayable"},{"type":"event","name":"ProductRegistered","inputs":[{"name":"productAddress","type":"address","indexed":false,"internalType":"address"}],"anonymous":false},{"type":"event","name":"ShipmentRegistered","inputs":[{"name":"shipmentAddress","type":"address","indexed":false,"internalType":"address"}],"anonymous":false}],"bytecode":{"object":"0x608080604052346100165761042e908161001c8239f35b600080fdfe60806040908082526004918236101561001757600080fd5b600091823560e01c9081631f4ec5aa146102fb575080634b51f29f1461024857806374203b38146101a2578063a17fe4b71461016f578063bae5dbc1146101385763d24055051461006757600080fd5b3461013457610075366103cd565b600192919254600160401b81101561012157600181018060015581101561010e577fb10e2d527612073b26eecdfd717e6a320cf44b4afac2b0732d9fcbe2b7fa0cf60181905583526003602090815281842080546001600160a01b0319166001600160a01b03909416938417905590519182527f47226e044ee69ae4f4b340c0a14976c03e190a93e6ff737dc1f74102fbb6c49491a180f35b634e487b7160e01b855260328652602485fd5b634e487b7160e01b855260418652602485fd5b5080fd5b50823461016b57602036600319011261016b5735825260026020908152918190205490516001600160a01b039091168152f35b8280fd5b50823461016b57602036600319011261016b5735825260036020908152918190205490516001600160a01b039091168152f35b5034610134576101b1366103cd565b8392919254600160401b811015610121576001810180865581101561010e577f290decd9548b62a8d60345a988386fc84ba6bc95484008f6362f93160ef3e5630181905583526002602090815281842080546001600160a01b0319166001600160a01b03909416938417905590519182527f920d77a54099038b3ca6972f73124a7718c2061858d10a6232403512ffe6ad7e91a180f35b5034610134578160031936011261013457805190816001908154918282526020809201928187527fb10e2d527612073b26eecdfd717e6a320cf44b4afac2b0732d9fcbe2b7fa0cf69287905b8282106102e6575050505050829003601f01601f191682019267ffffffffffffffff8411838510176102d357508291826102cf925282610392565b0390f35b634e487b7160e01b815260418552602490fd5b84548652948501949383019390830190610294565b9190503461016b578260031936011261016b5782548083526020808401918580527f290decd9548b62a8d60345a988386fc84ba6bc95484008f6362f93160ef3e5639186905b82821061037b5750505050829003601f01601f191682019267ffffffffffffffff8411838510176102d357508291826102cf925282610392565b835485529384019360019384019390910190610341565b6020908160408183019282815285518094520193019160005b8281106103b9575050505090565b8351855293810193928101926001016103ab565b60409060031901126103f3576004356001600160a01b03811681036103f3579060243590565b600080fdfea2646970667358221220a73570b29679cbd1b66a782d870f9b7efe4a93d2f7fe4909218f427994a82af164736f6c63430008130033","linkReferences":{}},"methodIdentifiers":{"getProductAddress(uint256)":"bae5dbc1","getProductSKUs()":"1f4ec5aa","getShipmentAddress(uint256)":"a17fe4b7","getShipmentCodes()":"4b51f29f","registerProduct(address,uint256)":"74203b38","registerShipment(address,uint256)":"d2405505"},"id":44}