{"abi":[{"type":"constructor","inputs":[{"name":"_manager","type":"address","internalType":"address"}],"stateMutability":"nonpayable"},{"type":"function","name":"addManager","inputs":[{"name":"_manager","type":"address","internalType":"address"}],"outputs":[],"stateMutability":"nonpayable"},{"type":"function","name":"getManagers","inputs":[],"outputs":[{"name":"","type":"address[]","internalType":"address[]"}],"stateMutability":"view"},{"type":"event","name":"ManagerAdded","inputs":[{"name":"","type":"address","indexed":false,"internalType":"address"}],"anonymous":false},{"type":"error","name":"ManagerAlreadyAdded","inputs":[{"name":"","type":"address","internalType":"address"}]},{"type":"error","name":"Unauthorized","inputs":[{"name":"","type":"address","internalType":"address"}]}],"bytecode":{"object":"0x6080346100c557601f6103f138819003918201601f19168301916001600160401b038311848410176100ca578084926020946040528339810103126100c557516001600160a01b038116908190036100c5576000805490680100000000000000008210156100b1576001820180825582101561009d57808052602090200180546001600160a01b031916909117905560405161031090816100e18239f35b634e487b7160e01b81526032600452602490fd5b634e487b7160e01b81526041600452602490fd5b600080fd5b634e487b7160e01b600052604160045260246000fdfe6040608081526004908136101561001557600080fd5b6000803560e01c80632d06177a146101255763a8d088bb1461003657600080fd5b3461012257806003193601126101225781518091805493848352602080930180958380527f290decd9548b62a8d60345a988386fc84ba6bc95484008f6362f93160ef3e56390845b868282106101055750505050849003601f01601f191684019567ffffffffffffffff8711858810176100f2575085815282865292518583018190528594938501939290915b8281106100d257505050500390f35b83516001600160a01b0316855286955093810193928101926001016100c3565b634e487b7160e01b835260419052602482fd5b83546001600160a01b03168552909301926001928301920161007e565b80fd5b5090346102675760203660031901126102675782356001600160a01b03818116929183900361026357835484805b828110610232575b501561021c57845b8181106101df5750680100000000000000008110156101cc57917f3b4a40cccf2058c593542587329dd385be4f0b588db5471fbd9598e56dd7093a93916101b1846001602096018855610290565b819291549060031b9185831b921b191617905551908152a180f35b634e487b7160e01b855260418652602485fd5b84836101ea83610290565b90549060031b1c1614610205576102009061026b565b610163565b83516305b998f160e21b8152808801869052602490fd5b825163472511eb60e11b81523381880152602490fd5b8361023c82610290565b919054339260031b1c1614610259576102549061026b565b610153565b505060013861015b565b8380fd5b5080fd5b600019811461027a5760010190565b634e487b7160e01b600052601160045260246000fd5b9060009182548110156102c6578280527f290decd9548b62a8d60345a988386fc84ba6bc95484008f6362f93160ef3e563019190565b634e487b7160e01b83526032600452602483fdfea264697066735822122032de27355c02221ff001daecaba9c8c377fc55b9b957399f4c3587ab72e668ba64736f6c63430008130033","linkReferences":{}},"methodIdentifiers":{"addManager(address)":"2d06177a","getManagers()":"a8d088bb"},"id":39}