{"abi":[{"type":"constructor","inputs":[{"name":"_manager","type":"address","internalType":"address"},{"name":"_shipmentCode","type":"uint256","internalType":"uint256"},{"name":"_receiver","type":"address","internalType":"address"},{"name":"_productAddress","type":"address","internalType":"address"},{"name":"_productQuantity","type":"uint256","internalType":"uint256"},{"name":"_productProdDate","type":"uint256","internalType":"uint256"},{"name":"_productExpDate","type":"uint256","internalType":"uint256"},{"name":"_locations","type":"string[]","internalType":"string[]"}],"stateMutability":"nonpayable"},{"type":"function","name":"addManager","inputs":[{"name":"_manager","type":"address","internalType":"address"}],"outputs":[],"stateMutability":"nonpayable"},{"type":"function","name":"cancelShipment","inputs":[],"outputs":[],"stateMutability":"nonpayable"},{"type":"function","name":"checkNotExpired","inputs":[],"outputs":[{"name":"","type":"bool","internalType":"bool"}],"stateMutability":"view"},{"type":"function","name":"checkWithinAllowedWeatherCondition","inputs":[],"outputs":[{"name":"","type":"bool","internalType":"bool"}],"stateMutability":"view"},{"type":"function","name":"delivererVerify","inputs":[],"outputs":[],"stateMutability":"nonpayable"},{"type":"function","name":"getManagers","inputs":[],"outputs":[{"name":"","type":"address[]","internalType":"address[]"}],"stateMutability":"view"},{"type":"function","name":"getShipmentDetails","inputs":[],"outputs":[{"name":"","type":"uint256","internalType":"uint256"},{"name":"","type":"address","internalType":"address"},{"name":"","type":"address","internalType":"address"},{"name":"","type":"uint256","internalType":"uint256"},{"name":"","type":"uint256","internalType":"uint256"},{"name":"","type":"uint256","internalType":"uint256"},{"name":"","type":"string","internalType":"string"},{"name":"","type":"string[]","internalType":"string[]"},{"name":"","type":"string","internalType":"string"},{"name":"","type":"uint256","internalType":"uint256"}],"stateMutability":"view"},{"type":"function","name":"moveShipment","inputs":[{"name":"_seconds","type":"uint256","internalType":"uint256"}],"outputs":[],"stateMutability":"nonpayable"},{"type":"function","name":"receiverVerify","inputs":[],"outputs":[],"stateMutability":"nonpayable"},{"type":"function","name":"updateShipmentLocation","inputs":[],"outputs":[],"stateMutability":"nonpayable"},{"type":"event","name":"LocationUpdated","inputs":[{"name":"newLocation","type":"string","indexed":false,"internalType":"string"}],"anonymous":false},{"type":"event","name":"ManagerAdded","inputs":[{"name":"","type":"address","indexed":false,"internalType":"address"}],"anonymous":false},{"type":"error","name":"InvalidTimestamp","inputs":[{"name":"","type":"string","internalType":"string"}]},{"type":"error","name":"ManagerAlreadyAdded","inputs":[{"name":"","type":"address","internalType":"address"}]},{"type":"error","name":"ShipmentDelivered","inputs":[{"name":"","type":"uint8","internalType":"enum Shipment.ShipmentStatus"}]},{"type":"error","name":"ShipmentFinalizedOrCancelled","inputs":[{"name":"","type":"uint8","internalType":"enum Shipment.ShipmentStatus"}]},{"type":"error","name":"ShipmentNotDelivered","inputs":[{"name":"","type":"uint8","internalType":"enum Shipment.ShipmentStatus"}]},{"type":"error","name":"Unauthorized","inputs":[{"name":"","type":"address","internalType":"address"}]}],"bytecode":{"object":"0x6080604052346200050957620016d2803803806200001d8162000523565b9283396101008282810103126200050957620000398262000549565b6020830151926200004d6040820162000549565b936200005c6060830162000549565b9460808301519360a08401519160c08501519360e086015160018060401b0381116200050957888701601f828901011215620005095786810151966001600160401b0388116200044c578760051b6020620000b981830162000523565b809a815201809b8084016020848787010101116200050957602085850101915b602084878701010183106200046257505050505050600054680100000000000000008110156200044c5760018101806000558110156200043657600080527f290decd9548b62a8d60345a988386fc84ba6bc95484008f6362f93160ef3e5630180546001600160a01b03199081166001600160a01b0395861617909155929142851180156200042c575b620003d957829160015516826002541617600255600397169087541617865560049384556005556006555191680100000000000000008311620003c4576008548360085580841062000339575b506008600090815291600080516020620016b2833981519152915b848410620001f757600060075560ff19600954166009556000600a556040516110fd9081620005b58239f35b80518051906001600160401b03821162000324576200021785546200055e565b601f8111620002e2575b50602090601f83116001146200027057928260019493602093869560009262000264575b5050600019828c1b1c191690841b1786555b01930193019291620001cb565b01519050388062000245565b90601f198316918660005260206000209260005b818110620002c95750936020936001969387969383889510620002b0575b505050811b01865562000257565b0151600019838e1b60f8161c19169055388080620002a2565b9293602060018192878601518155019501930162000284565b6200031290866000526020600020601f850160051c8101916020861062000319575b601f0160051c01906200059b565b3862000221565b909150819062000304565b604184634e487b7160e01b6000525260246000fd5b6008600052600080516020620016b28339815191529081019084015b818110620003645750620001b0565b8062000373600192546200055e565b8062000382575b500162000355565b601f811183146200039a5750600081555b386200037a565b600090828252620003ba601f60208420920160051c82018583016200059b565b8183555562000393565b604182634e487b7160e01b6000525260246000fd5b6040516255059d60e51b815260206004820152602560248201527f50726f64756374696f6e206f7220457870697279204461746520697320696e7660448201526430b634b21760d91b6064820152608490fd5b5042861062000163565b634e487b7160e01b600052603260045260246000fd5b634e487b7160e01b600052604160045260246000fd5b82516001600160401b0381116200050957828601603f828989010101121562000509578587018101602001516001600160401b0381116200050e57620004b2601f8201601f191660200162000523565b91818352848801604083838c8c0101010111620005095760005b828110620004ee575050600060209183018201529082529283019201620000d9565b806040602092848d8d010101015182828701015201620004cc565b600080fd5b60246000634e487b7160e01b81526041600452fd5b6040519190601f01601f191682016001600160401b038111838210176200044c57604052565b51906001600160a01b03821682036200050957565b90600182811c9216801562000590575b60208310146200057a57565b634e487b7160e01b600052602260045260246000fd5b91607f16916200056e565b818110620005a7575050565b600081556001016200059b56fe60806040908082526004918236101561001757600080fd5b600091823560e01c908163282c4c4314610944575080632d06177a146108035780632df2f0371461072e5780633efdc712146107125780636321e0bf146105fb578063652dbd8b1461043757806377abd75b14610412578063a260f02b146102e2578063a8d088bb1461021c5763ed7b64541461009357600080fd5b3461021857816003193601126102185760095460ff8116600681101580610205576002821480156101f9575b6101dd576101ca5784811480156101c0575b6101a15750600a54804210159081610197575b506100ed578280f35b6100f8600754610a5c565b80600755600854906000198201918211610184579394507fdb6cff65287c5dccc0d31ed5fdabffd31ff758bafb419c6cc5664f12cfc829339361016e939291036101785750600260ff1960095416176009555b83600a5561015a600754610acb565b509051918291602083526020830190610b6c565b0390a18038808280f35b60ff191660095561014b565b634e487b7160e01b855260118652602485fd5b90501515386100e4565b825163de623f3d60e01b81529081906101bc90828801610c29565b0390fd5b50600581146100d1565b634e487b7160e01b845260218552602484fd5b508251631b2a2def60e21b81529081906101bc90828801610c29565b505083600382146100bf565b634e487b7160e01b855260218652602485fd5b5080fd5b5090346102df57806003193601126102df57908051918290805491828552602080950180938380527f290decd9548b62a8d60345a988386fc84ba6bc95484008f6362f93160ef3e56390845b8181106102c2575050508161027e910382610b4a565b83519485948186019282875251809352850193925b8281106102a257505050500390f35b83516001600160a01b031685528695509381019392810192600101610293565b82546001600160a01b031684529288019260019283019201610268565b80fd5b5082903461040e57602036600319011261040e5782838454905b8181106103d3575b5050156103bc5760ff60095416906006821015806103a95760028314801561039d575b6103825761036f578282148015610365575b61034b57836103488435610e68565b80f35b5163de623f3d60e01b81529081906101bc90828501610c29565b5060058214610339565b634e487b7160e01b845260218352602484fd5b5051631b2a2def60e21b81529081906101bc90828501610c29565b50508360038314610327565b634e487b7160e01b855260218452602485fd5b60249250519063472511eb60e11b82523390820152fd5b6103dc81610a81565b905460039190911b1c6001600160a01b03163314610402576103fd90610a5c565b6102fc565b50505060018480610304565b8280fd5b503461021857816003193601126102185760209061042e610cf2565b90519015158152f35b5090346102df57806003193601126102df57600180549160018060a01b0391826002541692600354169186549361049c60055460065490610479600754610acb565b509761048960ff60095416610fad565b976104a3600a549a8d5196878092610b6c565b0386610b4a565b6008549b67ffffffffffffffff8d116105e7578c9d50809c9697999a9b9c51976020976104d5898260051b018b610b4a565b89528789019e8f60088d527ff3f7a9fe364faab93b216da50a3214154f22a0a2b415b23a84c8169e8b636ee38d915b8383106105b257505050508782519e8f90815201528c015260608b015260808a015260a08901526101408060c08a0152880161053f91610a1c565b9187830360e08901525191828152818101828460051b8301019995915b8483106105845789808a6105798e8c848203610100860152610a1c565b906101208301520390f35b909192939484806105a1899d849a601f1987830301885251610a1c565b9c019301930191959493929061055c565b9c809e9d8c82919d9e9d88516105d3816105cc8189610b6c565b0382610b4a565b8152019201920191909d9c9d9b9a9b610504565b50634e487b7160e01b875260418d52602487fd5b5082903461040e578260031936011261040e5782838454905b8181106106d7575b5050156103bc576009549160ff8316916006831015806106c4576002841480156106b8575b61069d5761068a578183148015610680575b6106665760ff1984166005176009558480f35b5163de623f3d60e01b81529182916101bc91908301610c29565b5060058314610653565b634e487b7160e01b855260218252602485fd5b5051631b2a2def60e21b81529182916101bc91908301610c29565b50508460038414610641565b634e487b7160e01b865260218352602486fd5b6106e081610a81565b905460039190911b1c6001600160a01b031633146107065761070190610a5c565b610614565b5050506001848061061c565b503461021857816003193601126102185760209061042e610c52565b5082903461040e578260031936011261040e5782838454905b8181106107c8575b5050156103bc576009549160ff8316916006831015806106c457831580156107bc575b6107a15761068a578183148015610797575b6106665760ff1984166003176009558480f35b5060058314610784565b5051634d07121760e11b81529182916101bc91908301610c29565b50508460018414610772565b6107d181610a81565b905460039190911b1c6001600160a01b031633146107f7576107f290610a5c565b610747565b5050506001848061074f565b50346102185760203660031901126102185782356001600160a01b03818116929183900361094057835484805b82811061090f575b50156108f957845b8181106108bc5750680100000000000000008110156108a957917f3b4a40cccf2058c593542587329dd385be4f0b588db5471fbd9598e56dd7093a939161088e846001602096018855610a81565b819291549060031b9185831b921b191617905551908152a180f35b634e487b7160e01b855260418652602485fd5b84836108c783610a81565b90549060031b1c16146108e2576108dd90610a5c565b610840565b83516305b998f160e21b8152808801869052602490fd5b825163472511eb60e11b81523381880152602490fd5b8361091982610a81565b919054339260031b1c16146109365761093190610a5c565b610830565b5050600138610838565b8380fd5b84929150346109405783600319360112610940576002546001600160a01b03163303610a0857506009549060ff8216906006821015806109f557821580156109e9575b6109ce576103a95783821480156109c4575b6109aa57505060ff19161760095580f35b5163de623f3d60e01b81529081906101bc90828601610c29565b5060058214610999565b5051634d07121760e11b81529081906101bc90828601610c29565b50508460018314610987565b634e487b7160e01b865260218552602486fd5b63472511eb60e11b81523383820152602490fd5b919082519283825260005b848110610a48575050826000602080949584010152601f8019910116010190565b602081830181015184830182015201610a27565b6000198114610a6b5760010190565b634e487b7160e01b600052601160045260246000fd5b906000918254811015610ab7578280527f290decd9548b62a8d60345a988386fc84ba6bc95484008f6362f93160ef3e563019190565b634e487b7160e01b83526032600452602483fd5b600854811015610b025760086000527ff3f7a9fe364faab93b216da50a3214154f22a0a2b415b23a84c8169e8b636ee30190600090565b634e487b7160e01b600052603260045260246000fd5b6040810190811067ffffffffffffffff821117610b3457604052565b634e487b7160e01b600052604160045260246000fd5b90601f8019910116810190811067ffffffffffffffff821117610b3457604052565b80546000939260018083169383821c938515610c1f575b6020958686108114610c0957858552908115610bea5750600114610ba9575b5050505050565b90939495506000929192528360002092846000945b838610610bd657505050500101903880808080610ba2565b805485870183015294019385908201610bbe565b60ff19168685015250505090151560051b010191503880808080610ba2565b634e487b7160e01b600052602260045260246000fd5b93607f1693610b83565b919060208301926006821015610c3c5752565b634e487b7160e01b600052602160045260246000fd5b60ff60095416600681101580610c3c57600282148015610cd2575b610cb757610c3c57600481148015610cad575b610c905750610c8d610cdf565b90565b60405163de623f3d60e01b81529081906101bc9060048301610c29565b5060058114610c80565b604051631b2a2def60e21b8152806101bc8460048301610c29565b5050600060038214610c6d565b6006544211610ced57600190565b600090565b60ff60095416600681101580610c3c57600282148015610d37575b610cb757610c3c57600481148015610d2d575b610c905750610c8d610d84565b5060058114610d20565b5050600060038214610d0d565b90816040910312610d7f5760405190604082019082821067ffffffffffffffff831117610b3457602091604052805183520151602082015290565b600080fd5b6003546040805163742c438760e01b8082529193926001600160a01b0316908481600481855afa908115610e5d57600091610e40575b5051601410918215610dd5575b5050909150610ced57600190565b84919250600482518094819382525afa908115610e355760209293600092610e08575b5050015160141181903880610dc7565b610e279250803d10610e2e575b610e1f8183610b4a565b810190610d44565b3880610df8565b503d610e15565b83513d6000823e3d90fd5b610e579150853d8711610e2e57610e1f8183610b4a565b38610dba565b85513d6000823e3d90fd5b610e70610c52565b158015610f9e575b610ede57600160ff1960095416176009554201804211610a6b57600a557fdb6cff65287c5dccc0d31ed5fdabffd31ff758bafb419c6cc5664f12cfc82933610ed9610ec4600754610acb565b50604051918291602083526020830190610b6c565b0390a1565b5060008054815b818110610f63575b505015610f4b5760095460ff8116600681101580610c3c57600282148015610f3e575b610cb757610c3c57600481148015610f34575b610c90575060ff1916600517600955565b5060058114610f23565b5050600060038214610f10565b60405163472511eb60e11b8152336004820152602490fd5b610f6c81610a81565b905460039190911b1c6001600160a01b03163314610f9257610f8d90610a5c565b610ee5565b50505060013880610eed565b50610fa7610cf2565b15610e78565b6006811015610c3c5780156110a1576001811461107c5760028114611056576003811461102457600414610fff576040516020810181811067ffffffffffffffff821117610b34576040526000815290565b60405161100b81610b18565b6009815268119a5b985b1a5e995960ba1b602082015290565b5060405161103181610b18565b60158152742b32b934b334b2b210313c902232b634bb32b932b960591b602082015290565b5060405161106381610b18565b600981526811195b1a5d995c995960ba1b602082015290565b5060405161108981610b18565b60088152675368697070696e6760c01b602082015290565b506040516110ae81610b18565b6009815268507265706172696e6760b81b60208201529056fea2646970667358221220ccfa52221d6c85d81599f2e8b059cd18239221301ea97318a56f8454b9bf31f264736f6c63430008130033f3f7a9fe364faab93b216da50a3214154f22a0a2b415b23a84c8169e8b636ee3","linkReferences":{}},"methodIdentifiers":{"addManager(address)":"2d06177a","cancelShipment()":"6321e0bf","checkNotExpired()":"3efdc712","checkWithinAllowedWeatherCondition()":"77abd75b","delivererVerify()":"2df2f037","getManagers()":"a8d088bb","getShipmentDetails()":"652dbd8b","moveShipment(uint256)":"a260f02b","receiverVerify()":"282c4c43","updateShipmentLocation()":"ed7b6454"},"id":45}