{"abi":[{"type":"constructor","inputs":[{"name":"_registryAddress","type":"address","internalType":"address"}],"stateMutability":"nonpayable"},{"type":"function","name":"addManager","inputs":[{"name":"_manager","type":"address","internalType":"address"}],"outputs":[],"stateMutability":"nonpayable"},{"type":"function","name":"createProduct","inputs":[{"name":"_name","type":"string","internalType":"string"},{"name":"_description","type":"string","internalType":"string"},{"name":"_minCTemperature","type":"uint256","internalType":"uint256"},{"name":"_maxCTemperature","type":"uint256","internalType":"uint256"}],"outputs":[{"name":"","type":"address","internalType":"address"}],"stateMutability":"nonpayable"},{"type":"function","name":"getManagers","inputs":[],"outputs":[{"name":"","type":"address[]","internalType":"address[]"}],"stateMutability":"view"},{"type":"function","name":"registry","inputs":[],"outputs":[{"name":"","type":"address","internalType":"contract Registry"}],"stateMutability":"view"},{"type":"event","name":"ManagerAdded","inputs":[{"name":"","type":"address","indexed":false,"internalType":"address"}],"anonymous":false},{"type":"event","name":"ProductCreated","inputs":[{"name":"sku","type":"uint256","indexed":false,"internalType":"uint256"}],"anonymous":false},{"type":"error","name":"ManagerAlreadyAdded","inputs":[{"name":"","type":"address","internalType":"address"}]},{"type":"error","name":"Unauthorized","inputs":[{"name":"","type":"address","internalType":"address"}]}],"bytecode":{"object":"0x6080346100cd57601f6112d138819003918201601f19168301916001600160401b038311848410176100d2578084926020946040528339810103126100cd57516001600160a01b038116908190036100cd576000805490680100000000000000008210156100b957600182018082558210156100a557808060209252200160018060a01b031990338282541617905560015416176001556040516111e890816100e98239f35b634e487b7160e01b81526032600452602490fd5b634e487b7160e01b81526041600452602490fd5b600080fd5b634e487b7160e01b600052604160045260246000fdfe6040608081526004803610156200001557600080fd5b600090813560e01c9081632d06177a146200046d5781637b103999146200044257816390d16cba146200011f575063a8d088bb146200005357600080fd5b346200011c57806003193601126200011c57908051918290805491828552602080950180938380527f290decd9548b62a8d60345a988386fc84ba6bc95484008f6362f93160ef3e56390845b818110620000fe5750505081620000b8910382620005c1565b83519485948186019282875251809352850193925b828110620000dd57505050500390f35b83516001600160a01b031685528695509381019392810192600101620000cd565b82546001600160a01b0316845292880192600192830192016200009f565b80fd5b8284346200043e5760803660031901126200043e5767ffffffffffffffff9183358381116200043e57620001579036908601620005fa565b9360249081358581116200043a57620001749036908301620005fa565b9483848554905b818110620003f8575b505015620003e3576001548551630fa762d560e11b81526001600160a01b03979186908290869082908c165afa908115620003d957869162000337575b505197600189018099116200032557865191610aa49182840192848410868511176200031357916200021462000223928695946200070f87393385528d602086015260c08c86015260c0850190620006cc565b908382036060850152620006cc565b90604435608082015260a0606435910152039085f095861562000309578060015416961695803b15620003055790848093926044885180988193630e84076760e31b83528c888401528d8a8401525af18015620002fb57620002b3575b602087877f8bfed7c0004768df129b4900300816f8e85b8633621048ae882252021aa699b2838c8351908152a151908152f35b8411620002eb5750505081527f8bfed7c0004768df129b4900300816f8e85b8633621048ae882252021aa699b2602080868062000280565b634e487b7160e01b825260419052fd5b86513d85823e3d90fd5b8480fd5b85513d86823e3d90fd5b634e487b7160e01b8952604187528789fd5b634e487b7160e01b8652601184528486fd5b90503d8087833e6200034a8183620005c1565b8101906020908181840312620003d157805190858211620003d557019180601f84011215620003d15782519285841162000313578360051b908a51946200039485840187620005c1565b85528380860192820101928311620003cd578301905b828210620003bd575050505089620001c1565b81518152908301908301620003aa565b8980fd5b8780fd5b8880fd5b87513d88823e3d90fd5b5083519063472511eb60e11b82523390820152fd5b620004038162000681565b905460039190911b1c6001600160a01b031633146200042d5762000427906200065b565b6200017b565b5050506001888062000184565b8380fd5b5080fd5b8284346200043e57816003193601126200043e5760015490516001600160a01b039091168152602090f35b8284346200043e5760203660031901126200043e5782356001600160a01b0381811692918390036200043a57835484805b82811062000589575b50156200057357845b818110620005305750680100000000000000008110156200051d57917f3b4a40cccf2058c593542587329dd385be4f0b588db5471fbd9598e56dd7093a93916200050284600160209601885562000681565b819291549060031b9185831b921b191617905551908152a180f35b634e487b7160e01b855260418652602485fd5b84836200053d8362000681565b90549060031b1c16146200055c5762000556906200065b565b620004b0565b83516305b998f160e21b8152808801869052602490fd5b825163472511eb60e11b81523381880152602490fd5b83620005958262000681565b919054339260031b1c1614620005b657620005b0906200065b565b6200049e565b5050600187620004a7565b90601f8019910116810190811067ffffffffffffffff821117620005e457604052565b634e487b7160e01b600052604160045260246000fd5b81601f82011215620006565780359067ffffffffffffffff8211620005e4576040519262000633601f8401601f191660200185620005c1565b828452602083830101116200065657816000926020809301838601378301015290565b600080fd5b60001981146200066b5760010190565b634e487b7160e01b600052601160045260246000fd5b906000918254811015620006b8578280527f290decd9548b62a8d60345a988386fc84ba6bc95484008f6362f93160ef3e563019190565b634e487b7160e01b83526032600452602483fd5b919082519283825260005b848110620006f9575050826000602080949584010152601f8019910116010190565b602081830181015184830182015201620006d756fe60406080815234620003d25762000aa4803803806200001e81620003d7565b92833981019060c081830312620003d25780516001600160a01b03811690819003620003d25760208281015185840151919290916001600160401b039190828111620003d257866200007291870162000413565b95606086015190838211620003d2576200008e91870162000413565b9060a060808701519601519660009485549268010000000000000000841015620003be57600193848101808955811015620003aa578780528888200180546001600160a01b031916909117905582558051848111620002b157600254918383811c931680156200039f575b888410146200038b578190601f9384811162000337575b508890848311600114620002d1578892620002c5575b5050600019600383901b1c191690831b176002555b825190848211620002b15760039384548481811c91168015620002a6575b8982101462000292578281116200024a575b5087918311600114620001e7579282939183928894620001db575b50501b9160001990841b1c19161790555b85519182870191821183831017620001c757508552828152018290526004556005555161061e9081620004868239f35b634e487b7160e01b81526041600452602490fd5b01519250388062000186565b848752878720919083601f198116895b8b8883831062000232575050501062000219575b505050811b01905562000197565b015160001983861b60f8161c191690553880806200020b565b868601518855909601959485019487935001620001f7565b8588528888208380860160051c8201928b871062000288575b0160051c019085905b8281106200027c5750506200016b565b8981550185906200026c565b9250819262000263565b634e487b7160e01b88526022600452602488fd5b90607f169062000159565b634e487b7160e01b86526041600452602486fd5b01519050388062000126565b600289528989208694509190601f1984168a5b8c82821062000320575050841162000306575b505050811b016002556200013b565b015160001960f88460031b161c19169055388080620002f7565b8385015186558997909501949384019301620002e4565b909150600288528888208480850160051c8201928b861062000381575b918791869594930160051c01915b8281106200037257505062000110565b8a815585945087910162000362565b9250819262000354565b634e487b7160e01b87526022600452602487fd5b92607f1692620000f9565b634e487b7160e01b88526032600452602488fd5b634e487b7160e01b87526041600452602487fd5b600080fd5b6040519190601f01601f191682016001600160401b03811183821017620003fd57604052565b634e487b7160e01b600052604160045260246000fd5b919080601f84011215620003d25782516001600160401b038111620003fd5760209062000449601f8201601f19168301620003d7565b92818452828287010111620003d25760005b8181106200047157508260009394955001015290565b85810183015184820184015282016200045b56fe60806040908082526004908136101561001757600080fd5b600091823560e01c91826323bc839b146102a9575081632d06177a14610163578163742c438714610116575063a8d088bb1461005257600080fd5b34610113578060031936011261011357908051918290805491828552602080950180938380527f290decd9548b62a8d60345a988386fc84ba6bc95484008f6362f93160ef3e56390845b8181106100f657505050816100b29103826105c6565b83519485948186019282875251809352850193925b8281106100d657505050500390f35b83516001600160a01b0316855286955093810193928101926001016100c7565b82546001600160a01b03168452928801926001928301920161009c565b80fd5b919050346101135780600319360112610113576020835161013681610594565b828152015281519061014782610594565b5490818152602060055491019081528251918252516020820152f35b8284346102a55760203660031901126102a55782356001600160a01b0381811692918390036102a157835484805b828110610270575b501561025a57845b81811061021d57506801000000000000000081101561020a57917f3b4a40cccf2058c593542587329dd385be4f0b588db5471fbd9598e56dd7093a93916101ef84600160209601885561054a565b819291549060031b9185831b921b191617905551908152a180f35b634e487b7160e01b855260418652602485fd5b84836102288361054a565b90549060031b1c16146102435761023e90610525565b6101a1565b83516305b998f160e21b8152808801869052602490fd5b825163472511eb60e11b81523381880152602490fd5b8361027a8261054a565b919054339260031b1c16146102975761029290610525565b610191565b5050600187610199565b8380fd5b5080fd5b838286346104e157826003193601126104e1576102c584610594565b828452826020809501526001908154938151928160025480831c9083811680156104d7575b8a831081146104c457918a9391889382855290816000146104a6575060011461044c575b5061031b925003856105c6565b82519180916003549182821c928281168015610442575b8b8510811461042f578487528b94939291811561040d57506001146103b7575b5050505090610367816103a6949303826105c6565b81519461037386610594565b5485526103996005549488870195865260a08451998a998a5289015260a08801906104e5565b91868303908701526104e5565b915160608401525160808301520390f35b929350600383527fc2575a0e9e593c00f959f8c92f12db2869c3395a3b0502d05e2516446f71f85b5b8284106103fa5750505082010186826103a6610367610352565b80548685018601529284019281016103e0565b60ff191685880152505050151560051b830101905086826103a6610367610352565b634e487b7160e01b835260228a52602483fd5b93607f1693610332565b60028652859150847f405787fa12a823e0f2b7631cc41b3ba8828b3321ca811111fa75cd3aa3bb5ace5b82841061048f575050509161031b92820101899261030e565b80548a850187015289945092850192869101610476565b60ff191684860152508a9390151560051b830101905061031b61030e565b634e487b7160e01b865260228952602486fd5b91607f16916102ea565b8280fd5b919082519283825260005b848110610511575050826000602080949584010152601f8019910116010190565b6020818301810151848301820152016104f0565b60001981146105345760010190565b634e487b7160e01b600052601160045260246000fd5b906000918254811015610580578280527f290decd9548b62a8d60345a988386fc84ba6bc95484008f6362f93160ef3e563019190565b634e487b7160e01b83526032600452602483fd5b6040810190811067ffffffffffffffff8211176105b057604052565b634e487b7160e01b600052604160045260246000fd5b90601f8019910116810190811067ffffffffffffffff8211176105b05760405256fea2646970667358221220e23ea819043ffd910391144120a39ab8743ee033d34d4e5d88a63520dbedcd6e64736f6c63430008130033a26469706673582212205e12ae9100ccc9f0b210b4d8f82fe2486818d1272645800e35777b083c491d3c64736f6c63430008130033","linkReferences":{}},"methodIdentifiers":{"addManager(address)":"2d06177a","createProduct(string,string,uint256,uint256)":"90d16cba","getManagers()":"a8d088bb","registry()":"7b103999"},"id":43}