{"abi":[{"type":"constructor","inputs":[],"stateMutability":"nonpayable"},{"type":"function","name":"acceptOwnership","inputs":[],"outputs":[],"stateMutability":"nonpayable"},{"type":"function","name":"fulfill","inputs":[{"name":"_requestId","type":"bytes32","internalType":"bytes32"},{"name":"_volume","type":"int256","internalType":"int256"}],"outputs":[],"stateMutability":"nonpayable"},{"type":"function","name":"owner","inputs":[],"outputs":[{"name":"","type":"address","internalType":"address"}],"stateMutability":"view"},{"type":"function","name":"requestVolumeData","inputs":[],"outputs":[{"name":"requestId","type":"bytes32","internalType":"bytes32"}],"stateMutability":"nonpayable"},{"type":"function","name":"transferOwnership","inputs":[{"name":"to","type":"address","internalType":"address"}],"outputs":[],"stateMutability":"nonpayable"},{"type":"function","name":"volume","inputs":[],"outputs":[{"name":"","type":"int256","internalType":"int256"}],"stateMutability":"view"},{"type":"function","name":"withdrawLink","inputs":[],"outputs":[],"stateMutability":"nonpayable"},{"type":"event","name":"ChainlinkCancelled","inputs":[{"name":"id","type":"bytes32","indexed":true,"internalType":"bytes32"}],"anonymous":false},{"type":"event","name":"ChainlinkFulfilled","inputs":[{"name":"id","type":"bytes32","indexed":true,"internalType":"bytes32"}],"anonymous":false},{"type":"event","name":"ChainlinkRequested","inputs":[{"name":"id","type":"bytes32","indexed":true,"internalType":"bytes32"}],"anonymous":false},{"type":"event","name":"OwnershipTransferRequested","inputs":[{"name":"from","type":"address","indexed":true,"internalType":"address"},{"name":"to","type":"address","indexed":true,"internalType":"address"}],"anonymous":false},{"type":"event","name":"OwnershipTransferred","inputs":[{"name":"from","type":"address","indexed":true,"internalType":"address"},{"name":"to","type":"address","indexed":true,"internalType":"address"}],"anonymous":false},{"type":"event","name":"RequestVolume","inputs":[{"name":"requestId","type":"bytes32","indexed":true,"internalType":"bytes32"},{"name":"volume","type":"int256","indexed":false,"internalType":"int256"}],"anonymous":false}],"bytecode":{"object":"0x608080604052346100dc576001600455331561009a57736090149792daaee9d1d568c9f9a6f6b46aa29efd60018060a01b03193381600654161760065573779877a7b0d9e8603169ddbd7836e478b462478981600254161760025560035416176003557f66636634313430643639366434346236383730313232333239343862646435646009556064600a5560405161115190816100e28239f35b62461bcd60e51b815260206004820152601860248201527f43616e6e6f7420736574206f776e657220746f207a65726f00000000000000006044820152606490fd5b600080fdfe6080604052600436101561001257600080fd5b6000803560e01c9081636021abac1461008a5750806379ba5097146100855780638da5cb5b146100805780638dc654a21461007b578063bda71d0414610076578063c618a1e4146100715763f2fde38b1461006c57600080fd5b610407565b6103e9565b610305565b6101e9565b6101c0565b6100fe565b346100fb57806003193601126100fb5760206100f36100ac60095430906107c3565b6100c66100b76105ba565b6100bf610596565b9083610644565b6100d96100d16105d9565b6100bf6105f9565b6100ea6100e4610623565b8261065f565b600a5490610825565b604051908152f35b80fd5b346101bb576000806003193601126100fb576007546001600160a01b03908116330361017d576006546001600160a01b0316600680546001600160a01b0319163317905590600780546001600160a01b03191690553391167f8be0079c531659141344cd1fd0a4f28419497f9722a3daafe3b4186f6b6457e08380a380f35b60405162461bcd60e51b815260206004820152601660248201527526bab9ba10313290383937b837b9b2b21037bbb732b960511b6044820152606490fd5b600080fd5b346101bb5760003660031901126101bb576006546040516001600160a01b039091168152602090f35b346101bb576000806003193601126100fb576102036104cf565b6002546102269061021a906001600160a01b031681565b6001600160a01b031690565b6040516370a0823160e01b8152306004820152602091908281602481855afa9081156102d357849284926102869285916102d8575b5060405163a9059cbb60e01b8152336004820152602481019190915293849283919082906044820190565b03925af19081156102d3576102a39284926102a6575b50506110da565b80f35b6102c59250803d106102cc575b6102bd8183610574565b81019061093d565b388061029c565b503d6102b3565b610979565b6102f89150843d86116102fe575b6102f08183610574565b8101906110cb565b3861025b565b503d6102e6565b346101bb5760403660031901126101bb576004356000818152600560205260408120549091906001600160a01b0316330361039357806103656103556102a3936000526005602052604060002090565b80546001600160a01b0319169055565b807f7cc135e0cebb02c3480ae5d74d377283180a2601f8f644edf7987b009316c63a8480a26024359061109c565b60405162461bcd60e51b815260206004820152602860248201527f536f75726365206d75737420626520746865206f7261636c65206f6620746865604482015267081c995c5d595cdd60c21b6064820152608490fd5b346101bb5760003660031901126101bb576020600854604051908152f35b346101bb5760203660031901126101bb576004356001600160a01b038116908190036101bb576104356104cf565b33811461048a57600780546001600160a01b03191682179055600654610463906001600160a01b031661021a565b7fed8889f560326eb138920d842192f0eb3dd22b4f139c87a2c57538e05bae1278600080a3005b60405162461bcd60e51b815260206004820152601760248201527f43616e6e6f74207472616e7366657220746f2073656c660000000000000000006044820152606490fd5b6006546001600160a01b031633036104e357565b60405162461bcd60e51b815260206004820152601660248201527527b7363c9031b0b63630b1363290313c9037bbb732b960511b6044820152606490fd5b634e487b7160e01b600052604160045260246000fd5b6040810190811067ffffffffffffffff82111761055357604052565b610521565b6060810190811067ffffffffffffffff82111761055357604052565b90601f8019910116810190811067ffffffffffffffff82111761055357604052565b604051906020820182811067ffffffffffffffff8211176105535760405260008252565b604051906105c782610537565b600382526219d95d60ea1b6020830152565b604051906105e682610537565b60048252630e0c2e8d60e31b6020830152565b6040519061060682610537565b600e82526d63757272656e742c74656d705f6360901b6020830152565b6040519061063082610537565b600582526474696d657360d81b6020830152565b608001805161065d939261065791610ffc565b51610ffc565b565b608061066e9101918251610ffc565b51610677610751565b5080515190610684610751565b50602081019182518082101561072b575b50815190815181601960208394860101531461071f575b50506106b6610751565b50805151916106c3610751565b5082600201908160021161071a57518111610702575b50516002828201016103e861ffff198251161790526002815192019182116106ff575050565b52565b61070e61071491610cea565b82610d00565b386106d9565b6108cc565b600101905238806106ac565b61073761074a91610cea565b61074384519185610af1565b5083610d5c565b5038610695565b604051906040820182811067ffffffffffffffff821117610553576040526000602083606081520152565b6040519060a0820182811067ffffffffffffffff82111761055357604052816000815260006020820152600060408201526000606082015260806107be610751565b910152565b906107cc61077c565b506107d561077c565b916107de61077c565b5061012060808401516107ef610751565b5061010060208201526040518091526000815201604052825260018060a01b03166020820152632f69c74160e21b604082015290565b6003546004546001810193916001600160a01b03168482116108cc576108c9946004556108c484516108b6608063ffffffff60e01b604089015116970151516040519788936320214ca360e11b60208601526000602486015260006044860152606485015230608485015260a48401528560c4840152600160e48401526101006101048401526101248301906108fd565b03601f198101865285610574565b6109dd565b90565b634e487b7160e01b600052601160045260246000fd5b906020820180921161071a57565b9190820180921161071a57565b919082519283825260005b848110610929575050826000602080949584010152601f8019910116010190565b602081830181015184830182015201610908565b908160209103126101bb575180151581036101bb5790565b6108c9939260609260018060a01b03168252602082015281604082015201906108fd565b6040513d6000823e3d90fd5b1561098c57565b60405162461bcd60e51b815260206004820152602360248201527f756e61626c6520746f207472616e73666572416e6443616c6c20746f206f7261604482015262636c6560e81b6064820152608490fd5b92610aa89293602092604051848101916bffffffffffffffffffffffff193060601b168352603482015260348152610a1481610558565b51902094610a4f82610a30886000526005602052604060002090565b80546001600160a01b0319166001600160a01b03909216919091179055565b60006040518096819582948a7fb5e6e01e79f91267dc17b4e6314d5d4d03593d2ceee0fbb452b750bd70ea5af98680a2600254610a94906001600160a01b031661021a565b630200057560e51b85529660048501610955565b03925af180156102d3576108c991600091610ac4575b50610985565b610adc915060203d81116102cc576102bd8183610574565b38610abe565b601f1981019190821161071a57565b90610afa610751565b50601f811680610b20575b50806020830152604051808352600081520160200160405290565b6020036020811161071a57810180911161071a5738610b05565b610b42610751565b50805151610b4e610751565b50602082015180821015610b80575b50815190815181607b602083948601015314610b7857505090565b600101905290565b610737610b8c91610cea565b5038610b5d565b610b9b610751565b50805151610ba7610751565b50602082015180821015610bd1575b50815190815181607a602083948601015314610b7857505090565b610737610bdd91610cea565b5038610bb6565b610bec610751565b50805151610bf8610751565b50602082015180821015610c22575b508151908151816079602083948601015314610b7857505090565b610737610c2e91610cea565b5038610c07565b610c3d610751565b50805151610c49610751565b50602082015180821015610c73575b508151908151816078602083948601015314610b7857505090565b610737610c7f91610cea565b5038610c58565b90610c8f610751565b50815151610c9b610751565b50602083015180821015610cc4575b5082519182519182916020828601015314610b7857505090565b610cd0610ce391610cea565b610cdc85519186610af1565b5084610d5c565b5038610caa565b908160011b918083046002149015171561071a57565b80519082610d0c610751565b50601f841680610d3c575b50610d3993508060208301526040518083526000815201602001604052610d5c565b50565b90506020036020811161071a57830180931161071a57610d399238610d17565b90610d65610751565b5081515190805190610d75610751565b50610d838151831115610e34565b610d8d82846108f0565b602091829182870151809111610e09575b5085518051908387820101968601918211610e01575b505001915b81811015610ddb5760001991036101000a019081199051169082511617905290565b9192610df6610df0610dfc92865181526108e2565b946108e2565b92610ae2565b610db9565b523880610db4565b610e28610e23610e2e92610e1d89896108f0565b90610e3b565b610cea565b87610d00565b38610d9e565b156101bb57565b818111610e46575090565b905090565b90610e54610751565b5081515190610e61610751565b50816008018060081161071a5760208401518111610eab575b508251906008838301019067ffffffffffffffff19825116179052600881519201918211610ea757505090565b5290565b610eb7610ebd91610cea565b84610d00565b38610e7a565b90610ecc610751565b5081515190610ed9610751565b50816004018060041161071a5760208401518111610f1b575b508251906004838301019063ffffffff19825116179052600481519201918211610ea757505090565b610eb7610f2791610cea565b38610ef2565b90610f36610751565b5081515190610f43610751565b50816002018060021161071a5760208401518111610f83575b508251906002838301019061ffff19825116179052600281519201918211610ea757505090565b610eb7610f8f91610cea565b38610f5c565b90610f9e610751565b5081515190610fab610751565b50816001018060011161071a5760208401518111610fea575b508251906001838301019060ff19825116179052600181519201918211610ea757505090565b610eb7610ff691610cea565b38610fc4565b8151610d3992919067ffffffffffffffff81166017811161102e5750606060ff61102892161782610c86565b50610d5c565b905060ff811161104c576110289061104583610c35565b5082610f95565b61ffff8111611069576110289061106283610be4565b5082610f2d565b63ffffffff8111611088576110289061108183610b93565b5082610ec3565b6110289061109583610b3a565b5082610e4b565b7fc96f0f9d314211e7f69a8332d706c8b11daeb02866f6cc9c046f88e1a07fab0e6020604051848152a2600855565b908160209103126101bb575190565b156110e157565b60405162461bcd60e51b81526020600482015260126024820152712ab730b13632903a37903a3930b739b332b960711b6044820152606490fdfea26469706673582212201514c96dac6f4e3330fbe173f394e73f27bd9ef4b02d6c9b290dcfaea5a3e8de64736f6c63430008130033","linkReferences":{}},"methodIdentifiers":{"acceptOwnership()":"79ba5097","fulfill(bytes32,int256)":"bda71d04","owner()":"8da5cb5b","requestVolumeData()":"6021abac","transferOwnership(address)":"f2fde38b","volume()":"c618a1e4","withdrawLink()":"8dc654a2"},"id":41}